{
	"contracts/Contract.sol": {
		"PatientConsentManager": {
			"abi": [
				{
					"inputs": [],
					"stateMutability": "nonpayable",
					"type": "constructor"
				},
				{
					"anonymous": false,
					"inputs": [
						{
							"indexed": true,
							"internalType": "uint256",
							"name": "recordId",
							"type": "uint256"
						},
						{
							"indexed": true,
							"internalType": "address",
							"name": "patient",
							"type": "address"
						},
						{
							"indexed": true,
							"internalType": "address",
							"name": "provider",
							"type": "address"
						},
						{
							"indexed": false,
							"internalType": "uint256",
							"name": "expiresAt",
							"type": "uint256"
						}
					],
					"name": "AccessGranted",
					"type": "event"
				},
				{
					"anonymous": false,
					"inputs": [
						{
							"indexed": true,
							"internalType": "uint256",
							"name": "recordId",
							"type": "uint256"
						},
						{
							"indexed": true,
							"internalType": "address",
							"name": "provider",
							"type": "address"
						},
						{
							"indexed": true,
							"internalType": "address",
							"name": "patient",
							"type": "address"
						},
						{
							"indexed": false,
							"internalType": "uint256",
							"name": "timestamp",
							"type": "uint256"
						}
					],
					"name": "AccessRequested",
					"type": "event"
				},
				{
					"anonymous": false,
					"inputs": [
						{
							"indexed": true,
							"internalType": "uint256",
							"name": "recordId",
							"type": "uint256"
						},
						{
							"indexed": true,
							"internalType": "address",
							"name": "patient",
							"type": "address"
						},
						{
							"indexed": true,
							"internalType": "address",
							"name": "provider",
							"type": "address"
						}
					],
					"name": "AccessRevoked",
					"type": "event"
				},
				{
					"anonymous": false,
					"inputs": [
						{
							"indexed": true,
							"internalType": "address",
							"name": "patient",
							"type": "address"
						},
						{
							"indexed": true,
							"internalType": "address",
							"name": "operator",
							"type": "address"
						},
						{
							"indexed": false,
							"internalType": "bool",
							"name": "approved",
							"type": "bool"
						}
					],
					"name": "OperatorApproved",
					"type": "event"
				},
				{
					"anonymous": false,
					"inputs": [
						{
							"indexed": true,
							"internalType": "uint256",
							"name": "recordId",
							"type": "uint256"
						},
						{
							"indexed": true,
							"internalType": "address",
							"name": "owner",
							"type": "address"
						},
						{
							"indexed": false,
							"internalType": "string",
							"name": "uri",
							"type": "string"
						}
					],
					"name": "RecordCreated",
					"type": "event"
				},
				{
					"anonymous": false,
					"inputs": [
						{
							"indexed": true,
							"internalType": "uint256",
							"name": "recordId",
							"type": "uint256"
						},
						{
							"indexed": true,
							"internalType": "address",
							"name": "owner",
							"type": "address"
						}
					],
					"name": "RecordRemoved",
					"type": "event"
				},
				{
					"anonymous": false,
					"inputs": [
						{
							"indexed": true,
							"internalType": "uint256",
							"name": "recordId",
							"type": "uint256"
						},
						{
							"indexed": true,
							"internalType": "address",
							"name": "owner",
							"type": "address"
						},
						{
							"indexed": false,
							"internalType": "string",
							"name": "newUri",
							"type": "string"
						}
					],
					"name": "RecordUpdated",
					"type": "event"
				},
				{
					"inputs": [
						{
							"internalType": "string",
							"name": "uri",
							"type": "string"
						}
					],
					"name": "createRecord",
					"outputs": [
						{
							"internalType": "uint256",
							"name": "recordId",
							"type": "uint256"
						}
					],
					"stateMutability": "nonpayable",
					"type": "function"
				},
				{
					"inputs": [],
					"name": "currentRecordCounter",
					"outputs": [
						{
							"internalType": "uint256",
							"name": "",
							"type": "uint256"
						}
					],
					"stateMutability": "view",
					"type": "function"
				},
				{
					"inputs": [
						{
							"internalType": "uint256",
							"name": "recordId",
							"type": "uint256"
						}
					],
					"name": "getRecordUri",
					"outputs": [
						{
							"internalType": "string",
							"name": "",
							"type": "string"
						}
					],
					"stateMutability": "view",
					"type": "function"
				},
				{
					"inputs": [
						{
							"internalType": "uint256",
							"name": "recordId",
							"type": "uint256"
						},
						{
							"internalType": "address",
							"name": "provider",
							"type": "address"
						},
						{
							"internalType": "uint256",
							"name": "expiresAt",
							"type": "uint256"
						}
					],
					"name": "grantAccess",
					"outputs": [],
					"stateMutability": "nonpayable",
					"type": "function"
				},
				{
					"inputs": [
						{
							"internalType": "uint256",
							"name": "",
							"type": "uint256"
						},
						{
							"internalType": "address",
							"name": "",
							"type": "address"
						}
					],
					"name": "grants",
					"outputs": [
						{
							"internalType": "uint256",
							"name": "expiresAt",
							"type": "uint256"
						},
						{
							"internalType": "bool",
							"name": "allowed",
							"type": "bool"
						}
					],
					"stateMutability": "view",
					"type": "function"
				},
				{
					"inputs": [
						{
							"internalType": "uint256",
							"name": "recordId",
							"type": "uint256"
						},
						{
							"internalType": "address",
							"name": "provider",
							"type": "address"
						}
					],
					"name": "hasAccess",
					"outputs": [
						{
							"internalType": "bool",
							"name": "",
							"type": "bool"
						}
					],
					"stateMutability": "view",
					"type": "function"
				},
				{
					"inputs": [
						{
							"internalType": "address",
							"name": "",
							"type": "address"
						},
						{
							"internalType": "address",
							"name": "",
							"type": "address"
						}
					],
					"name": "operatorApproval",
					"outputs": [
						{
							"internalType": "bool",
							"name": "",
							"type": "bool"
						}
					],
					"stateMutability": "view",
					"type": "function"
				},
				{
					"inputs": [
						{
							"internalType": "uint256",
							"name": "",
							"type": "uint256"
						}
					],
					"name": "records",
					"outputs": [
						{
							"internalType": "address",
							"name": "owner",
							"type": "address"
						},
						{
							"internalType": "string",
							"name": "uri",
							"type": "string"
						},
						{
							"internalType": "bool",
							"name": "exists",
							"type": "bool"
						}
					],
					"stateMutability": "view",
					"type": "function"
				},
				{
					"inputs": [
						{
							"internalType": "uint256",
							"name": "recordId",
							"type": "uint256"
						}
					],
					"name": "removeRecord",
					"outputs": [],
					"stateMutability": "nonpayable",
					"type": "function"
				},
				{
					"inputs": [
						{
							"internalType": "uint256",
							"name": "recordId",
							"type": "uint256"
						}
					],
					"name": "requestAccess",
					"outputs": [],
					"stateMutability": "nonpayable",
					"type": "function"
				},
				{
					"inputs": [
						{
							"internalType": "uint256",
							"name": "recordId",
							"type": "uint256"
						},
						{
							"internalType": "address",
							"name": "provider",
							"type": "address"
						}
					],
					"name": "revokeAccess",
					"outputs": [],
					"stateMutability": "nonpayable",
					"type": "function"
				},
				{
					"inputs": [
						{
							"internalType": "address",
							"name": "operator",
							"type": "address"
						},
						{
							"internalType": "bool",
							"name": "approved",
							"type": "bool"
						}
					],
					"name": "setOperatorApproval",
					"outputs": [],
					"stateMutability": "nonpayable",
					"type": "function"
				},
				{
					"inputs": [
						{
							"internalType": "uint256",
							"name": "recordId",
							"type": "uint256"
						},
						{
							"internalType": "string",
							"name": "newUri",
							"type": "string"
						}
					],
					"name": "updateRecord",
					"outputs": [],
					"stateMutability": "nonpayable",
					"type": "function"
				}
			],
			"devdoc": {
				"details": "Store only pointers (e.g., IPFS CIDs or encrypted URIs). Do NOT store raw medical data on-chain.",
				"kind": "dev",
				"methods": {
					"createRecord(string)": {
						"params": {
							"uri": "pointer to encrypted record (IPFS CID, encrypted URL, etc.)"
						},
						"returns": {
							"recordId": "newly created record id"
						}
					},
					"grantAccess(uint256,address,uint256)": {
						"params": {
							"expiresAt": "Unix timestamp when access expires (0 for immediate revoke). Must be in the future.",
							"provider": "The provider address (e.g., provider's wallet)",
							"recordId": "The record to grant access to"
						}
					}
				},
				"title": "PatientConsentManager",
				"version": 1
			},
			"evm": {
				"assembly": "    /* \"contracts/Contract.sol\":322:6970  contract PatientConsentManager {... */\n  mstore(0x40, 0x80)\n    /* \"contracts/Contract.sol\":2646:2662  constructor() {} */\n  callvalue\n  dup1\n  iszero\n  tag_1\n  jumpi\n  revert(0x00, 0x00)\ntag_1:\n  pop\n    /* \"contracts/Contract.sol\":322:6970  contract PatientConsentManager {... */\n  dataSize(sub_0)\n  dup1\n  dataOffset(sub_0)\n  0x00\n  codecopy\n  0x00\n  return\nstop\n\nsub_0: assembly {\n        /* \"contracts/Contract.sol\":322:6970  contract PatientConsentManager {... */\n      mstore(0x40, 0x80)\n      callvalue\n      dup1\n      iszero\n      tag_1\n      jumpi\n      revert(0x00, 0x00)\n    tag_1:\n      pop\n      jumpi(tag_2, lt(calldatasize, 0x04))\n      shr(0xe0, calldataload(0x00))\n      dup1\n      0xa63a1098\n      gt\n      tag_16\n      jumpi\n      dup1\n      0xced14198\n      gt\n      tag_17\n      jumpi\n      dup1\n      0xced14198\n      eq\n      tag_12\n      jumpi\n      dup1\n      0xd603b284\n      eq\n      tag_13\n      jumpi\n      dup1\n      0xd9a5ec1b\n      eq\n      tag_14\n      jumpi\n      dup1\n      0xdb70504b\n      eq\n      tag_15\n      jumpi\n      jump(tag_2)\n    tag_17:\n      dup1\n      0xa63a1098\n      eq\n      tag_9\n      jumpi\n      dup1\n      0xa9fb2d81\n      eq\n      tag_10\n      jumpi\n      dup1\n      0xbd98aa8b\n      eq\n      tag_11\n      jumpi\n      jump(tag_2)\n    tag_16:\n      dup1\n      0x16030146\n      eq\n      tag_3\n      jumpi\n      dup1\n      0x1c631466\n      eq\n      tag_4\n      jumpi\n      dup1\n      0x34461067\n      eq\n      tag_5\n      jumpi\n      dup1\n      0x7526f517\n      eq\n      tag_6\n      jumpi\n      dup1\n      0x7fdc2cdc\n      eq\n      tag_7\n      jumpi\n      dup1\n      0x8693a683\n      eq\n      tag_8\n      jumpi\n    tag_2:\n      revert(0x00, 0x00)\n        /* \"contracts/Contract.sol\":6420:6820  function getRecordUri(uint256 recordId) external view returns (string memory) {... */\n    tag_3:\n      tag_18\n      0x04\n      dup1\n      calldatasize\n      sub\n      dup2\n      add\n      swap1\n      tag_19\n      swap2\n      swap1\n      tag_20\n      jump\t// in\n    tag_19:\n      tag_21\n      jump\t// in\n    tag_18:\n      mload(0x40)\n      tag_22\n      swap2\n      swap1\n      tag_23\n      jump\t// in\n    tag_22:\n      mload(0x40)\n      dup1\n      swap2\n      sub\n      swap1\n      return\n        /* \"contracts/Contract.sol\":3315:3538  function updateRecord(uint256 recordId, string calldata newUri) external onlyPatientOrOperator(recordId) {... */\n    tag_4:\n      tag_24\n      0x04\n      dup1\n      calldatasize\n      sub\n      dup2\n      add\n      swap1\n      tag_25\n      swap2\n      swap1\n      tag_26\n      jump\t// in\n    tag_25:\n      tag_27\n      jump\t// in\n    tag_24:\n      stop\n        /* \"contracts/Contract.sol\":960:1001  mapping(uint256 => Record) public records */\n    tag_5:\n      tag_28\n      0x04\n      dup1\n      calldatasize\n      sub\n      dup2\n      add\n      swap1\n      tag_29\n      swap2\n      swap1\n      tag_20\n      jump\t// in\n    tag_29:\n      tag_30\n      jump\t// in\n    tag_28:\n      mload(0x40)\n      tag_31\n      swap4\n      swap3\n      swap2\n      swap1\n      tag_32\n      jump\t// in\n    tag_31:\n      mload(0x40)\n      dup1\n      swap2\n      sub\n      swap1\n      return\n        /* \"contracts/Contract.sol\":1045:1104  mapping(uint256 => mapping(address => Grant)) public grants */\n    tag_6:\n      tag_33\n      0x04\n      dup1\n      calldatasize\n      sub\n      dup2\n      add\n      swap1\n      tag_34\n      swap2\n      swap1\n      tag_35\n      jump\t// in\n    tag_34:\n      tag_36\n      jump\t// in\n    tag_33:\n      mload(0x40)\n      tag_37\n      swap3\n      swap2\n      swap1\n      tag_38\n      jump\t// in\n    tag_37:\n      mload(0x40)\n      dup1\n      swap2\n      sub\n      swap1\n      return\n        /* \"contracts/Contract.sol\":5776:5995  function requestAccess(uint256 recordId) external {... */\n    tag_7:\n      tag_39\n      0x04\n      dup1\n      calldatasize\n      sub\n      dup2\n      add\n      swap1\n      tag_40\n      swap2\n      swap1\n      tag_20\n      jump\t// in\n    tag_40:\n      tag_41\n      jump\t// in\n    tag_39:\n      stop\n        /* \"contracts/Contract.sol\":3612:3983  function removeRecord(uint256 recordId) external onlyRecordOwner(recordId) {... */\n    tag_8:\n      tag_42\n      0x04\n      dup1\n      calldatasize\n      sub\n      dup2\n      add\n      swap1\n      tag_43\n      swap2\n      swap1\n      tag_20\n      jump\t// in\n    tag_43:\n      tag_44\n      jump\t// in\n    tag_42:\n      stop\n        /* \"contracts/Contract.sol\":4084:4284  function setOperatorApproval(address operator, bool approved) external {... */\n    tag_9:\n      tag_45\n      0x04\n      dup1\n      calldatasize\n      sub\n      dup2\n      add\n      swap1\n      tag_46\n      swap2\n      swap1\n      tag_47\n      jump\t// in\n    tag_46:\n      tag_48\n      jump\t// in\n    tag_45:\n      stop\n        /* \"contracts/Contract.sol\":1197:1265  mapping(address => mapping(address => bool)) public operatorApproval */\n    tag_10:\n      tag_49\n      0x04\n      dup1\n      calldatasize\n      sub\n      dup2\n      add\n      swap1\n      tag_50\n      swap2\n      swap1\n      tag_51\n      jump\t// in\n    tag_50:\n      tag_52\n      jump\t// in\n    tag_49:\n      mload(0x40)\n      tag_53\n      swap2\n      swap1\n      tag_54\n      jump\t// in\n    tag_53:\n      mload(0x40)\n      dup1\n      swap2\n      sub\n      swap1\n      return\n        /* \"contracts/Contract.sol\":6866:6968  function currentRecordCounter() external view returns (uint256) {... */\n    tag_11:\n      tag_55\n      tag_56\n      jump\t// in\n    tag_55:\n      mload(0x40)\n      tag_57\n      swap2\n      swap1\n      tag_58\n      jump\t// in\n    tag_57:\n      mload(0x40)\n      dup1\n      swap2\n      sub\n      swap1\n      return\n        /* \"contracts/Contract.sol\":6091:6317  function hasAccess(uint256 recordId, address provider) public view returns (bool) {... */\n    tag_12:\n      tag_59\n      0x04\n      dup1\n      calldatasize\n      sub\n      dup2\n      add\n      swap1\n      tag_60\n      swap2\n      swap1\n      tag_35\n      jump\t// in\n    tag_60:\n      tag_61\n      jump\t// in\n    tag_59:\n      mload(0x40)\n      tag_62\n      swap2\n      swap1\n      tag_54\n      jump\t// in\n    tag_62:\n      mload(0x40)\n      dup1\n      swap2\n      sub\n      swap1\n      return\n        /* \"contracts/Contract.sol\":4673:5210  function grantAccess(uint256 recordId, address provider, uint256 expiresAt) external onlyPatientOrOperator(recordId) {... */\n    tag_13:\n      tag_63\n      0x04\n      dup1\n      calldatasize\n      sub\n      dup2\n      add\n      swap1\n      tag_64\n      swap2\n      swap1\n      tag_65\n      jump\t// in\n    tag_64:\n      tag_66\n      jump\t// in\n    tag_63:\n      stop\n        /* \"contracts/Contract.sol\":5293:5651  function revokeAccess(uint256 recordId, address provider) external onlyPatientOrOperator(recordId) {... */\n    tag_14:\n      tag_67\n      0x04\n      dup1\n      calldatasize\n      sub\n      dup2\n      add\n      swap1\n      tag_68\n      swap2\n      swap1\n      tag_35\n      jump\t// in\n    tag_68:\n      tag_69\n      jump\t// in\n    tag_67:\n      stop\n        /* \"contracts/Contract.sol\":2895:3226  function createRecord(string calldata uri) external returns (uint256 recordId) {... */\n    tag_15:\n      tag_70\n      0x04\n      dup1\n      calldatasize\n      sub\n      dup2\n      add\n      swap1\n      tag_71\n      swap2\n      swap1\n      tag_72\n      jump\t// in\n    tag_71:\n      tag_73\n      jump\t// in\n    tag_70:\n      mload(0x40)\n      tag_74\n      swap2\n      swap1\n      tag_58\n      jump\t// in\n    tag_74:\n      mload(0x40)\n      dup1\n      swap2\n      sub\n      swap1\n      return\n        /* \"contracts/Contract.sol\":6420:6820  function getRecordUri(uint256 recordId) external view returns (string memory) {... */\n    tag_21:\n        /* \"contracts/Contract.sol\":6483:6496  string memory */\n      0x60\n        /* \"contracts/Contract.sol\":6516:6523  records */\n      0x01\n        /* \"contracts/Contract.sol\":6516:6533  records[recordId] */\n      0x00\n        /* \"contracts/Contract.sol\":6524:6532  recordId */\n      dup4\n        /* \"contracts/Contract.sol\":6516:6533  records[recordId] */\n      dup2\n      mstore\n      0x20\n      add\n      swap1\n      dup2\n      mstore\n      0x20\n      add\n      0x00\n      keccak256\n        /* \"contracts/Contract.sol\":6516:6540  records[recordId].exists */\n      0x02\n      add\n      0x00\n      swap1\n      sload\n      swap1\n      0x0100\n      exp\n      swap1\n      div\n      0xff\n      and\n        /* \"contracts/Contract.sol\":6508:6566  require(records[recordId].exists, \"Record does not exist\") */\n      tag_76\n      jumpi\n      mload(0x40)\n      0x08c379a000000000000000000000000000000000000000000000000000000000\n      dup2\n      mstore\n      0x04\n      add\n      tag_77\n      swap1\n      tag_78\n      jump\t// in\n    tag_77:\n      mload(0x40)\n      dup1\n      swap2\n      sub\n      swap1\n      revert\n    tag_76:\n        /* \"contracts/Contract.sol\":6576:6589  address owner */\n      0x00\n        /* \"contracts/Contract.sol\":6592:6599  records */\n      0x01\n        /* \"contracts/Contract.sol\":6592:6609  records[recordId] */\n      0x00\n        /* \"contracts/Contract.sol\":6600:6608  recordId */\n      dup5\n        /* \"contracts/Contract.sol\":6592:6609  records[recordId] */\n      dup2\n      mstore\n      0x20\n      add\n      swap1\n      dup2\n      mstore\n      0x20\n      add\n      0x00\n      keccak256\n        /* \"contracts/Contract.sol\":6592:6615  records[recordId].owner */\n      0x00\n      add\n      0x00\n      swap1\n      sload\n      swap1\n      0x0100\n      exp\n      swap1\n      div\n      0xffffffffffffffffffffffffffffffffffffffff\n      and\n        /* \"contracts/Contract.sol\":6576:6615  address owner = records[recordId].owner */\n      swap1\n      pop\n        /* \"contracts/Contract.sol\":6643:6648  owner */\n      dup1\n        /* \"contracts/Contract.sol\":6629:6648  msg.sender == owner */\n      0xffffffffffffffffffffffffffffffffffffffff\n      and\n        /* \"contracts/Contract.sol\":6629:6639  msg.sender */\n      caller\n        /* \"contracts/Contract.sol\":6629:6648  msg.sender == owner */\n      0xffffffffffffffffffffffffffffffffffffffff\n      and\n      sub\n        /* \"contracts/Contract.sol\":6625:6703  if (msg.sender == owner) {... */\n      tag_79\n      jumpi\n        /* \"contracts/Contract.sol\":6671:6678  records */\n      0x01\n        /* \"contracts/Contract.sol\":6671:6688  records[recordId] */\n      0x00\n        /* \"contracts/Contract.sol\":6679:6687  recordId */\n      dup5\n        /* \"contracts/Contract.sol\":6671:6688  records[recordId] */\n      dup2\n      mstore\n      0x20\n      add\n      swap1\n      dup2\n      mstore\n      0x20\n      add\n      0x00\n      keccak256\n        /* \"contracts/Contract.sol\":6671:6692  records[recordId].uri */\n      0x01\n      add\n        /* \"contracts/Contract.sol\":6664:6692  return records[recordId].uri */\n      dup1\n      sload\n      tag_80\n      swap1\n      tag_81\n      jump\t// in\n    tag_80:\n      dup1\n      0x1f\n      add\n      0x20\n      dup1\n      swap2\n      div\n      mul\n      0x20\n      add\n      mload(0x40)\n      swap1\n      dup2\n      add\n      0x40\n      mstore\n      dup1\n      swap3\n      swap2\n      swap1\n      dup2\n      dup2\n      mstore\n      0x20\n      add\n      dup3\n      dup1\n      sload\n      tag_82\n      swap1\n      tag_81\n      jump\t// in\n    tag_82:\n      dup1\n      iszero\n      tag_83\n      jumpi\n      dup1\n      0x1f\n      lt\n      tag_84\n      jumpi\n      0x0100\n      dup1\n      dup4\n      sload\n      div\n      mul\n      dup4\n      mstore\n      swap2\n      0x20\n      add\n      swap2\n      jump(tag_83)\n    tag_84:\n      dup3\n      add\n      swap2\n      swap1\n      0x00\n      mstore\n      keccak256(0x00, 0x20)\n      swap1\n    tag_85:\n      dup2\n      sload\n      dup2\n      mstore\n      swap1\n      0x01\n      add\n      swap1\n      0x20\n      add\n      dup1\n      dup4\n      gt\n      tag_85\n      jumpi\n      dup3\n      swap1\n      sub\n      0x1f\n      and\n      dup3\n      add\n      swap2\n    tag_83:\n      pop\n      pop\n      pop\n      pop\n      pop\n      swap2\n      pop\n      pop\n      jump(tag_75)\n        /* \"contracts/Contract.sol\":6625:6703  if (msg.sender == owner) {... */\n    tag_79:\n        /* \"contracts/Contract.sol\":6720:6751  hasAccess(recordId, msg.sender) */\n      tag_86\n        /* \"contracts/Contract.sol\":6730:6738  recordId */\n      dup4\n        /* \"contracts/Contract.sol\":6740:6750  msg.sender */\n      caller\n        /* \"contracts/Contract.sol\":6720:6729  hasAccess */\n      tag_61\n        /* \"contracts/Contract.sol\":6720:6751  hasAccess(recordId, msg.sender) */\n      jump\t// in\n    tag_86:\n        /* \"contracts/Contract.sol\":6712:6775  require(hasAccess(recordId, msg.sender), \"No access to record\") */\n      tag_87\n      jumpi\n      mload(0x40)\n      0x08c379a000000000000000000000000000000000000000000000000000000000\n      dup2\n      mstore\n      0x04\n      add\n      tag_88\n      swap1\n      tag_89\n      jump\t// in\n    tag_88:\n      mload(0x40)\n      dup1\n      swap2\n      sub\n      swap1\n      revert\n    tag_87:\n        /* \"contracts/Contract.sol\":6792:6799  records */\n      0x01\n        /* \"contracts/Contract.sol\":6792:6809  records[recordId] */\n      0x00\n        /* \"contracts/Contract.sol\":6800:6808  recordId */\n      dup5\n        /* \"contracts/Contract.sol\":6792:6809  records[recordId] */\n      dup2\n      mstore\n      0x20\n      add\n      swap1\n      dup2\n      mstore\n      0x20\n      add\n      0x00\n      keccak256\n        /* \"contracts/Contract.sol\":6792:6813  records[recordId].uri */\n      0x01\n      add\n        /* \"contracts/Contract.sol\":6785:6813  return records[recordId].uri */\n      dup1\n      sload\n      tag_90\n      swap1\n      tag_81\n      jump\t// in\n    tag_90:\n      dup1\n      0x1f\n      add\n      0x20\n      dup1\n      swap2\n      div\n      mul\n      0x20\n      add\n      mload(0x40)\n      swap1\n      dup2\n      add\n      0x40\n      mstore\n      dup1\n      swap3\n      swap2\n      swap1\n      dup2\n      dup2\n      mstore\n      0x20\n      add\n      dup3\n      dup1\n      sload\n      tag_91\n      swap1\n      tag_81\n      jump\t// in\n    tag_91:\n      dup1\n      iszero\n      tag_92\n      jumpi\n      dup1\n      0x1f\n      lt\n      tag_93\n      jumpi\n      0x0100\n      dup1\n      dup4\n      sload\n      div\n      mul\n      dup4\n      mstore\n      swap2\n      0x20\n      add\n      swap2\n      jump(tag_92)\n    tag_93:\n      dup3\n      add\n      swap2\n      swap1\n      0x00\n      mstore\n      keccak256(0x00, 0x20)\n      swap1\n    tag_94:\n      dup2\n      sload\n      dup2\n      mstore\n      swap1\n      0x01\n      add\n      swap1\n      0x20\n      add\n      dup1\n      dup4\n      gt\n      tag_94\n      jumpi\n      dup3\n      swap1\n      sub\n      0x1f\n      and\n      dup3\n      add\n      swap2\n    tag_92:\n      pop\n      pop\n      pop\n      pop\n      pop\n      swap2\n      pop\n      pop\n        /* \"contracts/Contract.sol\":6420:6820  function getRecordUri(uint256 recordId) external view returns (string memory) {... */\n    tag_75:\n      swap2\n      swap1\n      pop\n      jump\t// out\n        /* \"contracts/Contract.sol\":3315:3538  function updateRecord(uint256 recordId, string calldata newUri) external onlyPatientOrOperator(recordId) {... */\n    tag_27:\n        /* \"contracts/Contract.sol\":3410:3418  recordId */\n      dup3\n        /* \"contracts/Contract.sol\":2342:2349  records */\n      0x01\n        /* \"contracts/Contract.sol\":2342:2359  records[recordId] */\n      0x00\n        /* \"contracts/Contract.sol\":2350:2358  recordId */\n      dup3\n        /* \"contracts/Contract.sol\":2342:2359  records[recordId] */\n      dup2\n      mstore\n      0x20\n      add\n      swap1\n      dup2\n      mstore\n      0x20\n      add\n      0x00\n      keccak256\n        /* \"contracts/Contract.sol\":2342:2366  records[recordId].exists */\n      0x02\n      add\n      0x00\n      swap1\n      sload\n      swap1\n      0x0100\n      exp\n      swap1\n      div\n      0xff\n      and\n        /* \"contracts/Contract.sol\":2334:2392  require(records[recordId].exists, \"Record does not exist\") */\n      tag_96\n      jumpi\n      mload(0x40)\n      0x08c379a000000000000000000000000000000000000000000000000000000000\n      dup2\n      mstore\n      0x04\n      add\n      tag_97\n      swap1\n      tag_78\n      jump\t// in\n    tag_97:\n      mload(0x40)\n      dup1\n      swap2\n      sub\n      swap1\n      revert\n    tag_96:\n        /* \"contracts/Contract.sol\":2402:2417  address patient */\n      0x00\n        /* \"contracts/Contract.sol\":2420:2427  records */\n      0x01\n        /* \"contracts/Contract.sol\":2420:2437  records[recordId] */\n      0x00\n        /* \"contracts/Contract.sol\":2428:2436  recordId */\n      dup4\n        /* \"contracts/Contract.sol\":2420:2437  records[recordId] */\n      dup2\n      mstore\n      0x20\n      add\n      swap1\n      dup2\n      mstore\n      0x20\n      add\n      0x00\n      keccak256\n        /* \"contracts/Contract.sol\":2420:2443  records[recordId].owner */\n      0x00\n      add\n      0x00\n      swap1\n      sload\n      swap1\n      0x0100\n      exp\n      swap1\n      div\n      0xffffffffffffffffffffffffffffffffffffffff\n      and\n        /* \"contracts/Contract.sol\":2402:2443  address patient = records[recordId].owner */\n      swap1\n      pop\n        /* \"contracts/Contract.sol\":2488:2495  patient */\n      dup1\n        /* \"contracts/Contract.sol\":2474:2495  msg.sender == patient */\n      0xffffffffffffffffffffffffffffffffffffffff\n      and\n        /* \"contracts/Contract.sol\":2474:2484  msg.sender */\n      caller\n        /* \"contracts/Contract.sol\":2474:2495  msg.sender == patient */\n      0xffffffffffffffffffffffffffffffffffffffff\n      and\n      eq\n        /* \"contracts/Contract.sol\":2474:2536  msg.sender == patient || operatorApproval[patient][msg.sender] */\n      dup1\n      tag_98\n      jumpi\n      pop\n        /* \"contracts/Contract.sol\":2499:2515  operatorApproval */\n      0x03\n        /* \"contracts/Contract.sol\":2499:2524  operatorApproval[patient] */\n      0x00\n        /* \"contracts/Contract.sol\":2516:2523  patient */\n      dup3\n        /* \"contracts/Contract.sol\":2499:2524  operatorApproval[patient] */\n      0xffffffffffffffffffffffffffffffffffffffff\n      and\n      0xffffffffffffffffffffffffffffffffffffffff\n      and\n      dup2\n      mstore\n      0x20\n      add\n      swap1\n      dup2\n      mstore\n      0x20\n      add\n      0x00\n      keccak256\n        /* \"contracts/Contract.sol\":2499:2536  operatorApproval[patient][msg.sender] */\n      0x00\n        /* \"contracts/Contract.sol\":2525:2535  msg.sender */\n      caller\n        /* \"contracts/Contract.sol\":2499:2536  operatorApproval[patient][msg.sender] */\n      0xffffffffffffffffffffffffffffffffffffffff\n      and\n      0xffffffffffffffffffffffffffffffffffffffff\n      and\n      dup2\n      mstore\n      0x20\n      add\n      swap1\n      dup2\n      mstore\n      0x20\n      add\n      0x00\n      keccak256\n      0x00\n      swap1\n      sload\n      swap1\n      0x0100\n      exp\n      swap1\n      div\n      0xff\n      and\n        /* \"contracts/Contract.sol\":2474:2536  msg.sender == patient || operatorApproval[patient][msg.sender] */\n    tag_98:\n        /* \"contracts/Contract.sol\":2453:2595  require(... */\n      tag_99\n      jumpi\n      mload(0x40)\n      0x08c379a000000000000000000000000000000000000000000000000000000000\n      dup2\n      mstore\n      0x04\n      add\n      tag_100\n      swap1\n      tag_101\n      jump\t// in\n    tag_100:\n      mload(0x40)\n      dup1\n      swap2\n      sub\n      swap1\n      revert\n    tag_99:\n        /* \"contracts/Contract.sol\":3454:3460  newUri */\n      dup4\n      dup4\n        /* \"contracts/Contract.sol\":3430:3437  records */\n      0x01\n        /* \"contracts/Contract.sol\":3430:3447  records[recordId] */\n      0x00\n        /* \"contracts/Contract.sol\":3438:3446  recordId */\n      dup9\n        /* \"contracts/Contract.sol\":3430:3447  records[recordId] */\n      dup2\n      mstore\n      0x20\n      add\n      swap1\n      dup2\n      mstore\n      0x20\n      add\n      0x00\n      keccak256\n        /* \"contracts/Contract.sol\":3430:3451  records[recordId].uri */\n      0x01\n      add\n        /* \"contracts/Contract.sol\":3430:3460  records[recordId].uri = newUri */\n      swap2\n      dup3\n      tag_103\n      swap3\n      swap2\n      swap1\n      tag_104\n      jump\t// in\n    tag_103:\n      pop\n        /* \"contracts/Contract.sol\":3499:3506  records */\n      0x01\n        /* \"contracts/Contract.sol\":3499:3516  records[recordId] */\n      0x00\n        /* \"contracts/Contract.sol\":3507:3515  recordId */\n      dup7\n        /* \"contracts/Contract.sol\":3499:3516  records[recordId] */\n      dup2\n      mstore\n      0x20\n      add\n      swap1\n      dup2\n      mstore\n      0x20\n      add\n      0x00\n      keccak256\n        /* \"contracts/Contract.sol\":3499:3522  records[recordId].owner */\n      0x00\n      add\n      0x00\n      swap1\n      sload\n      swap1\n      0x0100\n      exp\n      swap1\n      div\n      0xffffffffffffffffffffffffffffffffffffffff\n      and\n        /* \"contracts/Contract.sol\":3475:3531  RecordUpdated(recordId, records[recordId].owner, newUri) */\n      0xffffffffffffffffffffffffffffffffffffffff\n      and\n        /* \"contracts/Contract.sol\":3489:3497  recordId */\n      dup6\n        /* \"contracts/Contract.sol\":3475:3531  RecordUpdated(recordId, records[recordId].owner, newUri) */\n      0xd448fa896af10b43d8077624e4dad9299f15dca1958f0f5a554dc66d68e9e4ee\n        /* \"contracts/Contract.sol\":3524:3530  newUri */\n      dup7\n      dup7\n        /* \"contracts/Contract.sol\":3475:3531  RecordUpdated(recordId, records[recordId].owner, newUri) */\n      mload(0x40)\n      tag_105\n      swap3\n      swap2\n      swap1\n      tag_106\n      jump\t// in\n    tag_105:\n      mload(0x40)\n      dup1\n      swap2\n      sub\n      swap1\n      log3\n        /* \"contracts/Contract.sol\":2324:2613  {... */\n      pop\n        /* \"contracts/Contract.sol\":3315:3538  function updateRecord(uint256 recordId, string calldata newUri) external onlyPatientOrOperator(recordId) {... */\n      pop\n      pop\n      pop\n      pop\n      jump\t// out\n        /* \"contracts/Contract.sol\":960:1001  mapping(uint256 => Record) public records */\n    tag_30:\n      mstore(0x20, 0x01)\n      dup1\n      0x00\n      mstore\n      keccak256(0x00, 0x40)\n      0x00\n      swap2\n      pop\n      swap1\n      pop\n      dup1\n      0x00\n      add\n      0x00\n      swap1\n      sload\n      swap1\n      0x0100\n      exp\n      swap1\n      div\n      0xffffffffffffffffffffffffffffffffffffffff\n      and\n      swap1\n      dup1\n      0x01\n      add\n      dup1\n      sload\n      tag_107\n      swap1\n      tag_81\n      jump\t// in\n    tag_107:\n      dup1\n      0x1f\n      add\n      0x20\n      dup1\n      swap2\n      div\n      mul\n      0x20\n      add\n      mload(0x40)\n      swap1\n      dup2\n      add\n      0x40\n      mstore\n      dup1\n      swap3\n      swap2\n      swap1\n      dup2\n      dup2\n      mstore\n      0x20\n      add\n      dup3\n      dup1\n      sload\n      tag_108\n      swap1\n      tag_81\n      jump\t// in\n    tag_108:\n      dup1\n      iszero\n      tag_109\n      jumpi\n      dup1\n      0x1f\n      lt\n      tag_110\n      jumpi\n      0x0100\n      dup1\n      dup4\n      sload\n      div\n      mul\n      dup4\n      mstore\n      swap2\n      0x20\n      add\n      swap2\n      jump(tag_109)\n    tag_110:\n      dup3\n      add\n      swap2\n      swap1\n      0x00\n      mstore\n      keccak256(0x00, 0x20)\n      swap1\n    tag_111:\n      dup2\n      sload\n      dup2\n      mstore\n      swap1\n      0x01\n      add\n      swap1\n      0x20\n      add\n      dup1\n      dup4\n      gt\n      tag_111\n      jumpi\n      dup3\n      swap1\n      sub\n      0x1f\n      and\n      dup3\n      add\n      swap2\n    tag_109:\n      pop\n      pop\n      pop\n      pop\n      pop\n      swap1\n      dup1\n      0x02\n      add\n      0x00\n      swap1\n      sload\n      swap1\n      0x0100\n      exp\n      swap1\n      div\n      0xff\n      and\n      swap1\n      pop\n      dup4\n      jump\t// out\n        /* \"contracts/Contract.sol\":1045:1104  mapping(uint256 => mapping(address => Grant)) public grants */\n    tag_36:\n      mstore(0x20, 0x02)\n      dup2\n      0x00\n      mstore\n      mstore(0x20, keccak256(0x00, 0x40))\n      dup1\n      0x00\n      mstore\n      keccak256(0x00, 0x40)\n      0x00\n      swap2\n      pop\n      swap2\n      pop\n      pop\n      dup1\n      0x00\n      add\n      sload\n      swap1\n      dup1\n      0x01\n      add\n      0x00\n      swap1\n      sload\n      swap1\n      0x0100\n      exp\n      swap1\n      div\n      0xff\n      and\n      swap1\n      pop\n      dup3\n      jump\t// out\n        /* \"contracts/Contract.sol\":5776:5995  function requestAccess(uint256 recordId) external {... */\n    tag_41:\n        /* \"contracts/Contract.sol\":5844:5851  records */\n      0x01\n        /* \"contracts/Contract.sol\":5844:5861  records[recordId] */\n      0x00\n        /* \"contracts/Contract.sol\":5852:5860  recordId */\n      dup3\n        /* \"contracts/Contract.sol\":5844:5861  records[recordId] */\n      dup2\n      mstore\n      0x20\n      add\n      swap1\n      dup2\n      mstore\n      0x20\n      add\n      0x00\n      keccak256\n        /* \"contracts/Contract.sol\":5844:5868  records[recordId].exists */\n      0x02\n      add\n      0x00\n      swap1\n      sload\n      swap1\n      0x0100\n      exp\n      swap1\n      div\n      0xff\n      and\n        /* \"contracts/Contract.sol\":5836:5894  require(records[recordId].exists, \"Record does not exist\") */\n      tag_113\n      jumpi\n      mload(0x40)\n      0x08c379a000000000000000000000000000000000000000000000000000000000\n      dup2\n      mstore\n      0x04\n      add\n      tag_114\n      swap1\n      tag_78\n      jump\t// in\n    tag_114:\n      mload(0x40)\n      dup1\n      swap2\n      sub\n      swap1\n      revert\n    tag_113:\n        /* \"contracts/Contract.sol\":5947:5954  records */\n      0x01\n        /* \"contracts/Contract.sol\":5947:5964  records[recordId] */\n      0x00\n        /* \"contracts/Contract.sol\":5955:5963  recordId */\n      dup3\n        /* \"contracts/Contract.sol\":5947:5964  records[recordId] */\n      dup2\n      mstore\n      0x20\n      add\n      swap1\n      dup2\n      mstore\n      0x20\n      add\n      0x00\n      keccak256\n        /* \"contracts/Contract.sol\":5947:5970  records[recordId].owner */\n      0x00\n      add\n      0x00\n      swap1\n      sload\n      swap1\n      0x0100\n      exp\n      swap1\n      div\n      0xffffffffffffffffffffffffffffffffffffffff\n      and\n        /* \"contracts/Contract.sol\":5909:5988  AccessRequested(recordId, msg.sender, records[recordId].owner, block.timestamp) */\n      0xffffffffffffffffffffffffffffffffffffffff\n      and\n        /* \"contracts/Contract.sol\":5935:5945  msg.sender */\n      caller\n        /* \"contracts/Contract.sol\":5909:5988  AccessRequested(recordId, msg.sender, records[recordId].owner, block.timestamp) */\n      0xffffffffffffffffffffffffffffffffffffffff\n      and\n        /* \"contracts/Contract.sol\":5925:5933  recordId */\n      dup3\n        /* \"contracts/Contract.sol\":5909:5988  AccessRequested(recordId, msg.sender, records[recordId].owner, block.timestamp) */\n      0xd62937245f876eb48076464ab0f1df7295b17a2e93b4b75b4da096404632aed4\n        /* \"contracts/Contract.sol\":5972:5987  block.timestamp */\n      timestamp\n        /* \"contracts/Contract.sol\":5909:5988  AccessRequested(recordId, msg.sender, records[recordId].owner, block.timestamp) */\n      mload(0x40)\n      tag_115\n      swap2\n      swap1\n      tag_58\n      jump\t// in\n    tag_115:\n      mload(0x40)\n      dup1\n      swap2\n      sub\n      swap1\n      log4\n        /* \"contracts/Contract.sol\":5776:5995  function requestAccess(uint256 recordId) external {... */\n      pop\n      jump\t// out\n        /* \"contracts/Contract.sol\":3612:3983  function removeRecord(uint256 recordId) external onlyRecordOwner(recordId) {... */\n    tag_44:\n        /* \"contracts/Contract.sol\":3677:3685  recordId */\n      dup1\n        /* \"contracts/Contract.sol\":2125:2132  records */\n      0x01\n        /* \"contracts/Contract.sol\":2125:2142  records[recordId] */\n      0x00\n        /* \"contracts/Contract.sol\":2133:2141  recordId */\n      dup3\n        /* \"contracts/Contract.sol\":2125:2142  records[recordId] */\n      dup2\n      mstore\n      0x20\n      add\n      swap1\n      dup2\n      mstore\n      0x20\n      add\n      0x00\n      keccak256\n        /* \"contracts/Contract.sol\":2125:2149  records[recordId].exists */\n      0x02\n      add\n      0x00\n      swap1\n      sload\n      swap1\n      0x0100\n      exp\n      swap1\n      div\n      0xff\n      and\n        /* \"contracts/Contract.sol\":2117:2175  require(records[recordId].exists, \"Record does not exist\") */\n      tag_117\n      jumpi\n      mload(0x40)\n      0x08c379a000000000000000000000000000000000000000000000000000000000\n      dup2\n      mstore\n      0x04\n      add\n      tag_118\n      swap1\n      tag_78\n      jump\t// in\n    tag_118:\n      mload(0x40)\n      dup1\n      swap2\n      sub\n      swap1\n      revert\n    tag_117:\n        /* \"contracts/Contract.sol\":2220:2230  msg.sender */\n      caller\n        /* \"contracts/Contract.sol\":2193:2230  records[recordId].owner == msg.sender */\n      0xffffffffffffffffffffffffffffffffffffffff\n      and\n        /* \"contracts/Contract.sol\":2193:2200  records */\n      0x01\n        /* \"contracts/Contract.sol\":2193:2210  records[recordId] */\n      0x00\n        /* \"contracts/Contract.sol\":2201:2209  recordId */\n      dup4\n        /* \"contracts/Contract.sol\":2193:2210  records[recordId] */\n      dup2\n      mstore\n      0x20\n      add\n      swap1\n      dup2\n      mstore\n      0x20\n      add\n      0x00\n      keccak256\n        /* \"contracts/Contract.sol\":2193:2216  records[recordId].owner */\n      0x00\n      add\n      0x00\n      swap1\n      sload\n      swap1\n      0x0100\n      exp\n      swap1\n      div\n      0xffffffffffffffffffffffffffffffffffffffff\n      and\n        /* \"contracts/Contract.sol\":2193:2230  records[recordId].owner == msg.sender */\n      0xffffffffffffffffffffffffffffffffffffffff\n      and\n      eq\n        /* \"contracts/Contract.sol\":2185:2251  require(records[recordId].owner == msg.sender, \"Not record owner\") */\n      tag_119\n      jumpi\n      mload(0x40)\n      0x08c379a000000000000000000000000000000000000000000000000000000000\n      dup2\n      mstore\n      0x04\n      add\n      tag_120\n      swap1\n      tag_121\n      jump\t// in\n    tag_120:\n      mload(0x40)\n      dup1\n      swap2\n      sub\n      swap1\n      revert\n    tag_119:\n        /* \"contracts/Contract.sol\":3704:3711  records */\n      0x01\n        /* \"contracts/Contract.sol\":3704:3721  records[recordId] */\n      0x00\n        /* \"contracts/Contract.sol\":3712:3720  recordId */\n      dup4\n        /* \"contracts/Contract.sol\":3704:3721  records[recordId] */\n      dup2\n      mstore\n      0x20\n      add\n      swap1\n      dup2\n      mstore\n      0x20\n      add\n      0x00\n      keccak256\n      0x00\n        /* \"contracts/Contract.sol\":3697:3721  delete records[recordId] */\n      0x00\n      dup3\n      add\n      exp(0x0100, 0x00)\n      dup2\n      sload\n      swap1\n      0xffffffffffffffffffffffffffffffffffffffff\n      mul\n      not\n      and\n      swap1\n      sstore\n      0x01\n      dup3\n      add\n      0x00\n      tag_123\n      swap2\n      swap1\n      tag_124\n      jump\t// in\n    tag_123:\n      0x02\n      dup3\n      add\n      exp(0x0100, 0x00)\n      dup2\n      sload\n      swap1\n      0xff\n      mul\n      not\n      and\n      swap1\n      sstore\n      pop\n      pop\n        /* \"contracts/Contract.sol\":3965:3975  msg.sender */\n      caller\n        /* \"contracts/Contract.sol\":3941:3976  RecordRemoved(recordId, msg.sender) */\n      0xffffffffffffffffffffffffffffffffffffffff\n      and\n        /* \"contracts/Contract.sol\":3955:3963  recordId */\n      dup3\n        /* \"contracts/Contract.sol\":3941:3976  RecordRemoved(recordId, msg.sender) */\n      0x5f0c26152e348a4e21e023ffa27b58d6019f813f280f27ce5a1c4ec6c6bbb018\n      mload(0x40)\n      mload(0x40)\n      dup1\n      swap2\n      sub\n      swap1\n      log3\n        /* \"contracts/Contract.sol\":3612:3983  function removeRecord(uint256 recordId) external onlyRecordOwner(recordId) {... */\n      pop\n      pop\n      jump\t// out\n        /* \"contracts/Contract.sol\":4084:4284  function setOperatorApproval(address operator, bool approved) external {... */\n    tag_48:\n        /* \"contracts/Contract.sol\":4206:4214  approved */\n      dup1\n        /* \"contracts/Contract.sol\":4165:4181  operatorApproval */\n      0x03\n        /* \"contracts/Contract.sol\":4165:4193  operatorApproval[msg.sender] */\n      0x00\n        /* \"contracts/Contract.sol\":4182:4192  msg.sender */\n      caller\n        /* \"contracts/Contract.sol\":4165:4193  operatorApproval[msg.sender] */\n      0xffffffffffffffffffffffffffffffffffffffff\n      and\n      0xffffffffffffffffffffffffffffffffffffffff\n      and\n      dup2\n      mstore\n      0x20\n      add\n      swap1\n      dup2\n      mstore\n      0x20\n      add\n      0x00\n      keccak256\n        /* \"contracts/Contract.sol\":4165:4203  operatorApproval[msg.sender][operator] */\n      0x00\n        /* \"contracts/Contract.sol\":4194:4202  operator */\n      dup5\n        /* \"contracts/Contract.sol\":4165:4203  operatorApproval[msg.sender][operator] */\n      0xffffffffffffffffffffffffffffffffffffffff\n      and\n      0xffffffffffffffffffffffffffffffffffffffff\n      and\n      dup2\n      mstore\n      0x20\n      add\n      swap1\n      dup2\n      mstore\n      0x20\n      add\n      0x00\n      keccak256\n      0x00\n        /* \"contracts/Contract.sol\":4165:4214  operatorApproval[msg.sender][operator] = approved */\n      0x0100\n      exp\n      dup2\n      sload\n      dup2\n      0xff\n      mul\n      not\n      and\n      swap1\n      dup4\n      iszero\n      iszero\n      mul\n      or\n      swap1\n      sstore\n      pop\n        /* \"contracts/Contract.sol\":4258:4266  operator */\n      dup2\n        /* \"contracts/Contract.sol\":4229:4277  OperatorApproved(msg.sender, operator, approved) */\n      0xffffffffffffffffffffffffffffffffffffffff\n      and\n        /* \"contracts/Contract.sol\":4246:4256  msg.sender */\n      caller\n        /* \"contracts/Contract.sol\":4229:4277  OperatorApproved(msg.sender, operator, approved) */\n      0xffffffffffffffffffffffffffffffffffffffff\n      and\n      0x42ef3a6445090af5f522bf393e8d432b01eb65949f6e2bca70984e3630b63777\n        /* \"contracts/Contract.sol\":4268:4276  approved */\n      dup4\n        /* \"contracts/Contract.sol\":4229:4277  OperatorApproved(msg.sender, operator, approved) */\n      mload(0x40)\n      tag_126\n      swap2\n      swap1\n      tag_54\n      jump\t// in\n    tag_126:\n      mload(0x40)\n      dup1\n      swap2\n      sub\n      swap1\n      log3\n        /* \"contracts/Contract.sol\":4084:4284  function setOperatorApproval(address operator, bool approved) external {... */\n      pop\n      pop\n      jump\t// out\n        /* \"contracts/Contract.sol\":1197:1265  mapping(address => mapping(address => bool)) public operatorApproval */\n    tag_52:\n      mstore(0x20, 0x03)\n      dup2\n      0x00\n      mstore\n      mstore(0x20, keccak256(0x00, 0x40))\n      dup1\n      0x00\n      mstore\n      keccak256(0x00, 0x40)\n      0x00\n      swap2\n      pop\n      swap2\n      pop\n      swap1\n      sload\n      swap1\n      0x0100\n      exp\n      swap1\n      div\n      0xff\n      and\n      dup2\n      jump\t// out\n        /* \"contracts/Contract.sol\":6866:6968  function currentRecordCounter() external view returns (uint256) {... */\n    tag_56:\n        /* \"contracts/Contract.sol\":6921:6928  uint256 */\n      0x00\n        /* \"contracts/Contract.sol\":6947:6961  _recordCounter */\n      sload(0x00)\n        /* \"contracts/Contract.sol\":6940:6961  return _recordCounter */\n      swap1\n      pop\n        /* \"contracts/Contract.sol\":6866:6968  function currentRecordCounter() external view returns (uint256) {... */\n      swap1\n      jump\t// out\n        /* \"contracts/Contract.sol\":6091:6317  function hasAccess(uint256 recordId, address provider) public view returns (bool) {... */\n    tag_61:\n        /* \"contracts/Contract.sol\":6167:6171  bool */\n      0x00\n        /* \"contracts/Contract.sol\":6183:6197  Grant memory g */\n      0x00\n        /* \"contracts/Contract.sol\":6200:6206  grants */\n      0x02\n        /* \"contracts/Contract.sol\":6200:6216  grants[recordId] */\n      0x00\n        /* \"contracts/Contract.sol\":6207:6215  recordId */\n      dup6\n        /* \"contracts/Contract.sol\":6200:6216  grants[recordId] */\n      dup2\n      mstore\n      0x20\n      add\n      swap1\n      dup2\n      mstore\n      0x20\n      add\n      0x00\n      keccak256\n        /* \"contracts/Contract.sol\":6200:6226  grants[recordId][provider] */\n      0x00\n        /* \"contracts/Contract.sol\":6217:6225  provider */\n      dup5\n        /* \"contracts/Contract.sol\":6200:6226  grants[recordId][provider] */\n      0xffffffffffffffffffffffffffffffffffffffff\n      and\n      0xffffffffffffffffffffffffffffffffffffffff\n      and\n      dup2\n      mstore\n      0x20\n      add\n      swap1\n      dup2\n      mstore\n      0x20\n      add\n      0x00\n      keccak256\n        /* \"contracts/Contract.sol\":6183:6226  Grant memory g = grants[recordId][provider] */\n      mload(0x40)\n      dup1\n      0x40\n      add\n      0x40\n      mstore\n      swap1\n      dup2\n      0x00\n      dup3\n      add\n      sload\n      dup2\n      mstore\n      0x20\n      add\n      0x01\n      dup3\n      add\n      0x00\n      swap1\n      sload\n      swap1\n      0x0100\n      exp\n      swap1\n      div\n      0xff\n      and\n      iszero\n      iszero\n      iszero\n      iszero\n      dup2\n      mstore\n      pop\n      pop\n      swap1\n      pop\n        /* \"contracts/Contract.sol\":6241:6242  g */\n      dup1\n        /* \"contracts/Contract.sol\":6241:6250  g.allowed */\n      0x20\n      add\n      mload\n        /* \"contracts/Contract.sol\":6236:6264  if (!g.allowed) return false */\n      tag_129\n      jumpi\n        /* \"contracts/Contract.sol\":6259:6264  false */\n      0x00\n        /* \"contracts/Contract.sol\":6252:6264  return false */\n      swap2\n      pop\n      pop\n      jump(tag_128)\n        /* \"contracts/Contract.sol\":6236:6264  if (!g.allowed) return false */\n    tag_129:\n        /* \"contracts/Contract.sol\":6295:6310  block.timestamp */\n      timestamp\n        /* \"contracts/Contract.sol\":6281:6282  g */\n      dup2\n        /* \"contracts/Contract.sol\":6281:6292  g.expiresAt */\n      0x00\n      add\n      mload\n        /* \"contracts/Contract.sol\":6281:6310  g.expiresAt > block.timestamp */\n      gt\n        /* \"contracts/Contract.sol\":6274:6310  return g.expiresAt > block.timestamp */\n      swap2\n      pop\n      pop\n        /* \"contracts/Contract.sol\":6091:6317  function hasAccess(uint256 recordId, address provider) public view returns (bool) {... */\n    tag_128:\n      swap3\n      swap2\n      pop\n      pop\n      jump\t// out\n        /* \"contracts/Contract.sol\":4673:5210  function grantAccess(uint256 recordId, address provider, uint256 expiresAt) external onlyPatientOrOperator(recordId) {... */\n    tag_66:\n        /* \"contracts/Contract.sol\":4780:4788  recordId */\n      dup3\n        /* \"contracts/Contract.sol\":2342:2349  records */\n      0x01\n        /* \"contracts/Contract.sol\":2342:2359  records[recordId] */\n      0x00\n        /* \"contracts/Contract.sol\":2350:2358  recordId */\n      dup3\n        /* \"contracts/Contract.sol\":2342:2359  records[recordId] */\n      dup2\n      mstore\n      0x20\n      add\n      swap1\n      dup2\n      mstore\n      0x20\n      add\n      0x00\n      keccak256\n        /* \"contracts/Contract.sol\":2342:2366  records[recordId].exists */\n      0x02\n      add\n      0x00\n      swap1\n      sload\n      swap1\n      0x0100\n      exp\n      swap1\n      div\n      0xff\n      and\n        /* \"contracts/Contract.sol\":2334:2392  require(records[recordId].exists, \"Record does not exist\") */\n      tag_131\n      jumpi\n      mload(0x40)\n      0x08c379a000000000000000000000000000000000000000000000000000000000\n      dup2\n      mstore\n      0x04\n      add\n      tag_132\n      swap1\n      tag_78\n      jump\t// in\n    tag_132:\n      mload(0x40)\n      dup1\n      swap2\n      sub\n      swap1\n      revert\n    tag_131:\n        /* \"contracts/Contract.sol\":2402:2417  address patient */\n      0x00\n        /* \"contracts/Contract.sol\":2420:2427  records */\n      0x01\n        /* \"contracts/Contract.sol\":2420:2437  records[recordId] */\n      0x00\n        /* \"contracts/Contract.sol\":2428:2436  recordId */\n      dup4\n        /* \"contracts/Contract.sol\":2420:2437  records[recordId] */\n      dup2\n      mstore\n      0x20\n      add\n      swap1\n      dup2\n      mstore\n      0x20\n      add\n      0x00\n      keccak256\n        /* \"contracts/Contract.sol\":2420:2443  records[recordId].owner */\n      0x00\n      add\n      0x00\n      swap1\n      sload\n      swap1\n      0x0100\n      exp\n      swap1\n      div\n      0xffffffffffffffffffffffffffffffffffffffff\n      and\n        /* \"contracts/Contract.sol\":2402:2443  address patient = records[recordId].owner */\n      swap1\n      pop\n        /* \"contracts/Contract.sol\":2488:2495  patient */\n      dup1\n        /* \"contracts/Contract.sol\":2474:2495  msg.sender == patient */\n      0xffffffffffffffffffffffffffffffffffffffff\n      and\n        /* \"contracts/Contract.sol\":2474:2484  msg.sender */\n      caller\n        /* \"contracts/Contract.sol\":2474:2495  msg.sender == patient */\n      0xffffffffffffffffffffffffffffffffffffffff\n      and\n      eq\n        /* \"contracts/Contract.sol\":2474:2536  msg.sender == patient || operatorApproval[patient][msg.sender] */\n      dup1\n      tag_133\n      jumpi\n      pop\n        /* \"contracts/Contract.sol\":2499:2515  operatorApproval */\n      0x03\n        /* \"contracts/Contract.sol\":2499:2524  operatorApproval[patient] */\n      0x00\n        /* \"contracts/Contract.sol\":2516:2523  patient */\n      dup3\n        /* \"contracts/Contract.sol\":2499:2524  operatorApproval[patient] */\n      0xffffffffffffffffffffffffffffffffffffffff\n      and\n      0xffffffffffffffffffffffffffffffffffffffff\n      and\n      dup2\n      mstore\n      0x20\n      add\n      swap1\n      dup2\n      mstore\n      0x20\n      add\n      0x00\n      keccak256\n        /* \"contracts/Contract.sol\":2499:2536  operatorApproval[patient][msg.sender] */\n      0x00\n        /* \"contracts/Contract.sol\":2525:2535  msg.sender */\n      caller\n        /* \"contracts/Contract.sol\":2499:2536  operatorApproval[patient][msg.sender] */\n      0xffffffffffffffffffffffffffffffffffffffff\n      and\n      0xffffffffffffffffffffffffffffffffffffffff\n      and\n      dup2\n      mstore\n      0x20\n      add\n      swap1\n      dup2\n      mstore\n      0x20\n      add\n      0x00\n      keccak256\n      0x00\n      swap1\n      sload\n      swap1\n      0x0100\n      exp\n      swap1\n      div\n      0xff\n      and\n        /* \"contracts/Contract.sol\":2474:2536  msg.sender == patient || operatorApproval[patient][msg.sender] */\n    tag_133:\n        /* \"contracts/Contract.sol\":2453:2595  require(... */\n      tag_134\n      jumpi\n      mload(0x40)\n      0x08c379a000000000000000000000000000000000000000000000000000000000\n      dup2\n      mstore\n      0x04\n      add\n      tag_135\n      swap1\n      tag_101\n      jump\t// in\n    tag_135:\n      mload(0x40)\n      dup1\n      swap2\n      sub\n      swap1\n      revert\n    tag_134:\n        /* \"contracts/Contract.sol\":4828:4829  0 */\n      0x00\n        /* \"contracts/Contract.sol\":4808:4830  provider != address(0) */\n      0xffffffffffffffffffffffffffffffffffffffff\n      and\n        /* \"contracts/Contract.sol\":4808:4816  provider */\n      dup5\n        /* \"contracts/Contract.sol\":4808:4830  provider != address(0) */\n      0xffffffffffffffffffffffffffffffffffffffff\n      and\n      sub\n        /* \"contracts/Contract.sol\":4800:4851  require(provider != address(0), \"Invalid provider\") */\n      tag_137\n      jumpi\n      mload(0x40)\n      0x08c379a000000000000000000000000000000000000000000000000000000000\n      dup2\n      mstore\n      0x04\n      add\n      tag_138\n      swap1\n      tag_139\n      jump\t// in\n    tag_138:\n      mload(0x40)\n      dup1\n      swap2\n      sub\n      swap1\n      revert\n    tag_137:\n        /* \"contracts/Contract.sol\":4869:4876  records */\n      0x01\n        /* \"contracts/Contract.sol\":4869:4886  records[recordId] */\n      0x00\n        /* \"contracts/Contract.sol\":4877:4885  recordId */\n      dup7\n        /* \"contracts/Contract.sol\":4869:4886  records[recordId] */\n      dup2\n      mstore\n      0x20\n      add\n      swap1\n      dup2\n      mstore\n      0x20\n      add\n      0x00\n      keccak256\n        /* \"contracts/Contract.sol\":4869:4893  records[recordId].exists */\n      0x02\n      add\n      0x00\n      swap1\n      sload\n      swap1\n      0x0100\n      exp\n      swap1\n      div\n      0xff\n      and\n        /* \"contracts/Contract.sol\":4861:4919  require(records[recordId].exists, \"Record does not exist\") */\n      tag_140\n      jumpi\n      mload(0x40)\n      0x08c379a000000000000000000000000000000000000000000000000000000000\n      dup2\n      mstore\n      0x04\n      add\n      tag_141\n      swap1\n      tag_78\n      jump\t// in\n    tag_141:\n      mload(0x40)\n      dup1\n      swap2\n      sub\n      swap1\n      revert\n    tag_140:\n        /* \"contracts/Contract.sol\":4949:4964  block.timestamp */\n      timestamp\n        /* \"contracts/Contract.sol\":4937:4946  expiresAt */\n      dup4\n        /* \"contracts/Contract.sol\":4937:4964  expiresAt > block.timestamp */\n      gt\n        /* \"contracts/Contract.sol\":4929:5000  require(expiresAt > block.timestamp, \"expiresAt must be in the future\") */\n      tag_142\n      jumpi\n      mload(0x40)\n      0x08c379a000000000000000000000000000000000000000000000000000000000\n      dup2\n      mstore\n      0x04\n      add\n      tag_143\n      swap1\n      tag_144\n      jump\t// in\n    tag_143:\n      mload(0x40)\n      dup1\n      swap2\n      sub\n      swap1\n      revert\n    tag_142:\n        /* \"contracts/Contract.sol\":5040:5118  Grant({... */\n      mload(0x40)\n      dup1\n      0x40\n      add\n      0x40\n      mstore\n      dup1\n        /* \"contracts/Contract.sol\":5071:5080  expiresAt */\n      dup5\n        /* \"contracts/Contract.sol\":5040:5118  Grant({... */\n      dup2\n      mstore\n      0x20\n      add\n        /* \"contracts/Contract.sol\":5103:5107  true */\n      0x01\n        /* \"contracts/Contract.sol\":5040:5118  Grant({... */\n      iszero\n      iszero\n      dup2\n      mstore\n      pop\n        /* \"contracts/Contract.sol\":5011:5017  grants */\n      0x02\n        /* \"contracts/Contract.sol\":5011:5027  grants[recordId] */\n      0x00\n        /* \"contracts/Contract.sol\":5018:5026  recordId */\n      dup8\n        /* \"contracts/Contract.sol\":5011:5027  grants[recordId] */\n      dup2\n      mstore\n      0x20\n      add\n      swap1\n      dup2\n      mstore\n      0x20\n      add\n      0x00\n      keccak256\n        /* \"contracts/Contract.sol\":5011:5037  grants[recordId][provider] */\n      0x00\n        /* \"contracts/Contract.sol\":5028:5036  provider */\n      dup7\n        /* \"contracts/Contract.sol\":5011:5037  grants[recordId][provider] */\n      0xffffffffffffffffffffffffffffffffffffffff\n      and\n      0xffffffffffffffffffffffffffffffffffffffff\n      and\n      dup2\n      mstore\n      0x20\n      add\n      swap1\n      dup2\n      mstore\n      0x20\n      add\n      0x00\n      keccak256\n        /* \"contracts/Contract.sol\":5011:5118  grants[recordId][provider] = Grant({... */\n      0x00\n      dup3\n      add\n      mload\n      dup2\n      0x00\n      add\n      sstore\n      0x20\n      dup3\n      add\n      mload\n      dup2\n      0x01\n      add\n      exp(0x0100, 0x00)\n      dup2\n      sload\n      dup2\n      0xff\n      mul\n      not\n      and\n      swap1\n      dup4\n      iszero\n      iszero\n      mul\n      or\n      swap1\n      sstore\n      pop\n      swap1\n      pop\n      pop\n        /* \"contracts/Contract.sol\":5183:5191  provider */\n      dup4\n        /* \"contracts/Contract.sol\":5134:5203  AccessGranted(recordId, records[recordId].owner, provider, expiresAt) */\n      0xffffffffffffffffffffffffffffffffffffffff\n      and\n        /* \"contracts/Contract.sol\":5158:5165  records */\n      0x01\n        /* \"contracts/Contract.sol\":5158:5175  records[recordId] */\n      0x00\n        /* \"contracts/Contract.sol\":5166:5174  recordId */\n      dup8\n        /* \"contracts/Contract.sol\":5158:5175  records[recordId] */\n      dup2\n      mstore\n      0x20\n      add\n      swap1\n      dup2\n      mstore\n      0x20\n      add\n      0x00\n      keccak256\n        /* \"contracts/Contract.sol\":5158:5181  records[recordId].owner */\n      0x00\n      add\n      0x00\n      swap1\n      sload\n      swap1\n      0x0100\n      exp\n      swap1\n      div\n      0xffffffffffffffffffffffffffffffffffffffff\n      and\n        /* \"contracts/Contract.sol\":5134:5203  AccessGranted(recordId, records[recordId].owner, provider, expiresAt) */\n      0xffffffffffffffffffffffffffffffffffffffff\n      and\n        /* \"contracts/Contract.sol\":5148:5156  recordId */\n      dup7\n        /* \"contracts/Contract.sol\":5134:5203  AccessGranted(recordId, records[recordId].owner, provider, expiresAt) */\n      0x9ffcf664651d52310aeb78c0f8382ca5078d2de7d3cf618cb5ce6e5cabf00992\n        /* \"contracts/Contract.sol\":5193:5202  expiresAt */\n      dup7\n        /* \"contracts/Contract.sol\":5134:5203  AccessGranted(recordId, records[recordId].owner, provider, expiresAt) */\n      mload(0x40)\n      tag_145\n      swap2\n      swap1\n      tag_58\n      jump\t// in\n    tag_145:\n      mload(0x40)\n      dup1\n      swap2\n      sub\n      swap1\n      log4\n        /* \"contracts/Contract.sol\":2324:2613  {... */\n      pop\n        /* \"contracts/Contract.sol\":4673:5210  function grantAccess(uint256 recordId, address provider, uint256 expiresAt) external onlyPatientOrOperator(recordId) {... */\n      pop\n      pop\n      pop\n      pop\n      jump\t// out\n        /* \"contracts/Contract.sol\":5293:5651  function revokeAccess(uint256 recordId, address provider) external onlyPatientOrOperator(recordId) {... */\n    tag_69:\n        /* \"contracts/Contract.sol\":5382:5390  recordId */\n      dup2\n        /* \"contracts/Contract.sol\":2342:2349  records */\n      0x01\n        /* \"contracts/Contract.sol\":2342:2359  records[recordId] */\n      0x00\n        /* \"contracts/Contract.sol\":2350:2358  recordId */\n      dup3\n        /* \"contracts/Contract.sol\":2342:2359  records[recordId] */\n      dup2\n      mstore\n      0x20\n      add\n      swap1\n      dup2\n      mstore\n      0x20\n      add\n      0x00\n      keccak256\n        /* \"contracts/Contract.sol\":2342:2366  records[recordId].exists */\n      0x02\n      add\n      0x00\n      swap1\n      sload\n      swap1\n      0x0100\n      exp\n      swap1\n      div\n      0xff\n      and\n        /* \"contracts/Contract.sol\":2334:2392  require(records[recordId].exists, \"Record does not exist\") */\n      tag_147\n      jumpi\n      mload(0x40)\n      0x08c379a000000000000000000000000000000000000000000000000000000000\n      dup2\n      mstore\n      0x04\n      add\n      tag_148\n      swap1\n      tag_78\n      jump\t// in\n    tag_148:\n      mload(0x40)\n      dup1\n      swap2\n      sub\n      swap1\n      revert\n    tag_147:\n        /* \"contracts/Contract.sol\":2402:2417  address patient */\n      0x00\n        /* \"contracts/Contract.sol\":2420:2427  records */\n      0x01\n        /* \"contracts/Contract.sol\":2420:2437  records[recordId] */\n      0x00\n        /* \"contracts/Contract.sol\":2428:2436  recordId */\n      dup4\n        /* \"contracts/Contract.sol\":2420:2437  records[recordId] */\n      dup2\n      mstore\n      0x20\n      add\n      swap1\n      dup2\n      mstore\n      0x20\n      add\n      0x00\n      keccak256\n        /* \"contracts/Contract.sol\":2420:2443  records[recordId].owner */\n      0x00\n      add\n      0x00\n      swap1\n      sload\n      swap1\n      0x0100\n      exp\n      swap1\n      div\n      0xffffffffffffffffffffffffffffffffffffffff\n      and\n        /* \"contracts/Contract.sol\":2402:2443  address patient = records[recordId].owner */\n      swap1\n      pop\n        /* \"contracts/Contract.sol\":2488:2495  patient */\n      dup1\n        /* \"contracts/Contract.sol\":2474:2495  msg.sender == patient */\n      0xffffffffffffffffffffffffffffffffffffffff\n      and\n        /* \"contracts/Contract.sol\":2474:2484  msg.sender */\n      caller\n        /* \"contracts/Contract.sol\":2474:2495  msg.sender == patient */\n      0xffffffffffffffffffffffffffffffffffffffff\n      and\n      eq\n        /* \"contracts/Contract.sol\":2474:2536  msg.sender == patient || operatorApproval[patient][msg.sender] */\n      dup1\n      tag_149\n      jumpi\n      pop\n        /* \"contracts/Contract.sol\":2499:2515  operatorApproval */\n      0x03\n        /* \"contracts/Contract.sol\":2499:2524  operatorApproval[patient] */\n      0x00\n        /* \"contracts/Contract.sol\":2516:2523  patient */\n      dup3\n        /* \"contracts/Contract.sol\":2499:2524  operatorApproval[patient] */\n      0xffffffffffffffffffffffffffffffffffffffff\n      and\n      0xffffffffffffffffffffffffffffffffffffffff\n      and\n      dup2\n      mstore\n      0x20\n      add\n      swap1\n      dup2\n      mstore\n      0x20\n      add\n      0x00\n      keccak256\n        /* \"contracts/Contract.sol\":2499:2536  operatorApproval[patient][msg.sender] */\n      0x00\n        /* \"contracts/Contract.sol\":2525:2535  msg.sender */\n      caller\n        /* \"contracts/Contract.sol\":2499:2536  operatorApproval[patient][msg.sender] */\n      0xffffffffffffffffffffffffffffffffffffffff\n      and\n      0xffffffffffffffffffffffffffffffffffffffff\n      and\n      dup2\n      mstore\n      0x20\n      add\n      swap1\n      dup2\n      mstore\n      0x20\n      add\n      0x00\n      keccak256\n      0x00\n      swap1\n      sload\n      swap1\n      0x0100\n      exp\n      swap1\n      div\n      0xff\n      and\n        /* \"contracts/Contract.sol\":2474:2536  msg.sender == patient || operatorApproval[patient][msg.sender] */\n    tag_149:\n        /* \"contracts/Contract.sol\":2453:2595  require(... */\n      tag_150\n      jumpi\n      mload(0x40)\n      0x08c379a000000000000000000000000000000000000000000000000000000000\n      dup2\n      mstore\n      0x04\n      add\n      tag_151\n      swap1\n      tag_101\n      jump\t// in\n    tag_151:\n      mload(0x40)\n      dup1\n      swap2\n      sub\n      swap1\n      revert\n    tag_150:\n        /* \"contracts/Contract.sol\":5410:5417  records */\n      0x01\n        /* \"contracts/Contract.sol\":5410:5427  records[recordId] */\n      0x00\n        /* \"contracts/Contract.sol\":5418:5426  recordId */\n      dup6\n        /* \"contracts/Contract.sol\":5410:5427  records[recordId] */\n      dup2\n      mstore\n      0x20\n      add\n      swap1\n      dup2\n      mstore\n      0x20\n      add\n      0x00\n      keccak256\n        /* \"contracts/Contract.sol\":5410:5434  records[recordId].exists */\n      0x02\n      add\n      0x00\n      swap1\n      sload\n      swap1\n      0x0100\n      exp\n      swap1\n      div\n      0xff\n      and\n        /* \"contracts/Contract.sol\":5402:5460  require(records[recordId].exists, \"Record does not exist\") */\n      tag_153\n      jumpi\n      mload(0x40)\n      0x08c379a000000000000000000000000000000000000000000000000000000000\n      dup2\n      mstore\n      0x04\n      add\n      tag_154\n      swap1\n      tag_78\n      jump\t// in\n    tag_154:\n      mload(0x40)\n      dup1\n      swap2\n      sub\n      swap1\n      revert\n    tag_153:\n        /* \"contracts/Contract.sol\":5499:5570  Grant({... */\n      mload(0x40)\n      dup1\n      0x40\n      add\n      0x40\n      mstore\n      dup1\n        /* \"contracts/Contract.sol\":5530:5531  0 */\n      0x00\n        /* \"contracts/Contract.sol\":5499:5570  Grant({... */\n      dup2\n      mstore\n      0x20\n      add\n        /* \"contracts/Contract.sol\":5554:5559  false */\n      0x00\n        /* \"contracts/Contract.sol\":5499:5570  Grant({... */\n      iszero\n      iszero\n      dup2\n      mstore\n      pop\n        /* \"contracts/Contract.sol\":5470:5476  grants */\n      0x02\n        /* \"contracts/Contract.sol\":5470:5486  grants[recordId] */\n      0x00\n        /* \"contracts/Contract.sol\":5477:5485  recordId */\n      dup7\n        /* \"contracts/Contract.sol\":5470:5486  grants[recordId] */\n      dup2\n      mstore\n      0x20\n      add\n      swap1\n      dup2\n      mstore\n      0x20\n      add\n      0x00\n      keccak256\n        /* \"contracts/Contract.sol\":5470:5496  grants[recordId][provider] */\n      0x00\n        /* \"contracts/Contract.sol\":5487:5495  provider */\n      dup6\n        /* \"contracts/Contract.sol\":5470:5496  grants[recordId][provider] */\n      0xffffffffffffffffffffffffffffffffffffffff\n      and\n      0xffffffffffffffffffffffffffffffffffffffff\n      and\n      dup2\n      mstore\n      0x20\n      add\n      swap1\n      dup2\n      mstore\n      0x20\n      add\n      0x00\n      keccak256\n        /* \"contracts/Contract.sol\":5470:5570  grants[recordId][provider] = Grant({... */\n      0x00\n      dup3\n      add\n      mload\n      dup2\n      0x00\n      add\n      sstore\n      0x20\n      dup3\n      add\n      mload\n      dup2\n      0x01\n      add\n      exp(0x0100, 0x00)\n      dup2\n      sload\n      dup2\n      0xff\n      mul\n      not\n      and\n      swap1\n      dup4\n      iszero\n      iszero\n      mul\n      or\n      swap1\n      sstore\n      pop\n      swap1\n      pop\n      pop\n        /* \"contracts/Contract.sol\":5635:5643  provider */\n      dup3\n        /* \"contracts/Contract.sol\":5586:5644  AccessRevoked(recordId, records[recordId].owner, provider) */\n      0xffffffffffffffffffffffffffffffffffffffff\n      and\n        /* \"contracts/Contract.sol\":5610:5617  records */\n      0x01\n        /* \"contracts/Contract.sol\":5610:5627  records[recordId] */\n      0x00\n        /* \"contracts/Contract.sol\":5618:5626  recordId */\n      dup7\n        /* \"contracts/Contract.sol\":5610:5627  records[recordId] */\n      dup2\n      mstore\n      0x20\n      add\n      swap1\n      dup2\n      mstore\n      0x20\n      add\n      0x00\n      keccak256\n        /* \"contracts/Contract.sol\":5610:5633  records[recordId].owner */\n      0x00\n      add\n      0x00\n      swap1\n      sload\n      swap1\n      0x0100\n      exp\n      swap1\n      div\n      0xffffffffffffffffffffffffffffffffffffffff\n      and\n        /* \"contracts/Contract.sol\":5586:5644  AccessRevoked(recordId, records[recordId].owner, provider) */\n      0xffffffffffffffffffffffffffffffffffffffff\n      and\n        /* \"contracts/Contract.sol\":5600:5608  recordId */\n      dup6\n        /* \"contracts/Contract.sol\":5586:5644  AccessRevoked(recordId, records[recordId].owner, provider) */\n      0x260547d4038414ef72f081dcde91825693dff9bc433178f3e92ad36e0cd22750\n      mload(0x40)\n      mload(0x40)\n      dup1\n      swap2\n      sub\n      swap1\n      log4\n        /* \"contracts/Contract.sol\":2324:2613  {... */\n      pop\n        /* \"contracts/Contract.sol\":5293:5651  function revokeAccess(uint256 recordId, address provider) external onlyPatientOrOperator(recordId) {... */\n      pop\n      pop\n      pop\n      jump\t// out\n        /* \"contracts/Contract.sol\":2895:3226  function createRecord(string calldata uri) external returns (uint256 recordId) {... */\n    tag_73:\n        /* \"contracts/Contract.sol\":2956:2972  uint256 recordId */\n      0x00\n        /* \"contracts/Contract.sol\":2984:2998  _recordCounter */\n      0x00\n      0x00\n        /* \"contracts/Contract.sol\":2984:3000  _recordCounter++ */\n      dup2\n      sload\n      dup1\n      swap3\n      swap2\n      swap1\n      tag_156\n      swap1\n      tag_157\n      jump\t// in\n    tag_156:\n      swap2\n      swap1\n      pop\n      sstore\n      pop\n        /* \"contracts/Contract.sol\":3021:3035  _recordCounter */\n      sload(0x00)\n        /* \"contracts/Contract.sol\":3010:3035  recordId = _recordCounter */\n      swap1\n      pop\n        /* \"contracts/Contract.sol\":3066:3163  Record({... */\n      mload(0x40)\n      dup1\n      0x60\n      add\n      0x40\n      mstore\n      dup1\n        /* \"contracts/Contract.sol\":3094:3104  msg.sender */\n      caller\n        /* \"contracts/Contract.sol\":3066:3163  Record({... */\n      0xffffffffffffffffffffffffffffffffffffffff\n      and\n      dup2\n      mstore\n      0x20\n      add\n        /* \"contracts/Contract.sol\":3123:3126  uri */\n      dup5\n      dup5\n        /* \"contracts/Contract.sol\":3066:3163  Record({... */\n      dup1\n      dup1\n      0x1f\n      add\n      0x20\n      dup1\n      swap2\n      div\n      mul\n      0x20\n      add\n      mload(0x40)\n      swap1\n      dup2\n      add\n      0x40\n      mstore\n      dup1\n      swap4\n      swap3\n      swap2\n      swap1\n      dup2\n      dup2\n      mstore\n      0x20\n      add\n      dup4\n      dup4\n      dup1\n      dup3\n      dup5\n      calldatacopy\n      0x00\n      dup2\n      dup5\n      add\n      mstore\n      not(0x1f)\n      0x1f\n      dup3\n      add\n      and\n      swap1\n      pop\n      dup1\n      dup4\n      add\n      swap3\n      pop\n      pop\n      pop\n      pop\n      pop\n      pop\n      pop\n      dup2\n      mstore\n      0x20\n      add\n        /* \"contracts/Contract.sol\":3148:3152  true */\n      0x01\n        /* \"contracts/Contract.sol\":3066:3163  Record({... */\n      iszero\n      iszero\n      dup2\n      mstore\n      pop\n        /* \"contracts/Contract.sol\":3046:3053  records */\n      0x01\n        /* \"contracts/Contract.sol\":3046:3063  records[recordId] */\n      0x00\n        /* \"contracts/Contract.sol\":3054:3062  recordId */\n      dup4\n        /* \"contracts/Contract.sol\":3046:3063  records[recordId] */\n      dup2\n      mstore\n      0x20\n      add\n      swap1\n      dup2\n      mstore\n      0x20\n      add\n      0x00\n      keccak256\n        /* \"contracts/Contract.sol\":3046:3163  records[recordId] = Record({... */\n      0x00\n      dup3\n      add\n      mload\n      dup2\n      0x00\n      add\n      exp(0x0100, 0x00)\n      dup2\n      sload\n      dup2\n      0xffffffffffffffffffffffffffffffffffffffff\n      mul\n      not\n      and\n      swap1\n      dup4\n      0xffffffffffffffffffffffffffffffffffffffff\n      and\n      mul\n      or\n      swap1\n      sstore\n      pop\n      0x20\n      dup3\n      add\n      mload\n      dup2\n      0x01\n      add\n      swap1\n      dup2\n      tag_158\n      swap2\n      swap1\n      tag_159\n      jump\t// in\n    tag_158:\n      pop\n      0x40\n      dup3\n      add\n      mload\n      dup2\n      0x02\n      add\n      exp(0x0100, 0x00)\n      dup2\n      sload\n      dup2\n      0xff\n      mul\n      not\n      and\n      swap1\n      dup4\n      iszero\n      iszero\n      mul\n      or\n      swap1\n      sstore\n      pop\n      swap1\n      pop\n      pop\n        /* \"contracts/Contract.sol\":3203:3213  msg.sender */\n      caller\n        /* \"contracts/Contract.sol\":3179:3219  RecordCreated(recordId, msg.sender, uri) */\n      0xffffffffffffffffffffffffffffffffffffffff\n      and\n        /* \"contracts/Contract.sol\":3193:3201  recordId */\n      dup2\n        /* \"contracts/Contract.sol\":3179:3219  RecordCreated(recordId, msg.sender, uri) */\n      0x99a9454438287bd513ed7da46fc0ff0cabc6b573eeafb583a59e01bc2e52ef90\n        /* \"contracts/Contract.sol\":3215:3218  uri */\n      dup6\n      dup6\n        /* \"contracts/Contract.sol\":3179:3219  RecordCreated(recordId, msg.sender, uri) */\n      mload(0x40)\n      tag_160\n      swap3\n      swap2\n      swap1\n      tag_106\n      jump\t// in\n    tag_160:\n      mload(0x40)\n      dup1\n      swap2\n      sub\n      swap1\n      log3\n        /* \"contracts/Contract.sol\":2895:3226  function createRecord(string calldata uri) external returns (uint256 recordId) {... */\n      swap3\n      swap2\n      pop\n      pop\n      jump\t// out\n    tag_124:\n      pop\n      dup1\n      sload\n      tag_161\n      swap1\n      tag_81\n      jump\t// in\n    tag_161:\n      0x00\n      dup3\n      sstore\n      dup1\n      0x1f\n      lt\n      tag_163\n      jumpi\n      pop\n      jump(tag_162)\n    tag_163:\n      0x1f\n      add\n      0x20\n      swap1\n      div\n      swap1\n      0x00\n      mstore\n      keccak256(0x00, 0x20)\n      swap1\n      dup2\n      add\n      swap1\n      tag_164\n      swap2\n      swap1\n      tag_165\n      jump\t// in\n    tag_164:\n    tag_162:\n      pop\n      jump\t// out\n    tag_165:\n    tag_166:\n      dup1\n      dup3\n      gt\n      iszero\n      tag_167\n      jumpi\n      0x00\n      dup2\n      0x00\n      swap1\n      sstore\n      pop\n      0x01\n      add\n      jump(tag_166)\n    tag_167:\n      pop\n      swap1\n      jump\t// out\n        /* \"#utility.yul\":88:205   */\n    tag_169:\n        /* \"#utility.yul\":197:198   */\n      0x00\n        /* \"#utility.yul\":194:195   */\n      0x00\n        /* \"#utility.yul\":187:199   */\n      revert\n        /* \"#utility.yul\":211:328   */\n    tag_170:\n        /* \"#utility.yul\":320:321   */\n      0x00\n        /* \"#utility.yul\":317:318   */\n      0x00\n        /* \"#utility.yul\":310:322   */\n      revert\n        /* \"#utility.yul\":334:411   */\n    tag_171:\n        /* \"#utility.yul\":371:378   */\n      0x00\n        /* \"#utility.yul\":400:405   */\n      dup2\n        /* \"#utility.yul\":389:405   */\n      swap1\n      pop\n        /* \"#utility.yul\":334:411   */\n      swap2\n      swap1\n      pop\n      jump\t// out\n        /* \"#utility.yul\":417:539   */\n    tag_172:\n        /* \"#utility.yul\":490:514   */\n      tag_232\n        /* \"#utility.yul\":508:513   */\n      dup2\n        /* \"#utility.yul\":490:514   */\n      tag_171\n      jump\t// in\n    tag_232:\n        /* \"#utility.yul\":483:488   */\n      dup2\n        /* \"#utility.yul\":480:515   */\n      eq\n        /* \"#utility.yul\":470:533   */\n      tag_233\n      jumpi\n        /* \"#utility.yul\":529:530   */\n      0x00\n        /* \"#utility.yul\":526:527   */\n      0x00\n        /* \"#utility.yul\":519:531   */\n      revert\n        /* \"#utility.yul\":470:533   */\n    tag_233:\n        /* \"#utility.yul\":417:539   */\n      pop\n      jump\t// out\n        /* \"#utility.yul\":545:684   */\n    tag_173:\n        /* \"#utility.yul\":591:596   */\n      0x00\n        /* \"#utility.yul\":629:635   */\n      dup2\n        /* \"#utility.yul\":616:636   */\n      calldataload\n        /* \"#utility.yul\":607:636   */\n      swap1\n      pop\n        /* \"#utility.yul\":645:678   */\n      tag_235\n        /* \"#utility.yul\":672:677   */\n      dup2\n        /* \"#utility.yul\":645:678   */\n      tag_172\n      jump\t// in\n    tag_235:\n        /* \"#utility.yul\":545:684   */\n      swap3\n      swap2\n      pop\n      pop\n      jump\t// out\n        /* \"#utility.yul\":690:1019   */\n    tag_20:\n        /* \"#utility.yul\":749:755   */\n      0x00\n        /* \"#utility.yul\":798:800   */\n      0x20\n        /* \"#utility.yul\":786:795   */\n      dup3\n        /* \"#utility.yul\":777:784   */\n      dup5\n        /* \"#utility.yul\":773:796   */\n      sub\n        /* \"#utility.yul\":769:801   */\n      slt\n        /* \"#utility.yul\":766:885   */\n      iszero\n      tag_237\n      jumpi\n        /* \"#utility.yul\":804:883   */\n      tag_238\n      tag_169\n      jump\t// in\n    tag_238:\n        /* \"#utility.yul\":766:885   */\n    tag_237:\n        /* \"#utility.yul\":924:925   */\n      0x00\n        /* \"#utility.yul\":949:1002   */\n      tag_239\n        /* \"#utility.yul\":994:1001   */\n      dup5\n        /* \"#utility.yul\":985:991   */\n      dup3\n        /* \"#utility.yul\":974:983   */\n      dup6\n        /* \"#utility.yul\":970:992   */\n      add\n        /* \"#utility.yul\":949:1002   */\n      tag_173\n      jump\t// in\n    tag_239:\n        /* \"#utility.yul\":939:1002   */\n      swap2\n      pop\n        /* \"#utility.yul\":895:1012   */\n      pop\n        /* \"#utility.yul\":690:1019   */\n      swap3\n      swap2\n      pop\n      pop\n      jump\t// out\n        /* \"#utility.yul\":1025:1124   */\n    tag_174:\n        /* \"#utility.yul\":1077:1083   */\n      0x00\n        /* \"#utility.yul\":1111:1116   */\n      dup2\n        /* \"#utility.yul\":1105:1117   */\n      mload\n        /* \"#utility.yul\":1095:1117   */\n      swap1\n      pop\n        /* \"#utility.yul\":1025:1124   */\n      swap2\n      swap1\n      pop\n      jump\t// out\n        /* \"#utility.yul\":1130:1299   */\n    tag_175:\n        /* \"#utility.yul\":1214:1225   */\n      0x00\n        /* \"#utility.yul\":1248:1254   */\n      dup3\n        /* \"#utility.yul\":1243:1246   */\n      dup3\n        /* \"#utility.yul\":1236:1255   */\n      mstore\n        /* \"#utility.yul\":1288:1292   */\n      0x20\n        /* \"#utility.yul\":1283:1286   */\n      dup3\n        /* \"#utility.yul\":1279:1293   */\n      add\n        /* \"#utility.yul\":1264:1293   */\n      swap1\n      pop\n        /* \"#utility.yul\":1130:1299   */\n      swap3\n      swap2\n      pop\n      pop\n      jump\t// out\n        /* \"#utility.yul\":1305:1444   */\n    tag_176:\n        /* \"#utility.yul\":1394:1400   */\n      dup3\n        /* \"#utility.yul\":1389:1392   */\n      dup2\n        /* \"#utility.yul\":1384:1387   */\n      dup4\n        /* \"#utility.yul\":1378:1401   */\n      mcopy\n        /* \"#utility.yul\":1435:1436   */\n      0x00\n        /* \"#utility.yul\":1426:1432   */\n      dup4\n        /* \"#utility.yul\":1421:1424   */\n      dup4\n        /* \"#utility.yul\":1417:1433   */\n      add\n        /* \"#utility.yul\":1410:1437   */\n      mstore\n        /* \"#utility.yul\":1305:1444   */\n      pop\n      pop\n      pop\n      jump\t// out\n        /* \"#utility.yul\":1450:1552   */\n    tag_177:\n        /* \"#utility.yul\":1491:1497   */\n      0x00\n        /* \"#utility.yul\":1542:1544   */\n      0x1f\n        /* \"#utility.yul\":1538:1545   */\n      not\n        /* \"#utility.yul\":1533:1535   */\n      0x1f\n        /* \"#utility.yul\":1526:1531   */\n      dup4\n        /* \"#utility.yul\":1522:1536   */\n      add\n        /* \"#utility.yul\":1518:1546   */\n      and\n        /* \"#utility.yul\":1508:1546   */\n      swap1\n      pop\n        /* \"#utility.yul\":1450:1552   */\n      swap2\n      swap1\n      pop\n      jump\t// out\n        /* \"#utility.yul\":1558:1935   */\n    tag_178:\n        /* \"#utility.yul\":1646:1649   */\n      0x00\n        /* \"#utility.yul\":1674:1713   */\n      tag_245\n        /* \"#utility.yul\":1707:1712   */\n      dup3\n        /* \"#utility.yul\":1674:1713   */\n      tag_174\n      jump\t// in\n    tag_245:\n        /* \"#utility.yul\":1729:1800   */\n      tag_246\n        /* \"#utility.yul\":1793:1799   */\n      dup2\n        /* \"#utility.yul\":1788:1791   */\n      dup6\n        /* \"#utility.yul\":1729:1800   */\n      tag_175\n      jump\t// in\n    tag_246:\n        /* \"#utility.yul\":1722:1800   */\n      swap4\n      pop\n        /* \"#utility.yul\":1809:1874   */\n      tag_247\n        /* \"#utility.yul\":1867:1873   */\n      dup2\n        /* \"#utility.yul\":1862:1865   */\n      dup6\n        /* \"#utility.yul\":1855:1859   */\n      0x20\n        /* \"#utility.yul\":1848:1853   */\n      dup7\n        /* \"#utility.yul\":1844:1860   */\n      add\n        /* \"#utility.yul\":1809:1874   */\n      tag_176\n      jump\t// in\n    tag_247:\n        /* \"#utility.yul\":1899:1928   */\n      tag_248\n        /* \"#utility.yul\":1921:1927   */\n      dup2\n        /* \"#utility.yul\":1899:1928   */\n      tag_177\n      jump\t// in\n    tag_248:\n        /* \"#utility.yul\":1894:1897   */\n      dup5\n        /* \"#utility.yul\":1890:1929   */\n      add\n        /* \"#utility.yul\":1883:1929   */\n      swap2\n      pop\n        /* \"#utility.yul\":1650:1935   */\n      pop\n        /* \"#utility.yul\":1558:1935   */\n      swap3\n      swap2\n      pop\n      pop\n      jump\t// out\n        /* \"#utility.yul\":1941:2254   */\n    tag_23:\n        /* \"#utility.yul\":2054:2058   */\n      0x00\n        /* \"#utility.yul\":2092:2094   */\n      0x20\n        /* \"#utility.yul\":2081:2090   */\n      dup3\n        /* \"#utility.yul\":2077:2095   */\n      add\n        /* \"#utility.yul\":2069:2095   */\n      swap1\n      pop\n        /* \"#utility.yul\":2141:2150   */\n      dup2\n        /* \"#utility.yul\":2135:2139   */\n      dup2\n        /* \"#utility.yul\":2131:2151   */\n      sub\n        /* \"#utility.yul\":2127:2128   */\n      0x00\n        /* \"#utility.yul\":2116:2125   */\n      dup4\n        /* \"#utility.yul\":2112:2129   */\n      add\n        /* \"#utility.yul\":2105:2152   */\n      mstore\n        /* \"#utility.yul\":2169:2247   */\n      tag_250\n        /* \"#utility.yul\":2242:2246   */\n      dup2\n        /* \"#utility.yul\":2233:2239   */\n      dup5\n        /* \"#utility.yul\":2169:2247   */\n      tag_178\n      jump\t// in\n    tag_250:\n        /* \"#utility.yul\":2161:2247   */\n      swap1\n      pop\n        /* \"#utility.yul\":1941:2254   */\n      swap3\n      swap2\n      pop\n      pop\n      jump\t// out\n        /* \"#utility.yul\":2260:2377   */\n    tag_179:\n        /* \"#utility.yul\":2369:2370   */\n      0x00\n        /* \"#utility.yul\":2366:2367   */\n      0x00\n        /* \"#utility.yul\":2359:2371   */\n      revert\n        /* \"#utility.yul\":2383:2500   */\n    tag_180:\n        /* \"#utility.yul\":2492:2493   */\n      0x00\n        /* \"#utility.yul\":2489:2490   */\n      0x00\n        /* \"#utility.yul\":2482:2494   */\n      revert\n        /* \"#utility.yul\":2506:2623   */\n    tag_181:\n        /* \"#utility.yul\":2615:2616   */\n      0x00\n        /* \"#utility.yul\":2612:2613   */\n      0x00\n        /* \"#utility.yul\":2605:2617   */\n      revert\n        /* \"#utility.yul\":2643:3196   */\n    tag_182:\n        /* \"#utility.yul\":2701:2709   */\n      0x00\n        /* \"#utility.yul\":2711:2717   */\n      0x00\n        /* \"#utility.yul\":2761:2764   */\n      dup4\n        /* \"#utility.yul\":2754:2758   */\n      0x1f\n        /* \"#utility.yul\":2746:2752   */\n      dup5\n        /* \"#utility.yul\":2742:2759   */\n      add\n        /* \"#utility.yul\":2738:2765   */\n      slt\n        /* \"#utility.yul\":2728:2850   */\n      tag_255\n      jumpi\n        /* \"#utility.yul\":2769:2848   */\n      tag_256\n      tag_179\n      jump\t// in\n    tag_256:\n        /* \"#utility.yul\":2728:2850   */\n    tag_255:\n        /* \"#utility.yul\":2882:2888   */\n      dup3\n        /* \"#utility.yul\":2869:2889   */\n      calldataload\n        /* \"#utility.yul\":2859:2889   */\n      swap1\n      pop\n        /* \"#utility.yul\":2912:2930   */\n      0xffffffffffffffff\n        /* \"#utility.yul\":2904:2910   */\n      dup2\n        /* \"#utility.yul\":2901:2931   */\n      gt\n        /* \"#utility.yul\":2898:3015   */\n      iszero\n      tag_257\n      jumpi\n        /* \"#utility.yul\":2934:3013   */\n      tag_258\n      tag_180\n      jump\t// in\n    tag_258:\n        /* \"#utility.yul\":2898:3015   */\n    tag_257:\n        /* \"#utility.yul\":3048:3052   */\n      0x20\n        /* \"#utility.yul\":3040:3046   */\n      dup4\n        /* \"#utility.yul\":3036:3053   */\n      add\n        /* \"#utility.yul\":3024:3053   */\n      swap2\n      pop\n        /* \"#utility.yul\":3102:3105   */\n      dup4\n        /* \"#utility.yul\":3094:3098   */\n      0x01\n        /* \"#utility.yul\":3086:3092   */\n      dup3\n        /* \"#utility.yul\":3082:3099   */\n      mul\n        /* \"#utility.yul\":3072:3080   */\n      dup4\n        /* \"#utility.yul\":3068:3100   */\n      add\n        /* \"#utility.yul\":3065:3106   */\n      gt\n        /* \"#utility.yul\":3062:3190   */\n      iszero\n      tag_259\n      jumpi\n        /* \"#utility.yul\":3109:3188   */\n      tag_260\n      tag_181\n      jump\t// in\n    tag_260:\n        /* \"#utility.yul\":3062:3190   */\n    tag_259:\n        /* \"#utility.yul\":2643:3196   */\n      swap3\n      pop\n      swap3\n      swap1\n      pop\n      jump\t// out\n        /* \"#utility.yul\":3202:3876   */\n    tag_26:\n        /* \"#utility.yul\":3282:3288   */\n      0x00\n        /* \"#utility.yul\":3290:3296   */\n      0x00\n        /* \"#utility.yul\":3298:3304   */\n      0x00\n        /* \"#utility.yul\":3347:3349   */\n      0x40\n        /* \"#utility.yul\":3335:3344   */\n      dup5\n        /* \"#utility.yul\":3326:3333   */\n      dup7\n        /* \"#utility.yul\":3322:3345   */\n      sub\n        /* \"#utility.yul\":3318:3350   */\n      slt\n        /* \"#utility.yul\":3315:3434   */\n      iszero\n      tag_262\n      jumpi\n        /* \"#utility.yul\":3353:3432   */\n      tag_263\n      tag_169\n      jump\t// in\n    tag_263:\n        /* \"#utility.yul\":3315:3434   */\n    tag_262:\n        /* \"#utility.yul\":3473:3474   */\n      0x00\n        /* \"#utility.yul\":3498:3551   */\n      tag_264\n        /* \"#utility.yul\":3543:3550   */\n      dup7\n        /* \"#utility.yul\":3534:3540   */\n      dup3\n        /* \"#utility.yul\":3523:3532   */\n      dup8\n        /* \"#utility.yul\":3519:3541   */\n      add\n        /* \"#utility.yul\":3498:3551   */\n      tag_173\n      jump\t// in\n    tag_264:\n        /* \"#utility.yul\":3488:3551   */\n      swap4\n      pop\n        /* \"#utility.yul\":3444:3561   */\n      pop\n        /* \"#utility.yul\":3628:3630   */\n      0x20\n        /* \"#utility.yul\":3617:3626   */\n      dup5\n        /* \"#utility.yul\":3613:3631   */\n      add\n        /* \"#utility.yul\":3600:3632   */\n      calldataload\n        /* \"#utility.yul\":3659:3677   */\n      0xffffffffffffffff\n        /* \"#utility.yul\":3651:3657   */\n      dup2\n        /* \"#utility.yul\":3648:3678   */\n      gt\n        /* \"#utility.yul\":3645:3762   */\n      iszero\n      tag_265\n      jumpi\n        /* \"#utility.yul\":3681:3760   */\n      tag_266\n      tag_170\n      jump\t// in\n    tag_266:\n        /* \"#utility.yul\":3645:3762   */\n    tag_265:\n        /* \"#utility.yul\":3794:3859   */\n      tag_267\n        /* \"#utility.yul\":3851:3858   */\n      dup7\n        /* \"#utility.yul\":3842:3848   */\n      dup3\n        /* \"#utility.yul\":3831:3840   */\n      dup8\n        /* \"#utility.yul\":3827:3849   */\n      add\n        /* \"#utility.yul\":3794:3859   */\n      tag_182\n      jump\t// in\n    tag_267:\n        /* \"#utility.yul\":3776:3859   */\n      swap3\n      pop\n      swap3\n      pop\n        /* \"#utility.yul\":3571:3869   */\n      pop\n        /* \"#utility.yul\":3202:3876   */\n      swap3\n      pop\n      swap3\n      pop\n      swap3\n      jump\t// out\n        /* \"#utility.yul\":3882:4008   */\n    tag_183:\n        /* \"#utility.yul\":3919:3926   */\n      0x00\n        /* \"#utility.yul\":3959:4001   */\n      0xffffffffffffffffffffffffffffffffffffffff\n        /* \"#utility.yul\":3952:3957   */\n      dup3\n        /* \"#utility.yul\":3948:4002   */\n      and\n        /* \"#utility.yul\":3937:4002   */\n      swap1\n      pop\n        /* \"#utility.yul\":3882:4008   */\n      swap2\n      swap1\n      pop\n      jump\t// out\n        /* \"#utility.yul\":4014:4110   */\n    tag_184:\n        /* \"#utility.yul\":4051:4058   */\n      0x00\n        /* \"#utility.yul\":4080:4104   */\n      tag_270\n        /* \"#utility.yul\":4098:4103   */\n      dup3\n        /* \"#utility.yul\":4080:4104   */\n      tag_183\n      jump\t// in\n    tag_270:\n        /* \"#utility.yul\":4069:4104   */\n      swap1\n      pop\n        /* \"#utility.yul\":4014:4110   */\n      swap2\n      swap1\n      pop\n      jump\t// out\n        /* \"#utility.yul\":4116:4234   */\n    tag_185:\n        /* \"#utility.yul\":4203:4227   */\n      tag_272\n        /* \"#utility.yul\":4221:4226   */\n      dup2\n        /* \"#utility.yul\":4203:4227   */\n      tag_184\n      jump\t// in\n    tag_272:\n        /* \"#utility.yul\":4198:4201   */\n      dup3\n        /* \"#utility.yul\":4191:4228   */\n      mstore\n        /* \"#utility.yul\":4116:4234   */\n      pop\n      pop\n      jump\t// out\n        /* \"#utility.yul\":4240:4330   */\n    tag_186:\n        /* \"#utility.yul\":4274:4281   */\n      0x00\n        /* \"#utility.yul\":4317:4322   */\n      dup2\n        /* \"#utility.yul\":4310:4323   */\n      iszero\n        /* \"#utility.yul\":4303:4324   */\n      iszero\n        /* \"#utility.yul\":4292:4324   */\n      swap1\n      pop\n        /* \"#utility.yul\":4240:4330   */\n      swap2\n      swap1\n      pop\n      jump\t// out\n        /* \"#utility.yul\":4336:4445   */\n    tag_187:\n        /* \"#utility.yul\":4417:4438   */\n      tag_275\n        /* \"#utility.yul\":4432:4437   */\n      dup2\n        /* \"#utility.yul\":4417:4438   */\n      tag_186\n      jump\t// in\n    tag_275:\n        /* \"#utility.yul\":4412:4415   */\n      dup3\n        /* \"#utility.yul\":4405:4439   */\n      mstore\n        /* \"#utility.yul\":4336:4445   */\n      pop\n      pop\n      jump\t// out\n        /* \"#utility.yul\":4451:4972   */\n    tag_32:\n        /* \"#utility.yul\":4614:4618   */\n      0x00\n        /* \"#utility.yul\":4652:4654   */\n      0x60\n        /* \"#utility.yul\":4641:4650   */\n      dup3\n        /* \"#utility.yul\":4637:4655   */\n      add\n        /* \"#utility.yul\":4629:4655   */\n      swap1\n      pop\n        /* \"#utility.yul\":4665:4736   */\n      tag_277\n        /* \"#utility.yul\":4733:4734   */\n      0x00\n        /* \"#utility.yul\":4722:4731   */\n      dup4\n        /* \"#utility.yul\":4718:4735   */\n      add\n        /* \"#utility.yul\":4709:4715   */\n      dup7\n        /* \"#utility.yul\":4665:4736   */\n      tag_185\n      jump\t// in\n    tag_277:\n        /* \"#utility.yul\":4783:4792   */\n      dup2\n        /* \"#utility.yul\":4777:4781   */\n      dup2\n        /* \"#utility.yul\":4773:4793   */\n      sub\n        /* \"#utility.yul\":4768:4770   */\n      0x20\n        /* \"#utility.yul\":4757:4766   */\n      dup4\n        /* \"#utility.yul\":4753:4771   */\n      add\n        /* \"#utility.yul\":4746:4794   */\n      mstore\n        /* \"#utility.yul\":4811:4889   */\n      tag_278\n        /* \"#utility.yul\":4884:4888   */\n      dup2\n        /* \"#utility.yul\":4875:4881   */\n      dup6\n        /* \"#utility.yul\":4811:4889   */\n      tag_178\n      jump\t// in\n    tag_278:\n        /* \"#utility.yul\":4803:4889   */\n      swap1\n      pop\n        /* \"#utility.yul\":4899:4965   */\n      tag_279\n        /* \"#utility.yul\":4961:4963   */\n      0x40\n        /* \"#utility.yul\":4950:4959   */\n      dup4\n        /* \"#utility.yul\":4946:4964   */\n      add\n        /* \"#utility.yul\":4937:4943   */\n      dup5\n        /* \"#utility.yul\":4899:4965   */\n      tag_187\n      jump\t// in\n    tag_279:\n        /* \"#utility.yul\":4451:4972   */\n      swap5\n      swap4\n      pop\n      pop\n      pop\n      pop\n      jump\t// out\n        /* \"#utility.yul\":4978:5100   */\n    tag_188:\n        /* \"#utility.yul\":5051:5075   */\n      tag_281\n        /* \"#utility.yul\":5069:5074   */\n      dup2\n        /* \"#utility.yul\":5051:5075   */\n      tag_184\n      jump\t// in\n    tag_281:\n        /* \"#utility.yul\":5044:5049   */\n      dup2\n        /* \"#utility.yul\":5041:5076   */\n      eq\n        /* \"#utility.yul\":5031:5094   */\n      tag_282\n      jumpi\n        /* \"#utility.yul\":5090:5091   */\n      0x00\n        /* \"#utility.yul\":5087:5088   */\n      0x00\n        /* \"#utility.yul\":5080:5092   */\n      revert\n        /* \"#utility.yul\":5031:5094   */\n    tag_282:\n        /* \"#utility.yul\":4978:5100   */\n      pop\n      jump\t// out\n        /* \"#utility.yul\":5106:5245   */\n    tag_189:\n        /* \"#utility.yul\":5152:5157   */\n      0x00\n        /* \"#utility.yul\":5190:5196   */\n      dup2\n        /* \"#utility.yul\":5177:5197   */\n      calldataload\n        /* \"#utility.yul\":5168:5197   */\n      swap1\n      pop\n        /* \"#utility.yul\":5206:5239   */\n      tag_284\n        /* \"#utility.yul\":5233:5238   */\n      dup2\n        /* \"#utility.yul\":5206:5239   */\n      tag_188\n      jump\t// in\n    tag_284:\n        /* \"#utility.yul\":5106:5245   */\n      swap3\n      swap2\n      pop\n      pop\n      jump\t// out\n        /* \"#utility.yul\":5251:5725   */\n    tag_35:\n        /* \"#utility.yul\":5319:5325   */\n      0x00\n        /* \"#utility.yul\":5327:5333   */\n      0x00\n        /* \"#utility.yul\":5376:5378   */\n      0x40\n        /* \"#utility.yul\":5364:5373   */\n      dup4\n        /* \"#utility.yul\":5355:5362   */\n      dup6\n        /* \"#utility.yul\":5351:5374   */\n      sub\n        /* \"#utility.yul\":5347:5379   */\n      slt\n        /* \"#utility.yul\":5344:5463   */\n      iszero\n      tag_286\n      jumpi\n        /* \"#utility.yul\":5382:5461   */\n      tag_287\n      tag_169\n      jump\t// in\n    tag_287:\n        /* \"#utility.yul\":5344:5463   */\n    tag_286:\n        /* \"#utility.yul\":5502:5503   */\n      0x00\n        /* \"#utility.yul\":5527:5580   */\n      tag_288\n        /* \"#utility.yul\":5572:5579   */\n      dup6\n        /* \"#utility.yul\":5563:5569   */\n      dup3\n        /* \"#utility.yul\":5552:5561   */\n      dup7\n        /* \"#utility.yul\":5548:5570   */\n      add\n        /* \"#utility.yul\":5527:5580   */\n      tag_173\n      jump\t// in\n    tag_288:\n        /* \"#utility.yul\":5517:5580   */\n      swap3\n      pop\n        /* \"#utility.yul\":5473:5590   */\n      pop\n        /* \"#utility.yul\":5629:5631   */\n      0x20\n        /* \"#utility.yul\":5655:5708   */\n      tag_289\n        /* \"#utility.yul\":5700:5707   */\n      dup6\n        /* \"#utility.yul\":5691:5697   */\n      dup3\n        /* \"#utility.yul\":5680:5689   */\n      dup7\n        /* \"#utility.yul\":5676:5698   */\n      add\n        /* \"#utility.yul\":5655:5708   */\n      tag_189\n      jump\t// in\n    tag_289:\n        /* \"#utility.yul\":5645:5708   */\n      swap2\n      pop\n        /* \"#utility.yul\":5600:5718   */\n      pop\n        /* \"#utility.yul\":5251:5725   */\n      swap3\n      pop\n      swap3\n      swap1\n      pop\n      jump\t// out\n        /* \"#utility.yul\":5731:5849   */\n    tag_190:\n        /* \"#utility.yul\":5818:5842   */\n      tag_291\n        /* \"#utility.yul\":5836:5841   */\n      dup2\n        /* \"#utility.yul\":5818:5842   */\n      tag_171\n      jump\t// in\n    tag_291:\n        /* \"#utility.yul\":5813:5816   */\n      dup3\n        /* \"#utility.yul\":5806:5843   */\n      mstore\n        /* \"#utility.yul\":5731:5849   */\n      pop\n      pop\n      jump\t// out\n        /* \"#utility.yul\":5855:6175   */\n    tag_38:\n        /* \"#utility.yul\":5970:5974   */\n      0x00\n        /* \"#utility.yul\":6008:6010   */\n      0x40\n        /* \"#utility.yul\":5997:6006   */\n      dup3\n        /* \"#utility.yul\":5993:6011   */\n      add\n        /* \"#utility.yul\":5985:6011   */\n      swap1\n      pop\n        /* \"#utility.yul\":6021:6092   */\n      tag_293\n        /* \"#utility.yul\":6089:6090   */\n      0x00\n        /* \"#utility.yul\":6078:6087   */\n      dup4\n        /* \"#utility.yul\":6074:6091   */\n      add\n        /* \"#utility.yul\":6065:6071   */\n      dup6\n        /* \"#utility.yul\":6021:6092   */\n      tag_190\n      jump\t// in\n    tag_293:\n        /* \"#utility.yul\":6102:6168   */\n      tag_294\n        /* \"#utility.yul\":6164:6166   */\n      0x20\n        /* \"#utility.yul\":6153:6162   */\n      dup4\n        /* \"#utility.yul\":6149:6167   */\n      add\n        /* \"#utility.yul\":6140:6146   */\n      dup5\n        /* \"#utility.yul\":6102:6168   */\n      tag_187\n      jump\t// in\n    tag_294:\n        /* \"#utility.yul\":5855:6175   */\n      swap4\n      swap3\n      pop\n      pop\n      pop\n      jump\t// out\n        /* \"#utility.yul\":6181:6297   */\n    tag_191:\n        /* \"#utility.yul\":6251:6272   */\n      tag_296\n        /* \"#utility.yul\":6266:6271   */\n      dup2\n        /* \"#utility.yul\":6251:6272   */\n      tag_186\n      jump\t// in\n    tag_296:\n        /* \"#utility.yul\":6244:6249   */\n      dup2\n        /* \"#utility.yul\":6241:6273   */\n      eq\n        /* \"#utility.yul\":6231:6291   */\n      tag_297\n      jumpi\n        /* \"#utility.yul\":6287:6288   */\n      0x00\n        /* \"#utility.yul\":6284:6285   */\n      0x00\n        /* \"#utility.yul\":6277:6289   */\n      revert\n        /* \"#utility.yul\":6231:6291   */\n    tag_297:\n        /* \"#utility.yul\":6181:6297   */\n      pop\n      jump\t// out\n        /* \"#utility.yul\":6303:6436   */\n    tag_192:\n        /* \"#utility.yul\":6346:6351   */\n      0x00\n        /* \"#utility.yul\":6384:6390   */\n      dup2\n        /* \"#utility.yul\":6371:6391   */\n      calldataload\n        /* \"#utility.yul\":6362:6391   */\n      swap1\n      pop\n        /* \"#utility.yul\":6400:6430   */\n      tag_299\n        /* \"#utility.yul\":6424:6429   */\n      dup2\n        /* \"#utility.yul\":6400:6430   */\n      tag_191\n      jump\t// in\n    tag_299:\n        /* \"#utility.yul\":6303:6436   */\n      swap3\n      swap2\n      pop\n      pop\n      jump\t// out\n        /* \"#utility.yul\":6442:6910   */\n    tag_47:\n        /* \"#utility.yul\":6507:6513   */\n      0x00\n        /* \"#utility.yul\":6515:6521   */\n      0x00\n        /* \"#utility.yul\":6564:6566   */\n      0x40\n        /* \"#utility.yul\":6552:6561   */\n      dup4\n        /* \"#utility.yul\":6543:6550   */\n      dup6\n        /* \"#utility.yul\":6539:6562   */\n      sub\n        /* \"#utility.yul\":6535:6567   */\n      slt\n        /* \"#utility.yul\":6532:6651   */\n      iszero\n      tag_301\n      jumpi\n        /* \"#utility.yul\":6570:6649   */\n      tag_302\n      tag_169\n      jump\t// in\n    tag_302:\n        /* \"#utility.yul\":6532:6651   */\n    tag_301:\n        /* \"#utility.yul\":6690:6691   */\n      0x00\n        /* \"#utility.yul\":6715:6768   */\n      tag_303\n        /* \"#utility.yul\":6760:6767   */\n      dup6\n        /* \"#utility.yul\":6751:6757   */\n      dup3\n        /* \"#utility.yul\":6740:6749   */\n      dup7\n        /* \"#utility.yul\":6736:6758   */\n      add\n        /* \"#utility.yul\":6715:6768   */\n      tag_189\n      jump\t// in\n    tag_303:\n        /* \"#utility.yul\":6705:6768   */\n      swap3\n      pop\n        /* \"#utility.yul\":6661:6778   */\n      pop\n        /* \"#utility.yul\":6817:6819   */\n      0x20\n        /* \"#utility.yul\":6843:6893   */\n      tag_304\n        /* \"#utility.yul\":6885:6892   */\n      dup6\n        /* \"#utility.yul\":6876:6882   */\n      dup3\n        /* \"#utility.yul\":6865:6874   */\n      dup7\n        /* \"#utility.yul\":6861:6883   */\n      add\n        /* \"#utility.yul\":6843:6893   */\n      tag_192\n      jump\t// in\n    tag_304:\n        /* \"#utility.yul\":6833:6893   */\n      swap2\n      pop\n        /* \"#utility.yul\":6788:6903   */\n      pop\n        /* \"#utility.yul\":6442:6910   */\n      swap3\n      pop\n      swap3\n      swap1\n      pop\n      jump\t// out\n        /* \"#utility.yul\":6916:7390   */\n    tag_51:\n        /* \"#utility.yul\":6984:6990   */\n      0x00\n        /* \"#utility.yul\":6992:6998   */\n      0x00\n        /* \"#utility.yul\":7041:7043   */\n      0x40\n        /* \"#utility.yul\":7029:7038   */\n      dup4\n        /* \"#utility.yul\":7020:7027   */\n      dup6\n        /* \"#utility.yul\":7016:7039   */\n      sub\n        /* \"#utility.yul\":7012:7044   */\n      slt\n        /* \"#utility.yul\":7009:7128   */\n      iszero\n      tag_306\n      jumpi\n        /* \"#utility.yul\":7047:7126   */\n      tag_307\n      tag_169\n      jump\t// in\n    tag_307:\n        /* \"#utility.yul\":7009:7128   */\n    tag_306:\n        /* \"#utility.yul\":7167:7168   */\n      0x00\n        /* \"#utility.yul\":7192:7245   */\n      tag_308\n        /* \"#utility.yul\":7237:7244   */\n      dup6\n        /* \"#utility.yul\":7228:7234   */\n      dup3\n        /* \"#utility.yul\":7217:7226   */\n      dup7\n        /* \"#utility.yul\":7213:7235   */\n      add\n        /* \"#utility.yul\":7192:7245   */\n      tag_189\n      jump\t// in\n    tag_308:\n        /* \"#utility.yul\":7182:7245   */\n      swap3\n      pop\n        /* \"#utility.yul\":7138:7255   */\n      pop\n        /* \"#utility.yul\":7294:7296   */\n      0x20\n        /* \"#utility.yul\":7320:7373   */\n      tag_309\n        /* \"#utility.yul\":7365:7372   */\n      dup6\n        /* \"#utility.yul\":7356:7362   */\n      dup3\n        /* \"#utility.yul\":7345:7354   */\n      dup7\n        /* \"#utility.yul\":7341:7363   */\n      add\n        /* \"#utility.yul\":7320:7373   */\n      tag_189\n      jump\t// in\n    tag_309:\n        /* \"#utility.yul\":7310:7373   */\n      swap2\n      pop\n        /* \"#utility.yul\":7265:7383   */\n      pop\n        /* \"#utility.yul\":6916:7390   */\n      swap3\n      pop\n      swap3\n      swap1\n      pop\n      jump\t// out\n        /* \"#utility.yul\":7396:7606   */\n    tag_54:\n        /* \"#utility.yul\":7483:7487   */\n      0x00\n        /* \"#utility.yul\":7521:7523   */\n      0x20\n        /* \"#utility.yul\":7510:7519   */\n      dup3\n        /* \"#utility.yul\":7506:7524   */\n      add\n        /* \"#utility.yul\":7498:7524   */\n      swap1\n      pop\n        /* \"#utility.yul\":7534:7599   */\n      tag_311\n        /* \"#utility.yul\":7596:7597   */\n      0x00\n        /* \"#utility.yul\":7585:7594   */\n      dup4\n        /* \"#utility.yul\":7581:7598   */\n      add\n        /* \"#utility.yul\":7572:7578   */\n      dup5\n        /* \"#utility.yul\":7534:7599   */\n      tag_187\n      jump\t// in\n    tag_311:\n        /* \"#utility.yul\":7396:7606   */\n      swap3\n      swap2\n      pop\n      pop\n      jump\t// out\n        /* \"#utility.yul\":7612:7834   */\n    tag_58:\n        /* \"#utility.yul\":7705:7709   */\n      0x00\n        /* \"#utility.yul\":7743:7745   */\n      0x20\n        /* \"#utility.yul\":7732:7741   */\n      dup3\n        /* \"#utility.yul\":7728:7746   */\n      add\n        /* \"#utility.yul\":7720:7746   */\n      swap1\n      pop\n        /* \"#utility.yul\":7756:7827   */\n      tag_313\n        /* \"#utility.yul\":7824:7825   */\n      0x00\n        /* \"#utility.yul\":7813:7822   */\n      dup4\n        /* \"#utility.yul\":7809:7826   */\n      add\n        /* \"#utility.yul\":7800:7806   */\n      dup5\n        /* \"#utility.yul\":7756:7827   */\n      tag_190\n      jump\t// in\n    tag_313:\n        /* \"#utility.yul\":7612:7834   */\n      swap3\n      swap2\n      pop\n      pop\n      jump\t// out\n        /* \"#utility.yul\":7840:8459   */\n    tag_65:\n        /* \"#utility.yul\":7917:7923   */\n      0x00\n        /* \"#utility.yul\":7925:7931   */\n      0x00\n        /* \"#utility.yul\":7933:7939   */\n      0x00\n        /* \"#utility.yul\":7982:7984   */\n      0x60\n        /* \"#utility.yul\":7970:7979   */\n      dup5\n        /* \"#utility.yul\":7961:7968   */\n      dup7\n        /* \"#utility.yul\":7957:7980   */\n      sub\n        /* \"#utility.yul\":7953:7985   */\n      slt\n        /* \"#utility.yul\":7950:8069   */\n      iszero\n      tag_315\n      jumpi\n        /* \"#utility.yul\":7988:8067   */\n      tag_316\n      tag_169\n      jump\t// in\n    tag_316:\n        /* \"#utility.yul\":7950:8069   */\n    tag_315:\n        /* \"#utility.yul\":8108:8109   */\n      0x00\n        /* \"#utility.yul\":8133:8186   */\n      tag_317\n        /* \"#utility.yul\":8178:8185   */\n      dup7\n        /* \"#utility.yul\":8169:8175   */\n      dup3\n        /* \"#utility.yul\":8158:8167   */\n      dup8\n        /* \"#utility.yul\":8154:8176   */\n      add\n        /* \"#utility.yul\":8133:8186   */\n      tag_173\n      jump\t// in\n    tag_317:\n        /* \"#utility.yul\":8123:8186   */\n      swap4\n      pop\n        /* \"#utility.yul\":8079:8196   */\n      pop\n        /* \"#utility.yul\":8235:8237   */\n      0x20\n        /* \"#utility.yul\":8261:8314   */\n      tag_318\n        /* \"#utility.yul\":8306:8313   */\n      dup7\n        /* \"#utility.yul\":8297:8303   */\n      dup3\n        /* \"#utility.yul\":8286:8295   */\n      dup8\n        /* \"#utility.yul\":8282:8304   */\n      add\n        /* \"#utility.yul\":8261:8314   */\n      tag_189\n      jump\t// in\n    tag_318:\n        /* \"#utility.yul\":8251:8314   */\n      swap3\n      pop\n        /* \"#utility.yul\":8206:8324   */\n      pop\n        /* \"#utility.yul\":8363:8365   */\n      0x40\n        /* \"#utility.yul\":8389:8442   */\n      tag_319\n        /* \"#utility.yul\":8434:8441   */\n      dup7\n        /* \"#utility.yul\":8425:8431   */\n      dup3\n        /* \"#utility.yul\":8414:8423   */\n      dup8\n        /* \"#utility.yul\":8410:8432   */\n      add\n        /* \"#utility.yul\":8389:8442   */\n      tag_173\n      jump\t// in\n    tag_319:\n        /* \"#utility.yul\":8379:8442   */\n      swap2\n      pop\n        /* \"#utility.yul\":8334:8452   */\n      pop\n        /* \"#utility.yul\":7840:8459   */\n      swap3\n      pop\n      swap3\n      pop\n      swap3\n      jump\t// out\n        /* \"#utility.yul\":8465:8994   */\n    tag_72:\n        /* \"#utility.yul\":8536:8542   */\n      0x00\n        /* \"#utility.yul\":8544:8550   */\n      0x00\n        /* \"#utility.yul\":8593:8595   */\n      0x20\n        /* \"#utility.yul\":8581:8590   */\n      dup4\n        /* \"#utility.yul\":8572:8579   */\n      dup6\n        /* \"#utility.yul\":8568:8591   */\n      sub\n        /* \"#utility.yul\":8564:8596   */\n      slt\n        /* \"#utility.yul\":8561:8680   */\n      iszero\n      tag_321\n      jumpi\n        /* \"#utility.yul\":8599:8678   */\n      tag_322\n      tag_169\n      jump\t// in\n    tag_322:\n        /* \"#utility.yul\":8561:8680   */\n    tag_321:\n        /* \"#utility.yul\":8747:8748   */\n      0x00\n        /* \"#utility.yul\":8736:8745   */\n      dup4\n        /* \"#utility.yul\":8732:8749   */\n      add\n        /* \"#utility.yul\":8719:8750   */\n      calldataload\n        /* \"#utility.yul\":8777:8795   */\n      0xffffffffffffffff\n        /* \"#utility.yul\":8769:8775   */\n      dup2\n        /* \"#utility.yul\":8766:8796   */\n      gt\n        /* \"#utility.yul\":8763:8880   */\n      iszero\n      tag_323\n      jumpi\n        /* \"#utility.yul\":8799:8878   */\n      tag_324\n      tag_170\n      jump\t// in\n    tag_324:\n        /* \"#utility.yul\":8763:8880   */\n    tag_323:\n        /* \"#utility.yul\":8912:8977   */\n      tag_325\n        /* \"#utility.yul\":8969:8976   */\n      dup6\n        /* \"#utility.yul\":8960:8966   */\n      dup3\n        /* \"#utility.yul\":8949:8958   */\n      dup7\n        /* \"#utility.yul\":8945:8967   */\n      add\n        /* \"#utility.yul\":8912:8977   */\n      tag_182\n      jump\t// in\n    tag_325:\n        /* \"#utility.yul\":8894:8977   */\n      swap3\n      pop\n      swap3\n      pop\n        /* \"#utility.yul\":8690:8987   */\n      pop\n        /* \"#utility.yul\":8465:8994   */\n      swap3\n      pop\n      swap3\n      swap1\n      pop\n      jump\t// out\n        /* \"#utility.yul\":9000:9171   */\n    tag_193:\n        /* \"#utility.yul\":9140:9163   */\n      0x5265636f726420646f6573206e6f742065786973740000000000000000000000\n        /* \"#utility.yul\":9136:9137   */\n      0x00\n        /* \"#utility.yul\":9128:9134   */\n      dup3\n        /* \"#utility.yul\":9124:9138   */\n      add\n        /* \"#utility.yul\":9117:9164   */\n      mstore\n        /* \"#utility.yul\":9000:9171   */\n      pop\n      jump\t// out\n        /* \"#utility.yul\":9177:9543   */\n    tag_194:\n        /* \"#utility.yul\":9319:9322   */\n      0x00\n        /* \"#utility.yul\":9340:9407   */\n      tag_328\n        /* \"#utility.yul\":9404:9406   */\n      0x15\n        /* \"#utility.yul\":9399:9402   */\n      dup4\n        /* \"#utility.yul\":9340:9407   */\n      tag_175\n      jump\t// in\n    tag_328:\n        /* \"#utility.yul\":9333:9407   */\n      swap2\n      pop\n        /* \"#utility.yul\":9416:9509   */\n      tag_329\n        /* \"#utility.yul\":9505:9508   */\n      dup3\n        /* \"#utility.yul\":9416:9509   */\n      tag_193\n      jump\t// in\n    tag_329:\n        /* \"#utility.yul\":9534:9536   */\n      0x20\n        /* \"#utility.yul\":9529:9532   */\n      dup3\n        /* \"#utility.yul\":9525:9537   */\n      add\n        /* \"#utility.yul\":9518:9537   */\n      swap1\n      pop\n        /* \"#utility.yul\":9177:9543   */\n      swap2\n      swap1\n      pop\n      jump\t// out\n        /* \"#utility.yul\":9549:9968   */\n    tag_78:\n        /* \"#utility.yul\":9715:9719   */\n      0x00\n        /* \"#utility.yul\":9753:9755   */\n      0x20\n        /* \"#utility.yul\":9742:9751   */\n      dup3\n        /* \"#utility.yul\":9738:9756   */\n      add\n        /* \"#utility.yul\":9730:9756   */\n      swap1\n      pop\n        /* \"#utility.yul\":9802:9811   */\n      dup2\n        /* \"#utility.yul\":9796:9800   */\n      dup2\n        /* \"#utility.yul\":9792:9812   */\n      sub\n        /* \"#utility.yul\":9788:9789   */\n      0x00\n        /* \"#utility.yul\":9777:9786   */\n      dup4\n        /* \"#utility.yul\":9773:9790   */\n      add\n        /* \"#utility.yul\":9766:9813   */\n      mstore\n        /* \"#utility.yul\":9830:9961   */\n      tag_331\n        /* \"#utility.yul\":9956:9960   */\n      dup2\n        /* \"#utility.yul\":9830:9961   */\n      tag_194\n      jump\t// in\n    tag_331:\n        /* \"#utility.yul\":9822:9961   */\n      swap1\n      pop\n        /* \"#utility.yul\":9549:9968   */\n      swap2\n      swap1\n      pop\n      jump\t// out\n        /* \"#utility.yul\":9974:10154   */\n    tag_195:\n        /* \"#utility.yul\":10022:10099   */\n      0x4e487b7100000000000000000000000000000000000000000000000000000000\n        /* \"#utility.yul\":10019:10020   */\n      0x00\n        /* \"#utility.yul\":10012:10100   */\n      mstore\n        /* \"#utility.yul\":10119:10123   */\n      0x22\n        /* \"#utility.yul\":10116:10117   */\n      0x04\n        /* \"#utility.yul\":10109:10124   */\n      mstore\n        /* \"#utility.yul\":10143:10147   */\n      0x24\n        /* \"#utility.yul\":10140:10141   */\n      0x00\n        /* \"#utility.yul\":10133:10148   */\n      revert\n        /* \"#utility.yul\":10160:10480   */\n    tag_81:\n        /* \"#utility.yul\":10204:10210   */\n      0x00\n        /* \"#utility.yul\":10241:10242   */\n      0x02\n        /* \"#utility.yul\":10235:10239   */\n      dup3\n        /* \"#utility.yul\":10231:10243   */\n      div\n        /* \"#utility.yul\":10221:10243   */\n      swap1\n      pop\n        /* \"#utility.yul\":10288:10289   */\n      0x01\n        /* \"#utility.yul\":10282:10286   */\n      dup3\n        /* \"#utility.yul\":10278:10290   */\n      and\n        /* \"#utility.yul\":10309:10327   */\n      dup1\n        /* \"#utility.yul\":10299:10380   */\n      tag_334\n      jumpi\n        /* \"#utility.yul\":10365:10369   */\n      0x7f\n        /* \"#utility.yul\":10357:10363   */\n      dup3\n        /* \"#utility.yul\":10353:10370   */\n      and\n        /* \"#utility.yul\":10343:10370   */\n      swap2\n      pop\n        /* \"#utility.yul\":10299:10380   */\n    tag_334:\n        /* \"#utility.yul\":10427:10429   */\n      0x20\n        /* \"#utility.yul\":10419:10425   */\n      dup3\n        /* \"#utility.yul\":10416:10430   */\n      lt\n        /* \"#utility.yul\":10396:10414   */\n      dup2\n        /* \"#utility.yul\":10393:10431   */\n      sub\n        /* \"#utility.yul\":10390:10474   */\n      tag_335\n      jumpi\n        /* \"#utility.yul\":10446:10464   */\n      tag_336\n      tag_195\n      jump\t// in\n    tag_336:\n        /* \"#utility.yul\":10390:10474   */\n    tag_335:\n        /* \"#utility.yul\":10211:10480   */\n      pop\n        /* \"#utility.yul\":10160:10480   */\n      swap2\n      swap1\n      pop\n      jump\t// out\n        /* \"#utility.yul\":10486:10655   */\n    tag_196:\n        /* \"#utility.yul\":10626:10647   */\n      0x4e6f2061636365737320746f207265636f726400000000000000000000000000\n        /* \"#utility.yul\":10622:10623   */\n      0x00\n        /* \"#utility.yul\":10614:10620   */\n      dup3\n        /* \"#utility.yul\":10610:10624   */\n      add\n        /* \"#utility.yul\":10603:10648   */\n      mstore\n        /* \"#utility.yul\":10486:10655   */\n      pop\n      jump\t// out\n        /* \"#utility.yul\":10661:11027   */\n    tag_197:\n        /* \"#utility.yul\":10803:10806   */\n      0x00\n        /* \"#utility.yul\":10824:10891   */\n      tag_339\n        /* \"#utility.yul\":10888:10890   */\n      0x13\n        /* \"#utility.yul\":10883:10886   */\n      dup4\n        /* \"#utility.yul\":10824:10891   */\n      tag_175\n      jump\t// in\n    tag_339:\n        /* \"#utility.yul\":10817:10891   */\n      swap2\n      pop\n        /* \"#utility.yul\":10900:10993   */\n      tag_340\n        /* \"#utility.yul\":10989:10992   */\n      dup3\n        /* \"#utility.yul\":10900:10993   */\n      tag_196\n      jump\t// in\n    tag_340:\n        /* \"#utility.yul\":11018:11020   */\n      0x20\n        /* \"#utility.yul\":11013:11016   */\n      dup3\n        /* \"#utility.yul\":11009:11021   */\n      add\n        /* \"#utility.yul\":11002:11021   */\n      swap1\n      pop\n        /* \"#utility.yul\":10661:11027   */\n      swap2\n      swap1\n      pop\n      jump\t// out\n        /* \"#utility.yul\":11033:11452   */\n    tag_89:\n        /* \"#utility.yul\":11199:11203   */\n      0x00\n        /* \"#utility.yul\":11237:11239   */\n      0x20\n        /* \"#utility.yul\":11226:11235   */\n      dup3\n        /* \"#utility.yul\":11222:11240   */\n      add\n        /* \"#utility.yul\":11214:11240   */\n      swap1\n      pop\n        /* \"#utility.yul\":11286:11295   */\n      dup2\n        /* \"#utility.yul\":11280:11284   */\n      dup2\n        /* \"#utility.yul\":11276:11296   */\n      sub\n        /* \"#utility.yul\":11272:11273   */\n      0x00\n        /* \"#utility.yul\":11261:11270   */\n      dup4\n        /* \"#utility.yul\":11257:11274   */\n      add\n        /* \"#utility.yul\":11250:11297   */\n      mstore\n        /* \"#utility.yul\":11314:11445   */\n      tag_342\n        /* \"#utility.yul\":11440:11444   */\n      dup2\n        /* \"#utility.yul\":11314:11445   */\n      tag_197\n      jump\t// in\n    tag_342:\n        /* \"#utility.yul\":11306:11445   */\n      swap1\n      pop\n        /* \"#utility.yul\":11033:11452   */\n      swap2\n      swap1\n      pop\n      jump\t// out\n        /* \"#utility.yul\":11458:11678   */\n    tag_198:\n        /* \"#utility.yul\":11598:11632   */\n      0x4e6f742070617469656e74206e6f7220617070726f766564206f70657261746f\n        /* \"#utility.yul\":11594:11595   */\n      0x00\n        /* \"#utility.yul\":11586:11592   */\n      dup3\n        /* \"#utility.yul\":11582:11596   */\n      add\n        /* \"#utility.yul\":11575:11633   */\n      mstore\n        /* \"#utility.yul\":11667:11670   */\n      0x7200000000000000000000000000000000000000000000000000000000000000\n        /* \"#utility.yul\":11662:11664   */\n      0x20\n        /* \"#utility.yul\":11654:11660   */\n      dup3\n        /* \"#utility.yul\":11650:11665   */\n      add\n        /* \"#utility.yul\":11643:11671   */\n      mstore\n        /* \"#utility.yul\":11458:11678   */\n      pop\n      jump\t// out\n        /* \"#utility.yul\":11684:12050   */\n    tag_199:\n        /* \"#utility.yul\":11826:11829   */\n      0x00\n        /* \"#utility.yul\":11847:11914   */\n      tag_345\n        /* \"#utility.yul\":11911:11913   */\n      0x21\n        /* \"#utility.yul\":11906:11909   */\n      dup4\n        /* \"#utility.yul\":11847:11914   */\n      tag_175\n      jump\t// in\n    tag_345:\n        /* \"#utility.yul\":11840:11914   */\n      swap2\n      pop\n        /* \"#utility.yul\":11923:12016   */\n      tag_346\n        /* \"#utility.yul\":12012:12015   */\n      dup3\n        /* \"#utility.yul\":11923:12016   */\n      tag_198\n      jump\t// in\n    tag_346:\n        /* \"#utility.yul\":12041:12043   */\n      0x40\n        /* \"#utility.yul\":12036:12039   */\n      dup3\n        /* \"#utility.yul\":12032:12044   */\n      add\n        /* \"#utility.yul\":12025:12044   */\n      swap1\n      pop\n        /* \"#utility.yul\":11684:12050   */\n      swap2\n      swap1\n      pop\n      jump\t// out\n        /* \"#utility.yul\":12056:12475   */\n    tag_101:\n        /* \"#utility.yul\":12222:12226   */\n      0x00\n        /* \"#utility.yul\":12260:12262   */\n      0x20\n        /* \"#utility.yul\":12249:12258   */\n      dup3\n        /* \"#utility.yul\":12245:12263   */\n      add\n        /* \"#utility.yul\":12237:12263   */\n      swap1\n      pop\n        /* \"#utility.yul\":12309:12318   */\n      dup2\n        /* \"#utility.yul\":12303:12307   */\n      dup2\n        /* \"#utility.yul\":12299:12319   */\n      sub\n        /* \"#utility.yul\":12295:12296   */\n      0x00\n        /* \"#utility.yul\":12284:12293   */\n      dup4\n        /* \"#utility.yul\":12280:12297   */\n      add\n        /* \"#utility.yul\":12273:12320   */\n      mstore\n        /* \"#utility.yul\":12337:12468   */\n      tag_348\n        /* \"#utility.yul\":12463:12467   */\n      dup2\n        /* \"#utility.yul\":12337:12468   */\n      tag_199\n      jump\t// in\n    tag_348:\n        /* \"#utility.yul\":12329:12468   */\n      swap1\n      pop\n        /* \"#utility.yul\":12056:12475   */\n      swap2\n      swap1\n      pop\n      jump\t// out\n        /* \"#utility.yul\":12481:12578   */\n    tag_200:\n        /* \"#utility.yul\":12540:12546   */\n      0x00\n        /* \"#utility.yul\":12568:12571   */\n      dup3\n        /* \"#utility.yul\":12558:12571   */\n      swap1\n      pop\n        /* \"#utility.yul\":12481:12578   */\n      swap3\n      swap2\n      pop\n      pop\n      jump\t// out\n        /* \"#utility.yul\":12584:12764   */\n    tag_201:\n        /* \"#utility.yul\":12632:12709   */\n      0x4e487b7100000000000000000000000000000000000000000000000000000000\n        /* \"#utility.yul\":12629:12630   */\n      0x00\n        /* \"#utility.yul\":12622:12710   */\n      mstore\n        /* \"#utility.yul\":12729:12733   */\n      0x41\n        /* \"#utility.yul\":12726:12727   */\n      0x04\n        /* \"#utility.yul\":12719:12734   */\n      mstore\n        /* \"#utility.yul\":12753:12757   */\n      0x24\n        /* \"#utility.yul\":12750:12751   */\n      0x00\n        /* \"#utility.yul\":12743:12758   */\n      revert\n        /* \"#utility.yul\":12770:12911   */\n    tag_202:\n        /* \"#utility.yul\":12819:12823   */\n      0x00\n        /* \"#utility.yul\":12842:12845   */\n      dup2\n        /* \"#utility.yul\":12834:12845   */\n      swap1\n      pop\n        /* \"#utility.yul\":12865:12868   */\n      dup2\n        /* \"#utility.yul\":12862:12863   */\n      0x00\n        /* \"#utility.yul\":12855:12869   */\n      mstore\n        /* \"#utility.yul\":12899:12903   */\n      0x20\n        /* \"#utility.yul\":12896:12897   */\n      0x00\n        /* \"#utility.yul\":12886:12904   */\n      keccak256\n        /* \"#utility.yul\":12878:12904   */\n      swap1\n      pop\n        /* \"#utility.yul\":12770:12911   */\n      swap2\n      swap1\n      pop\n      jump\t// out\n        /* \"#utility.yul\":12917:13010   */\n    tag_203:\n        /* \"#utility.yul\":12954:12960   */\n      0x00\n        /* \"#utility.yul\":13001:13003   */\n      0x20\n        /* \"#utility.yul\":12996:12998   */\n      0x1f\n        /* \"#utility.yul\":12989:12994   */\n      dup4\n        /* \"#utility.yul\":12985:12999   */\n      add\n        /* \"#utility.yul\":12981:13004   */\n      div\n        /* \"#utility.yul\":12971:13004   */\n      swap1\n      pop\n        /* \"#utility.yul\":12917:13010   */\n      swap2\n      swap1\n      pop\n      jump\t// out\n        /* \"#utility.yul\":13016:13123   */\n    tag_204:\n        /* \"#utility.yul\":13060:13068   */\n      0x00\n        /* \"#utility.yul\":13110:13115   */\n      dup3\n        /* \"#utility.yul\":13104:13108   */\n      dup3\n        /* \"#utility.yul\":13100:13116   */\n      shl\n        /* \"#utility.yul\":13079:13116   */\n      swap1\n      pop\n        /* \"#utility.yul\":13016:13123   */\n      swap3\n      swap2\n      pop\n      pop\n      jump\t// out\n        /* \"#utility.yul\":13129:13522   */\n    tag_205:\n        /* \"#utility.yul\":13198:13204   */\n      0x00\n        /* \"#utility.yul\":13248:13249   */\n      0x08\n        /* \"#utility.yul\":13236:13246   */\n      dup4\n        /* \"#utility.yul\":13232:13250   */\n      mul\n        /* \"#utility.yul\":13271:13368   */\n      tag_355\n        /* \"#utility.yul\":13301:13367   */\n      0xffffffffffffffffffffffffffffffffffffffffffffffffffffffffffffffff\n        /* \"#utility.yul\":13290:13299   */\n      dup3\n        /* \"#utility.yul\":13271:13368   */\n      tag_204\n      jump\t// in\n    tag_355:\n        /* \"#utility.yul\":13389:13428   */\n      tag_356\n        /* \"#utility.yul\":13419:13427   */\n      dup7\n        /* \"#utility.yul\":13408:13417   */\n      dup4\n        /* \"#utility.yul\":13389:13428   */\n      tag_204\n      jump\t// in\n    tag_356:\n        /* \"#utility.yul\":13377:13428   */\n      swap6\n      pop\n        /* \"#utility.yul\":13461:13465   */\n      dup1\n        /* \"#utility.yul\":13457:13466   */\n      not\n        /* \"#utility.yul\":13450:13455   */\n      dup5\n        /* \"#utility.yul\":13446:13467   */\n      and\n        /* \"#utility.yul\":13437:13467   */\n      swap4\n      pop\n        /* \"#utility.yul\":13510:13514   */\n      dup1\n        /* \"#utility.yul\":13500:13508   */\n      dup7\n        /* \"#utility.yul\":13496:13515   */\n      and\n        /* \"#utility.yul\":13489:13494   */\n      dup5\n        /* \"#utility.yul\":13486:13516   */\n      or\n        /* \"#utility.yul\":13476:13516   */\n      swap3\n      pop\n        /* \"#utility.yul\":13205:13522   */\n      pop\n      pop\n        /* \"#utility.yul\":13129:13522   */\n      swap4\n      swap3\n      pop\n      pop\n      pop\n      jump\t// out\n        /* \"#utility.yul\":13528:13588   */\n    tag_206:\n        /* \"#utility.yul\":13556:13559   */\n      0x00\n        /* \"#utility.yul\":13577:13582   */\n      dup2\n        /* \"#utility.yul\":13570:13582   */\n      swap1\n      pop\n        /* \"#utility.yul\":13528:13588   */\n      swap2\n      swap1\n      pop\n      jump\t// out\n        /* \"#utility.yul\":13594:13736   */\n    tag_207:\n        /* \"#utility.yul\":13644:13653   */\n      0x00\n        /* \"#utility.yul\":13677:13730   */\n      tag_359\n        /* \"#utility.yul\":13695:13729   */\n      tag_360\n        /* \"#utility.yul\":13704:13728   */\n      tag_361\n        /* \"#utility.yul\":13722:13727   */\n      dup5\n        /* \"#utility.yul\":13704:13728   */\n      tag_171\n      jump\t// in\n    tag_361:\n        /* \"#utility.yul\":13695:13729   */\n      tag_206\n      jump\t// in\n    tag_360:\n        /* \"#utility.yul\":13677:13730   */\n      tag_171\n      jump\t// in\n    tag_359:\n        /* \"#utility.yul\":13664:13730   */\n      swap1\n      pop\n        /* \"#utility.yul\":13594:13736   */\n      swap2\n      swap1\n      pop\n      jump\t// out\n        /* \"#utility.yul\":13742:13817   */\n    tag_208:\n        /* \"#utility.yul\":13785:13788   */\n      0x00\n        /* \"#utility.yul\":13806:13811   */\n      dup2\n        /* \"#utility.yul\":13799:13811   */\n      swap1\n      pop\n        /* \"#utility.yul\":13742:13817   */\n      swap2\n      swap1\n      pop\n      jump\t// out\n        /* \"#utility.yul\":13823:14092   */\n    tag_209:\n        /* \"#utility.yul\":13933:13972   */\n      tag_364\n        /* \"#utility.yul\":13964:13971   */\n      dup4\n        /* \"#utility.yul\":13933:13972   */\n      tag_207\n      jump\t// in\n    tag_364:\n        /* \"#utility.yul\":13994:14085   */\n      tag_365\n        /* \"#utility.yul\":14043:14084   */\n      tag_366\n        /* \"#utility.yul\":14067:14083   */\n      dup3\n        /* \"#utility.yul\":14043:14084   */\n      tag_208\n      jump\t// in\n    tag_366:\n        /* \"#utility.yul\":14035:14041   */\n      dup5\n        /* \"#utility.yul\":14028:14032   */\n      dup5\n        /* \"#utility.yul\":14022:14033   */\n      sload\n        /* \"#utility.yul\":13994:14085   */\n      tag_205\n      jump\t// in\n    tag_365:\n        /* \"#utility.yul\":13988:13992   */\n      dup3\n        /* \"#utility.yul\":13981:14086   */\n      sstore\n        /* \"#utility.yul\":13899:14092   */\n      pop\n        /* \"#utility.yul\":13823:14092   */\n      pop\n      pop\n      pop\n      jump\t// out\n        /* \"#utility.yul\":14098:14171   */\n    tag_210:\n        /* \"#utility.yul\":14143:14146   */\n      0x00\n        /* \"#utility.yul\":14164:14165   */\n      0x00\n        /* \"#utility.yul\":14157:14165   */\n      swap1\n      pop\n        /* \"#utility.yul\":14098:14171   */\n      swap1\n      jump\t// out\n        /* \"#utility.yul\":14177:14366   */\n    tag_211:\n        /* \"#utility.yul\":14254:14286   */\n      tag_369\n      tag_210\n      jump\t// in\n    tag_369:\n        /* \"#utility.yul\":14295:14360   */\n      tag_370\n        /* \"#utility.yul\":14353:14359   */\n      dup2\n        /* \"#utility.yul\":14345:14351   */\n      dup5\n        /* \"#utility.yul\":14339:14343   */\n      dup5\n        /* \"#utility.yul\":14295:14360   */\n      tag_209\n      jump\t// in\n    tag_370:\n        /* \"#utility.yul\":14230:14366   */\n      pop\n        /* \"#utility.yul\":14177:14366   */\n      pop\n      pop\n      jump\t// out\n        /* \"#utility.yul\":14372:14558   */\n    tag_212:\n        /* \"#utility.yul\":14432:14552   */\n    tag_372:\n        /* \"#utility.yul\":14449:14452   */\n      dup2\n        /* \"#utility.yul\":14442:14447   */\n      dup2\n        /* \"#utility.yul\":14439:14453   */\n      lt\n        /* \"#utility.yul\":14432:14552   */\n      iszero\n      tag_374\n      jumpi\n        /* \"#utility.yul\":14503:14542   */\n      tag_375\n        /* \"#utility.yul\":14540:14541   */\n      0x00\n        /* \"#utility.yul\":14533:14538   */\n      dup3\n        /* \"#utility.yul\":14503:14542   */\n      tag_211\n      jump\t// in\n    tag_375:\n        /* \"#utility.yul\":14476:14477   */\n      0x01\n        /* \"#utility.yul\":14469:14474   */\n      dup2\n        /* \"#utility.yul\":14465:14478   */\n      add\n        /* \"#utility.yul\":14456:14478   */\n      swap1\n      pop\n        /* \"#utility.yul\":14432:14552   */\n      jump(tag_372)\n    tag_374:\n        /* \"#utility.yul\":14372:14558   */\n      pop\n      pop\n      jump\t// out\n        /* \"#utility.yul\":14564:15107   */\n    tag_213:\n        /* \"#utility.yul\":14665:14667   */\n      0x1f\n        /* \"#utility.yul\":14660:14663   */\n      dup3\n        /* \"#utility.yul\":14657:14668   */\n      gt\n        /* \"#utility.yul\":14654:15100   */\n      iszero\n      tag_377\n      jumpi\n        /* \"#utility.yul\":14699:14737   */\n      tag_378\n        /* \"#utility.yul\":14731:14736   */\n      dup2\n        /* \"#utility.yul\":14699:14737   */\n      tag_202\n      jump\t// in\n    tag_378:\n        /* \"#utility.yul\":14783:14812   */\n      tag_379\n        /* \"#utility.yul\":14801:14811   */\n      dup5\n        /* \"#utility.yul\":14783:14812   */\n      tag_203\n      jump\t// in\n    tag_379:\n        /* \"#utility.yul\":14773:14781   */\n      dup2\n        /* \"#utility.yul\":14769:14813   */\n      add\n        /* \"#utility.yul\":14966:14968   */\n      0x20\n        /* \"#utility.yul\":14954:14964   */\n      dup6\n        /* \"#utility.yul\":14951:14969   */\n      lt\n        /* \"#utility.yul\":14948:14997   */\n      iszero\n      tag_380\n      jumpi\n        /* \"#utility.yul\":14987:14995   */\n      dup2\n        /* \"#utility.yul\":14972:14995   */\n      swap1\n      pop\n        /* \"#utility.yul\":14948:14997   */\n    tag_380:\n        /* \"#utility.yul\":15010:15090   */\n      tag_381\n        /* \"#utility.yul\":15066:15088   */\n      tag_382\n        /* \"#utility.yul\":15084:15087   */\n      dup6\n        /* \"#utility.yul\":15066:15088   */\n      tag_203\n      jump\t// in\n    tag_382:\n        /* \"#utility.yul\":15056:15064   */\n      dup4\n        /* \"#utility.yul\":15052:15089   */\n      add\n        /* \"#utility.yul\":15039:15050   */\n      dup3\n        /* \"#utility.yul\":15010:15090   */\n      tag_212\n      jump\t// in\n    tag_381:\n        /* \"#utility.yul\":14669:15100   */\n      pop\n      pop\n        /* \"#utility.yul\":14654:15100   */\n    tag_377:\n        /* \"#utility.yul\":14564:15107   */\n      pop\n      pop\n      pop\n      jump\t// out\n        /* \"#utility.yul\":15113:15230   */\n    tag_214:\n        /* \"#utility.yul\":15167:15175   */\n      0x00\n        /* \"#utility.yul\":15217:15222   */\n      dup3\n        /* \"#utility.yul\":15211:15215   */\n      dup3\n        /* \"#utility.yul\":15207:15223   */\n      shr\n        /* \"#utility.yul\":15186:15223   */\n      swap1\n      pop\n        /* \"#utility.yul\":15113:15230   */\n      swap3\n      swap2\n      pop\n      pop\n      jump\t// out\n        /* \"#utility.yul\":15236:15405   */\n    tag_215:\n        /* \"#utility.yul\":15280:15286   */\n      0x00\n        /* \"#utility.yul\":15313:15364   */\n      tag_385\n        /* \"#utility.yul\":15361:15362   */\n      0x00\n        /* \"#utility.yul\":15357:15363   */\n      not\n        /* \"#utility.yul\":15349:15354   */\n      dup5\n        /* \"#utility.yul\":15346:15347   */\n      0x08\n        /* \"#utility.yul\":15342:15355   */\n      mul\n        /* \"#utility.yul\":15313:15364   */\n      tag_214\n      jump\t// in\n    tag_385:\n        /* \"#utility.yul\":15309:15365   */\n      not\n        /* \"#utility.yul\":15394:15398   */\n      dup1\n        /* \"#utility.yul\":15388:15392   */\n      dup4\n        /* \"#utility.yul\":15384:15399   */\n      and\n        /* \"#utility.yul\":15374:15399   */\n      swap2\n      pop\n        /* \"#utility.yul\":15287:15405   */\n      pop\n        /* \"#utility.yul\":15236:15405   */\n      swap3\n      swap2\n      pop\n      pop\n      jump\t// out\n        /* \"#utility.yul\":15410:15705   */\n    tag_216:\n        /* \"#utility.yul\":15486:15490   */\n      0x00\n        /* \"#utility.yul\":15632:15661   */\n      tag_387\n        /* \"#utility.yul\":15657:15660   */\n      dup4\n        /* \"#utility.yul\":15651:15655   */\n      dup4\n        /* \"#utility.yul\":15632:15661   */\n      tag_215\n      jump\t// in\n    tag_387:\n        /* \"#utility.yul\":15624:15661   */\n      swap2\n      pop\n        /* \"#utility.yul\":15694:15697   */\n      dup3\n        /* \"#utility.yul\":15691:15692   */\n      0x02\n        /* \"#utility.yul\":15687:15698   */\n      mul\n        /* \"#utility.yul\":15681:15685   */\n      dup3\n        /* \"#utility.yul\":15678:15699   */\n      or\n        /* \"#utility.yul\":15670:15699   */\n      swap1\n      pop\n        /* \"#utility.yul\":15410:15705   */\n      swap3\n      swap2\n      pop\n      pop\n      jump\t// out\n        /* \"#utility.yul\":15710:17113   */\n    tag_104:\n        /* \"#utility.yul\":15834:15878   */\n      tag_389\n        /* \"#utility.yul\":15874:15877   */\n      dup4\n        /* \"#utility.yul\":15869:15872   */\n      dup4\n        /* \"#utility.yul\":15834:15878   */\n      tag_200\n      jump\t// in\n    tag_389:\n        /* \"#utility.yul\":15943:15961   */\n      0xffffffffffffffff\n        /* \"#utility.yul\":15935:15941   */\n      dup2\n        /* \"#utility.yul\":15932:15962   */\n      gt\n        /* \"#utility.yul\":15929:15985   */\n      iszero\n      tag_390\n      jumpi\n        /* \"#utility.yul\":15965:15983   */\n      tag_391\n      tag_201\n      jump\t// in\n    tag_391:\n        /* \"#utility.yul\":15929:15985   */\n    tag_390:\n        /* \"#utility.yul\":16009:16047   */\n      tag_392\n        /* \"#utility.yul\":16041:16045   */\n      dup3\n        /* \"#utility.yul\":16035:16046   */\n      sload\n        /* \"#utility.yul\":16009:16047   */\n      tag_81\n      jump\t// in\n    tag_392:\n        /* \"#utility.yul\":16094:16161   */\n      tag_393\n        /* \"#utility.yul\":16154:16160   */\n      dup3\n        /* \"#utility.yul\":16146:16152   */\n      dup3\n        /* \"#utility.yul\":16140:16144   */\n      dup6\n        /* \"#utility.yul\":16094:16161   */\n      tag_213\n      jump\t// in\n    tag_393:\n        /* \"#utility.yul\":16188:16189   */\n      0x00\n        /* \"#utility.yul\":16217:16219   */\n      0x1f\n        /* \"#utility.yul\":16209:16215   */\n      dup4\n        /* \"#utility.yul\":16206:16220   */\n      gt\n        /* \"#utility.yul\":16234:16235   */\n      0x01\n        /* \"#utility.yul\":16229:16861   */\n      dup2\n      eq\n      tag_395\n      jumpi\n        /* \"#utility.yul\":16905:16906   */\n      0x00\n        /* \"#utility.yul\":16922:16928   */\n      dup5\n        /* \"#utility.yul\":16919:17003   */\n      iszero\n      tag_396\n      jumpi\n        /* \"#utility.yul\":16978:16987   */\n      dup3\n        /* \"#utility.yul\":16973:16976   */\n      dup8\n        /* \"#utility.yul\":16969:16988   */\n      add\n        /* \"#utility.yul\":16956:16989   */\n      calldataload\n        /* \"#utility.yul\":16947:16989   */\n      swap1\n      pop\n        /* \"#utility.yul\":16919:17003   */\n    tag_396:\n        /* \"#utility.yul\":17029:17096   */\n      tag_397\n        /* \"#utility.yul\":17089:17095   */\n      dup6\n        /* \"#utility.yul\":17082:17087   */\n      dup3\n        /* \"#utility.yul\":17029:17096   */\n      tag_216\n      jump\t// in\n    tag_397:\n        /* \"#utility.yul\":17023:17027   */\n      dup7\n        /* \"#utility.yul\":17016:17097   */\n      sstore\n        /* \"#utility.yul\":16878:17107   */\n      pop\n        /* \"#utility.yul\":16199:17107   */\n      jump(tag_394)\n        /* \"#utility.yul\":16229:16861   */\n    tag_395:\n        /* \"#utility.yul\":16281:16285   */\n      0x1f\n        /* \"#utility.yul\":16277:16286   */\n      not\n        /* \"#utility.yul\":16269:16275   */\n      dup5\n        /* \"#utility.yul\":16265:16287   */\n      and\n        /* \"#utility.yul\":16315:16352   */\n      tag_398\n        /* \"#utility.yul\":16347:16351   */\n      dup7\n        /* \"#utility.yul\":16315:16352   */\n      tag_202\n      jump\t// in\n    tag_398:\n        /* \"#utility.yul\":16374:16375   */\n      0x00\n        /* \"#utility.yul\":16388:16603   */\n    tag_399:\n        /* \"#utility.yul\":16402:16409   */\n      dup3\n        /* \"#utility.yul\":16399:16400   */\n      dup2\n        /* \"#utility.yul\":16396:16410   */\n      lt\n        /* \"#utility.yul\":16388:16603   */\n      iszero\n      tag_401\n      jumpi\n        /* \"#utility.yul\":16488:16497   */\n      dup5\n        /* \"#utility.yul\":16483:16486   */\n      dup10\n        /* \"#utility.yul\":16479:16498   */\n      add\n        /* \"#utility.yul\":16466:16499   */\n      calldataload\n        /* \"#utility.yul\":16458:16464   */\n      dup3\n        /* \"#utility.yul\":16451:16500   */\n      sstore\n        /* \"#utility.yul\":16539:16540   */\n      0x01\n        /* \"#utility.yul\":16531:16537   */\n      dup3\n        /* \"#utility.yul\":16527:16541   */\n      add\n        /* \"#utility.yul\":16517:16541   */\n      swap2\n      pop\n        /* \"#utility.yul\":16586:16588   */\n      0x20\n        /* \"#utility.yul\":16575:16584   */\n      dup6\n        /* \"#utility.yul\":16571:16589   */\n      add\n        /* \"#utility.yul\":16558:16589   */\n      swap5\n      pop\n        /* \"#utility.yul\":16425:16429   */\n      0x20\n        /* \"#utility.yul\":16422:16423   */\n      dup2\n        /* \"#utility.yul\":16418:16430   */\n      add\n        /* \"#utility.yul\":16413:16430   */\n      swap1\n      pop\n        /* \"#utility.yul\":16388:16603   */\n      jump(tag_399)\n    tag_401:\n        /* \"#utility.yul\":16631:16637   */\n      dup7\n        /* \"#utility.yul\":16622:16629   */\n      dup4\n        /* \"#utility.yul\":16619:16638   */\n      lt\n        /* \"#utility.yul\":16616:16802   */\n      iszero\n      tag_402\n      jumpi\n        /* \"#utility.yul\":16696:16705   */\n      dup5\n        /* \"#utility.yul\":16691:16694   */\n      dup10\n        /* \"#utility.yul\":16687:16706   */\n      add\n        /* \"#utility.yul\":16674:16707   */\n      calldataload\n        /* \"#utility.yul\":16739:16787   */\n      tag_403\n        /* \"#utility.yul\":16781:16785   */\n      0x1f\n        /* \"#utility.yul\":16773:16779   */\n      dup10\n        /* \"#utility.yul\":16769:16786   */\n      and\n        /* \"#utility.yul\":16758:16767   */\n      dup3\n        /* \"#utility.yul\":16739:16787   */\n      tag_215\n      jump\t// in\n    tag_403:\n        /* \"#utility.yul\":16731:16737   */\n      dup4\n        /* \"#utility.yul\":16724:16788   */\n      sstore\n        /* \"#utility.yul\":16639:16802   */\n      pop\n        /* \"#utility.yul\":16616:16802   */\n    tag_402:\n        /* \"#utility.yul\":16848:16849   */\n      0x01\n        /* \"#utility.yul\":16844:16845   */\n      0x02\n        /* \"#utility.yul\":16836:16842   */\n      dup9\n        /* \"#utility.yul\":16832:16846   */\n      mul\n        /* \"#utility.yul\":16828:16850   */\n      add\n        /* \"#utility.yul\":16822:16826   */\n      dup9\n        /* \"#utility.yul\":16815:16851   */\n      sstore\n        /* \"#utility.yul\":16236:16861   */\n      pop\n      pop\n      pop\n        /* \"#utility.yul\":16199:17107   */\n    tag_394:\n      pop\n        /* \"#utility.yul\":15809:17113   */\n      pop\n      pop\n      pop\n        /* \"#utility.yul\":15710:17113   */\n      pop\n      pop\n      pop\n      jump\t// out\n        /* \"#utility.yul\":17119:17267   */\n    tag_217:\n        /* \"#utility.yul\":17217:17223   */\n      dup3\n        /* \"#utility.yul\":17212:17215   */\n      dup2\n        /* \"#utility.yul\":17207:17210   */\n      dup4\n        /* \"#utility.yul\":17194:17224   */\n      calldatacopy\n        /* \"#utility.yul\":17258:17259   */\n      0x00\n        /* \"#utility.yul\":17249:17255   */\n      dup4\n        /* \"#utility.yul\":17244:17247   */\n      dup4\n        /* \"#utility.yul\":17240:17256   */\n      add\n        /* \"#utility.yul\":17233:17260   */\n      mstore\n        /* \"#utility.yul\":17119:17267   */\n      pop\n      pop\n      pop\n      jump\t// out\n        /* \"#utility.yul\":17297:17614   */\n    tag_218:\n        /* \"#utility.yul\":17395:17398   */\n      0x00\n        /* \"#utility.yul\":17416:17487   */\n      tag_406\n        /* \"#utility.yul\":17480:17486   */\n      dup4\n        /* \"#utility.yul\":17475:17478   */\n      dup6\n        /* \"#utility.yul\":17416:17487   */\n      tag_175\n      jump\t// in\n    tag_406:\n        /* \"#utility.yul\":17409:17487   */\n      swap4\n      pop\n        /* \"#utility.yul\":17497:17553   */\n      tag_407\n        /* \"#utility.yul\":17546:17552   */\n      dup4\n        /* \"#utility.yul\":17541:17544   */\n      dup6\n        /* \"#utility.yul\":17534:17539   */\n      dup5\n        /* \"#utility.yul\":17497:17553   */\n      tag_217\n      jump\t// in\n    tag_407:\n        /* \"#utility.yul\":17578:17607   */\n      tag_408\n        /* \"#utility.yul\":17600:17606   */\n      dup4\n        /* \"#utility.yul\":17578:17607   */\n      tag_177\n      jump\t// in\n    tag_408:\n        /* \"#utility.yul\":17573:17576   */\n      dup5\n        /* \"#utility.yul\":17569:17608   */\n      add\n        /* \"#utility.yul\":17562:17608   */\n      swap1\n      pop\n        /* \"#utility.yul\":17297:17614   */\n      swap4\n      swap3\n      pop\n      pop\n      pop\n      jump\t// out\n        /* \"#utility.yul\":17620:17953   */\n    tag_106:\n        /* \"#utility.yul\":17743:17747   */\n      0x00\n        /* \"#utility.yul\":17781:17783   */\n      0x20\n        /* \"#utility.yul\":17770:17779   */\n      dup3\n        /* \"#utility.yul\":17766:17784   */\n      add\n        /* \"#utility.yul\":17758:17784   */\n      swap1\n      pop\n        /* \"#utility.yul\":17830:17839   */\n      dup2\n        /* \"#utility.yul\":17824:17828   */\n      dup2\n        /* \"#utility.yul\":17820:17840   */\n      sub\n        /* \"#utility.yul\":17816:17817   */\n      0x00\n        /* \"#utility.yul\":17805:17814   */\n      dup4\n        /* \"#utility.yul\":17801:17818   */\n      add\n        /* \"#utility.yul\":17794:17841   */\n      mstore\n        /* \"#utility.yul\":17858:17946   */\n      tag_410\n        /* \"#utility.yul\":17941:17945   */\n      dup2\n        /* \"#utility.yul\":17932:17938   */\n      dup5\n        /* \"#utility.yul\":17924:17930   */\n      dup7\n        /* \"#utility.yul\":17858:17946   */\n      tag_218\n      jump\t// in\n    tag_410:\n        /* \"#utility.yul\":17850:17946   */\n      swap1\n      pop\n        /* \"#utility.yul\":17620:17953   */\n      swap4\n      swap3\n      pop\n      pop\n      pop\n      jump\t// out\n        /* \"#utility.yul\":17959:18125   */\n    tag_219:\n        /* \"#utility.yul\":18099:18117   */\n      0x4e6f74207265636f7264206f776e657200000000000000000000000000000000\n        /* \"#utility.yul\":18095:18096   */\n      0x00\n        /* \"#utility.yul\":18087:18093   */\n      dup3\n        /* \"#utility.yul\":18083:18097   */\n      add\n        /* \"#utility.yul\":18076:18118   */\n      mstore\n        /* \"#utility.yul\":17959:18125   */\n      pop\n      jump\t// out\n        /* \"#utility.yul\":18131:18497   */\n    tag_220:\n        /* \"#utility.yul\":18273:18276   */\n      0x00\n        /* \"#utility.yul\":18294:18361   */\n      tag_413\n        /* \"#utility.yul\":18358:18360   */\n      0x10\n        /* \"#utility.yul\":18353:18356   */\n      dup4\n        /* \"#utility.yul\":18294:18361   */\n      tag_175\n      jump\t// in\n    tag_413:\n        /* \"#utility.yul\":18287:18361   */\n      swap2\n      pop\n        /* \"#utility.yul\":18370:18463   */\n      tag_414\n        /* \"#utility.yul\":18459:18462   */\n      dup3\n        /* \"#utility.yul\":18370:18463   */\n      tag_219\n      jump\t// in\n    tag_414:\n        /* \"#utility.yul\":18488:18490   */\n      0x20\n        /* \"#utility.yul\":18483:18486   */\n      dup3\n        /* \"#utility.yul\":18479:18491   */\n      add\n        /* \"#utility.yul\":18472:18491   */\n      swap1\n      pop\n        /* \"#utility.yul\":18131:18497   */\n      swap2\n      swap1\n      pop\n      jump\t// out\n        /* \"#utility.yul\":18503:18922   */\n    tag_121:\n        /* \"#utility.yul\":18669:18673   */\n      0x00\n        /* \"#utility.yul\":18707:18709   */\n      0x20\n        /* \"#utility.yul\":18696:18705   */\n      dup3\n        /* \"#utility.yul\":18692:18710   */\n      add\n        /* \"#utility.yul\":18684:18710   */\n      swap1\n      pop\n        /* \"#utility.yul\":18756:18765   */\n      dup2\n        /* \"#utility.yul\":18750:18754   */\n      dup2\n        /* \"#utility.yul\":18746:18766   */\n      sub\n        /* \"#utility.yul\":18742:18743   */\n      0x00\n        /* \"#utility.yul\":18731:18740   */\n      dup4\n        /* \"#utility.yul\":18727:18744   */\n      add\n        /* \"#utility.yul\":18720:18767   */\n      mstore\n        /* \"#utility.yul\":18784:18915   */\n      tag_416\n        /* \"#utility.yul\":18910:18914   */\n      dup2\n        /* \"#utility.yul\":18784:18915   */\n      tag_220\n      jump\t// in\n    tag_416:\n        /* \"#utility.yul\":18776:18915   */\n      swap1\n      pop\n        /* \"#utility.yul\":18503:18922   */\n      swap2\n      swap1\n      pop\n      jump\t// out\n        /* \"#utility.yul\":18928:19094   */\n    tag_221:\n        /* \"#utility.yul\":19068:19086   */\n      0x496e76616c69642070726f766964657200000000000000000000000000000000\n        /* \"#utility.yul\":19064:19065   */\n      0x00\n        /* \"#utility.yul\":19056:19062   */\n      dup3\n        /* \"#utility.yul\":19052:19066   */\n      add\n        /* \"#utility.yul\":19045:19087   */\n      mstore\n        /* \"#utility.yul\":18928:19094   */\n      pop\n      jump\t// out\n        /* \"#utility.yul\":19100:19466   */\n    tag_222:\n        /* \"#utility.yul\":19242:19245   */\n      0x00\n        /* \"#utility.yul\":19263:19330   */\n      tag_419\n        /* \"#utility.yul\":19327:19329   */\n      0x10\n        /* \"#utility.yul\":19322:19325   */\n      dup4\n        /* \"#utility.yul\":19263:19330   */\n      tag_175\n      jump\t// in\n    tag_419:\n        /* \"#utility.yul\":19256:19330   */\n      swap2\n      pop\n        /* \"#utility.yul\":19339:19432   */\n      tag_420\n        /* \"#utility.yul\":19428:19431   */\n      dup3\n        /* \"#utility.yul\":19339:19432   */\n      tag_221\n      jump\t// in\n    tag_420:\n        /* \"#utility.yul\":19457:19459   */\n      0x20\n        /* \"#utility.yul\":19452:19455   */\n      dup3\n        /* \"#utility.yul\":19448:19460   */\n      add\n        /* \"#utility.yul\":19441:19460   */\n      swap1\n      pop\n        /* \"#utility.yul\":19100:19466   */\n      swap2\n      swap1\n      pop\n      jump\t// out\n        /* \"#utility.yul\":19472:19891   */\n    tag_139:\n        /* \"#utility.yul\":19638:19642   */\n      0x00\n        /* \"#utility.yul\":19676:19678   */\n      0x20\n        /* \"#utility.yul\":19665:19674   */\n      dup3\n        /* \"#utility.yul\":19661:19679   */\n      add\n        /* \"#utility.yul\":19653:19679   */\n      swap1\n      pop\n        /* \"#utility.yul\":19725:19734   */\n      dup2\n        /* \"#utility.yul\":19719:19723   */\n      dup2\n        /* \"#utility.yul\":19715:19735   */\n      sub\n        /* \"#utility.yul\":19711:19712   */\n      0x00\n        /* \"#utility.yul\":19700:19709   */\n      dup4\n        /* \"#utility.yul\":19696:19713   */\n      add\n        /* \"#utility.yul\":19689:19736   */\n      mstore\n        /* \"#utility.yul\":19753:19884   */\n      tag_422\n        /* \"#utility.yul\":19879:19883   */\n      dup2\n        /* \"#utility.yul\":19753:19884   */\n      tag_222\n      jump\t// in\n    tag_422:\n        /* \"#utility.yul\":19745:19884   */\n      swap1\n      pop\n        /* \"#utility.yul\":19472:19891   */\n      swap2\n      swap1\n      pop\n      jump\t// out\n        /* \"#utility.yul\":19897:20078   */\n    tag_223:\n        /* \"#utility.yul\":20037:20070   */\n      0x657870697265734174206d75737420626520696e207468652066757475726500\n        /* \"#utility.yul\":20033:20034   */\n      0x00\n        /* \"#utility.yul\":20025:20031   */\n      dup3\n        /* \"#utility.yul\":20021:20035   */\n      add\n        /* \"#utility.yul\":20014:20071   */\n      mstore\n        /* \"#utility.yul\":19897:20078   */\n      pop\n      jump\t// out\n        /* \"#utility.yul\":20084:20450   */\n    tag_224:\n        /* \"#utility.yul\":20226:20229   */\n      0x00\n        /* \"#utility.yul\":20247:20314   */\n      tag_425\n        /* \"#utility.yul\":20311:20313   */\n      0x1f\n        /* \"#utility.yul\":20306:20309   */\n      dup4\n        /* \"#utility.yul\":20247:20314   */\n      tag_175\n      jump\t// in\n    tag_425:\n        /* \"#utility.yul\":20240:20314   */\n      swap2\n      pop\n        /* \"#utility.yul\":20323:20416   */\n      tag_426\n        /* \"#utility.yul\":20412:20415   */\n      dup3\n        /* \"#utility.yul\":20323:20416   */\n      tag_223\n      jump\t// in\n    tag_426:\n        /* \"#utility.yul\":20441:20443   */\n      0x20\n        /* \"#utility.yul\":20436:20439   */\n      dup3\n        /* \"#utility.yul\":20432:20444   */\n      add\n        /* \"#utility.yul\":20425:20444   */\n      swap1\n      pop\n        /* \"#utility.yul\":20084:20450   */\n      swap2\n      swap1\n      pop\n      jump\t// out\n        /* \"#utility.yul\":20456:20875   */\n    tag_144:\n        /* \"#utility.yul\":20622:20626   */\n      0x00\n        /* \"#utility.yul\":20660:20662   */\n      0x20\n        /* \"#utility.yul\":20649:20658   */\n      dup3\n        /* \"#utility.yul\":20645:20663   */\n      add\n        /* \"#utility.yul\":20637:20663   */\n      swap1\n      pop\n        /* \"#utility.yul\":20709:20718   */\n      dup2\n        /* \"#utility.yul\":20703:20707   */\n      dup2\n        /* \"#utility.yul\":20699:20719   */\n      sub\n        /* \"#utility.yul\":20695:20696   */\n      0x00\n        /* \"#utility.yul\":20684:20693   */\n      dup4\n        /* \"#utility.yul\":20680:20697   */\n      add\n        /* \"#utility.yul\":20673:20720   */\n      mstore\n        /* \"#utility.yul\":20737:20868   */\n      tag_428\n        /* \"#utility.yul\":20863:20867   */\n      dup2\n        /* \"#utility.yul\":20737:20868   */\n      tag_224\n      jump\t// in\n    tag_428:\n        /* \"#utility.yul\":20729:20868   */\n      swap1\n      pop\n        /* \"#utility.yul\":20456:20875   */\n      swap2\n      swap1\n      pop\n      jump\t// out\n        /* \"#utility.yul\":20881:21061   */\n    tag_225:\n        /* \"#utility.yul\":20929:21006   */\n      0x4e487b7100000000000000000000000000000000000000000000000000000000\n        /* \"#utility.yul\":20926:20927   */\n      0x00\n        /* \"#utility.yul\":20919:21007   */\n      mstore\n        /* \"#utility.yul\":21026:21030   */\n      0x11\n        /* \"#utility.yul\":21023:21024   */\n      0x04\n        /* \"#utility.yul\":21016:21031   */\n      mstore\n        /* \"#utility.yul\":21050:21054   */\n      0x24\n        /* \"#utility.yul\":21047:21048   */\n      0x00\n        /* \"#utility.yul\":21040:21055   */\n      revert\n        /* \"#utility.yul\":21067:21300   */\n    tag_157:\n        /* \"#utility.yul\":21106:21109   */\n      0x00\n        /* \"#utility.yul\":21129:21153   */\n      tag_431\n        /* \"#utility.yul\":21147:21152   */\n      dup3\n        /* \"#utility.yul\":21129:21153   */\n      tag_171\n      jump\t// in\n    tag_431:\n        /* \"#utility.yul\":21120:21153   */\n      swap2\n      pop\n        /* \"#utility.yul\":21175:21241   */\n      0xffffffffffffffffffffffffffffffffffffffffffffffffffffffffffffffff\n        /* \"#utility.yul\":21168:21173   */\n      dup3\n        /* \"#utility.yul\":21165:21242   */\n      sub\n        /* \"#utility.yul\":21162:21265   */\n      tag_432\n      jumpi\n        /* \"#utility.yul\":21245:21263   */\n      tag_433\n      tag_225\n      jump\t// in\n    tag_433:\n        /* \"#utility.yul\":21162:21265   */\n    tag_432:\n        /* \"#utility.yul\":21292:21293   */\n      0x01\n        /* \"#utility.yul\":21285:21290   */\n      dup3\n        /* \"#utility.yul\":21281:21294   */\n      add\n        /* \"#utility.yul\":21274:21294   */\n      swap1\n      pop\n        /* \"#utility.yul\":21067:21300   */\n      swap2\n      swap1\n      pop\n      jump\t// out\n        /* \"#utility.yul\":21306:22701   */\n    tag_159:\n        /* \"#utility.yul\":21423:21460   */\n      tag_435\n        /* \"#utility.yul\":21456:21459   */\n      dup3\n        /* \"#utility.yul\":21423:21460   */\n      tag_174\n      jump\t// in\n    tag_435:\n        /* \"#utility.yul\":21525:21543   */\n      0xffffffffffffffff\n        /* \"#utility.yul\":21517:21523   */\n      dup2\n        /* \"#utility.yul\":21514:21544   */\n      gt\n        /* \"#utility.yul\":21511:21567   */\n      iszero\n      tag_436\n      jumpi\n        /* \"#utility.yul\":21547:21565   */\n      tag_437\n      tag_201\n      jump\t// in\n    tag_437:\n        /* \"#utility.yul\":21511:21567   */\n    tag_436:\n        /* \"#utility.yul\":21591:21629   */\n      tag_438\n        /* \"#utility.yul\":21623:21627   */\n      dup3\n        /* \"#utility.yul\":21617:21628   */\n      sload\n        /* \"#utility.yul\":21591:21629   */\n      tag_81\n      jump\t// in\n    tag_438:\n        /* \"#utility.yul\":21676:21743   */\n      tag_439\n        /* \"#utility.yul\":21736:21742   */\n      dup3\n        /* \"#utility.yul\":21728:21734   */\n      dup3\n        /* \"#utility.yul\":21722:21726   */\n      dup6\n        /* \"#utility.yul\":21676:21743   */\n      tag_213\n      jump\t// in\n    tag_439:\n        /* \"#utility.yul\":21770:21771   */\n      0x00\n        /* \"#utility.yul\":21794:21798   */\n      0x20\n        /* \"#utility.yul\":21781:21798   */\n      swap1\n      pop\n        /* \"#utility.yul\":21826:21828   */\n      0x1f\n        /* \"#utility.yul\":21818:21824   */\n      dup4\n        /* \"#utility.yul\":21815:21829   */\n      gt\n        /* \"#utility.yul\":21843:21844   */\n      0x01\n        /* \"#utility.yul\":21838:22456   */\n      dup2\n      eq\n      tag_441\n      jumpi\n        /* \"#utility.yul\":22500:22501   */\n      0x00\n        /* \"#utility.yul\":22517:22523   */\n      dup5\n        /* \"#utility.yul\":22514:22591   */\n      iszero\n      tag_442\n      jumpi\n        /* \"#utility.yul\":22566:22575   */\n      dup3\n        /* \"#utility.yul\":22561:22564   */\n      dup8\n        /* \"#utility.yul\":22557:22576   */\n      add\n        /* \"#utility.yul\":22551:22577   */\n      mload\n        /* \"#utility.yul\":22542:22577   */\n      swap1\n      pop\n        /* \"#utility.yul\":22514:22591   */\n    tag_442:\n        /* \"#utility.yul\":22617:22684   */\n      tag_443\n        /* \"#utility.yul\":22677:22683   */\n      dup6\n        /* \"#utility.yul\":22670:22675   */\n      dup3\n        /* \"#utility.yul\":22617:22684   */\n      tag_216\n      jump\t// in\n    tag_443:\n        /* \"#utility.yul\":22611:22615   */\n      dup7\n        /* \"#utility.yul\":22604:22685   */\n      sstore\n        /* \"#utility.yul\":22473:22695   */\n      pop\n        /* \"#utility.yul\":21808:22695   */\n      jump(tag_440)\n        /* \"#utility.yul\":21838:22456   */\n    tag_441:\n        /* \"#utility.yul\":21890:21894   */\n      0x1f\n        /* \"#utility.yul\":21886:21895   */\n      not\n        /* \"#utility.yul\":21878:21884   */\n      dup5\n        /* \"#utility.yul\":21874:21896   */\n      and\n        /* \"#utility.yul\":21924:21961   */\n      tag_444\n        /* \"#utility.yul\":21956:21960   */\n      dup7\n        /* \"#utility.yul\":21924:21961   */\n      tag_202\n      jump\t// in\n    tag_444:\n        /* \"#utility.yul\":21983:21984   */\n      0x00\n        /* \"#utility.yul\":21997:22205   */\n    tag_445:\n        /* \"#utility.yul\":22011:22018   */\n      dup3\n        /* \"#utility.yul\":22008:22009   */\n      dup2\n        /* \"#utility.yul\":22005:22019   */\n      lt\n        /* \"#utility.yul\":21997:22205   */\n      iszero\n      tag_447\n      jumpi\n        /* \"#utility.yul\":22090:22099   */\n      dup5\n        /* \"#utility.yul\":22085:22088   */\n      dup10\n        /* \"#utility.yul\":22081:22100   */\n      add\n        /* \"#utility.yul\":22075:22101   */\n      mload\n        /* \"#utility.yul\":22067:22073   */\n      dup3\n        /* \"#utility.yul\":22060:22102   */\n      sstore\n        /* \"#utility.yul\":22141:22142   */\n      0x01\n        /* \"#utility.yul\":22133:22139   */\n      dup3\n        /* \"#utility.yul\":22129:22143   */\n      add\n        /* \"#utility.yul\":22119:22143   */\n      swap2\n      pop\n        /* \"#utility.yul\":22188:22190   */\n      0x20\n        /* \"#utility.yul\":22177:22186   */\n      dup6\n        /* \"#utility.yul\":22173:22191   */\n      add\n        /* \"#utility.yul\":22160:22191   */\n      swap5\n      pop\n        /* \"#utility.yul\":22034:22038   */\n      0x20\n        /* \"#utility.yul\":22031:22032   */\n      dup2\n        /* \"#utility.yul\":22027:22039   */\n      add\n        /* \"#utility.yul\":22022:22039   */\n      swap1\n      pop\n        /* \"#utility.yul\":21997:22205   */\n      jump(tag_445)\n    tag_447:\n        /* \"#utility.yul\":22233:22239   */\n      dup7\n        /* \"#utility.yul\":22224:22231   */\n      dup4\n        /* \"#utility.yul\":22221:22240   */\n      lt\n        /* \"#utility.yul\":22218:22397   */\n      iszero\n      tag_448\n      jumpi\n        /* \"#utility.yul\":22291:22300   */\n      dup5\n        /* \"#utility.yul\":22286:22289   */\n      dup10\n        /* \"#utility.yul\":22282:22301   */\n      add\n        /* \"#utility.yul\":22276:22302   */\n      mload\n        /* \"#utility.yul\":22334:22382   */\n      tag_449\n        /* \"#utility.yul\":22376:22380   */\n      0x1f\n        /* \"#utility.yul\":22368:22374   */\n      dup10\n        /* \"#utility.yul\":22364:22381   */\n      and\n        /* \"#utility.yul\":22353:22362   */\n      dup3\n        /* \"#utility.yul\":22334:22382   */\n      tag_215\n      jump\t// in\n    tag_449:\n        /* \"#utility.yul\":22326:22332   */\n      dup4\n        /* \"#utility.yul\":22319:22383   */\n      sstore\n        /* \"#utility.yul\":22241:22397   */\n      pop\n        /* \"#utility.yul\":22218:22397   */\n    tag_448:\n        /* \"#utility.yul\":22443:22444   */\n      0x01\n        /* \"#utility.yul\":22439:22440   */\n      0x02\n        /* \"#utility.yul\":22431:22437   */\n      dup9\n        /* \"#utility.yul\":22427:22441   */\n      mul\n        /* \"#utility.yul\":22423:22445   */\n      add\n        /* \"#utility.yul\":22417:22421   */\n      dup9\n        /* \"#utility.yul\":22410:22446   */\n      sstore\n        /* \"#utility.yul\":21845:22456   */\n      pop\n      pop\n      pop\n        /* \"#utility.yul\":21808:22695   */\n    tag_440:\n      pop\n        /* \"#utility.yul\":21398:22701   */\n      pop\n      pop\n      pop\n        /* \"#utility.yul\":21306:22701   */\n      pop\n      pop\n      jump\t// out\n\n    auxdata: 0xa26469706673582212209222020640a8725dbfc589f758044626fbfcb186d3ce83793f0b39508bac1e5564736f6c634300081e0033\n}\n",
				"bytecode": {
					"linkReferences": {},
					"object": "6080604052348015600e575f5ffd5b5061213e8061001c5f395ff3fe608060405234801561000f575f5ffd5b50600436106100cd575f3560e01c8063a63a10981161008a578063ced1419811610064578063ced1419814610222578063d603b28414610252578063d9a5ec1b1461026e578063db70504b1461028a576100cd565b8063a63a1098146101b8578063a9fb2d81146101d4578063bd98aa8b14610204576100cd565b806316030146146100d15780631c63146614610101578063344610671461011d5780637526f5171461014f5780637fdc2cdc146101805780638693a6831461019c575b5f5ffd5b6100eb60048036038101906100e691906115b3565b6102ba565b6040516100f8919061164e565b60405180910390f35b61011b600480360381019061011691906116cf565b610515565b005b610137600480360381019061013291906115b3565b610754565b60405161014693929190611785565b60405180910390f35b610169600480360381019061016491906117eb565b61082b565b604051610177929190611838565b60405180910390f35b61019a600480360381019061019591906115b3565b610862565b005b6101b660048036038101906101b191906115b3565b61095d565b005b6101d260048036038101906101cd9190611889565b610b01565b005b6101ee60048036038101906101e991906118c7565b610bf9565b6040516101fb9190611905565b60405180910390f35b61020c610c23565b604051610219919061191e565b60405180910390f35b61023c600480360381019061023791906117eb565b610c2b565b6040516102499190611905565b60405180910390f35b61026c60048036038101906102679190611937565b610ccb565b005b610288600480360381019061028391906117eb565b611099565b005b6102a4600480360381019061029f9190611987565b6113aa565b6040516102b1919061191e565b60405180910390f35b606060015f8381526020019081526020015f206002015f9054906101000a900460ff1661031c576040517f08c379a000000000000000000000000000000000000000000000000000000000815260040161031390611a1c565b60405180910390fd5b5f60015f8481526020019081526020015f205f015f9054906101000a900473ffffffffffffffffffffffffffffffffffffffff1690508073ffffffffffffffffffffffffffffffffffffffff163373ffffffffffffffffffffffffffffffffffffffff16036104285760015f8481526020019081526020015f2060010180546103a490611a67565b80601f01602080910402602001604051908101604052809291908181526020018280546103d090611a67565b801561041b5780601f106103f25761010080835404028352916020019161041b565b820191905f5260205f20905b8154815290600101906020018083116103fe57829003601f168201915b5050505050915050610510565b6104328333610c2b565b610471576040517f08c379a000000000000000000000000000000000000000000000000000000000815260040161046890611ae1565b60405180910390fd5b60015f8481526020019081526020015f20600101805461049090611a67565b80601f01602080910402602001604051908101604052809291908181526020018280546104bc90611a67565b80156105075780601f106104de57610100808354040283529160200191610507565b820191905f5260205f20905b8154815290600101906020018083116104ea57829003601f168201915b50505050509150505b919050565b8260015f8281526020019081526020015f206002015f9054906101000a900460ff16610576576040517f08c379a000000000000000000000000000000000000000000000000000000000815260040161056d90611a1c565b60405180910390fd5b5f60015f8381526020019081526020015f205f015f9054906101000a900473ffffffffffffffffffffffffffffffffffffffff1690508073ffffffffffffffffffffffffffffffffffffffff163373ffffffffffffffffffffffffffffffffffffffff161480610667575060035f8273ffffffffffffffffffffffffffffffffffffffff1673ffffffffffffffffffffffffffffffffffffffff1681526020019081526020015f205f3373ffffffffffffffffffffffffffffffffffffffff1673ffffffffffffffffffffffffffffffffffffffff1681526020019081526020015f205f9054906101000a900460ff165b6106a6576040517f08c379a000000000000000000000000000000000000000000000000000000000815260040161069d90611b6f565b60405180910390fd5b838360015f8881526020019081526020015f2060010191826106c9929190611d64565b5060015f8681526020019081526020015f205f015f9054906101000a900473ffffffffffffffffffffffffffffffffffffffff1673ffffffffffffffffffffffffffffffffffffffff16857fd448fa896af10b43d8077624e4dad9299f15dca1958f0f5a554dc66d68e9e4ee8686604051610745929190611e6b565b60405180910390a35050505050565b6001602052805f5260405f205f91509050805f015f9054906101000a900473ffffffffffffffffffffffffffffffffffffffff169080600101805461079890611a67565b80601f01602080910402602001604051908101604052809291908181526020018280546107c490611a67565b801561080f5780601f106107e65761010080835404028352916020019161080f565b820191905f5260205f20905b8154815290600101906020018083116107f257829003601f168201915b505050505090806002015f9054906101000a900460ff16905083565b6002602052815f5260405f20602052805f5260405f205f9150915050805f015490806001015f9054906101000a900460ff16905082565b60015f8281526020019081526020015f206002015f9054906101000a900460ff166108c2576040517f08c379a00000000000000000000000000000000000000000000000000000000081526004016108b990611a1c565b60405180910390fd5b60015f8281526020019081526020015f205f015f9054906101000a900473ffffffffffffffffffffffffffffffffffffffff1673ffffffffffffffffffffffffffffffffffffffff163373ffffffffffffffffffffffffffffffffffffffff16827fd62937245f876eb48076464ab0f1df7295b17a2e93b4b75b4da096404632aed442604051610952919061191e565b60405180910390a450565b8060015f8281526020019081526020015f206002015f9054906101000a900460ff166109be576040517f08c379a00000000000000000000000000000000000000000000000000000000081526004016109b590611a1c565b60405180910390fd5b3373ffffffffffffffffffffffffffffffffffffffff1660015f8381526020019081526020015f205f015f9054906101000a900473ffffffffffffffffffffffffffffffffffffffff1673ffffffffffffffffffffffffffffffffffffffff1614610a5e576040517f08c379a0000000000000000000000000000000000000000000000000000000008152600401610a5590611ed7565b60405180910390fd5b60015f8381526020019081526020015f205f5f82015f6101000a81549073ffffffffffffffffffffffffffffffffffffffff0219169055600182015f610aa49190611520565b600282015f6101000a81549060ff021916905550503373ffffffffffffffffffffffffffffffffffffffff16827f5f0c26152e348a4e21e023ffa27b58d6019f813f280f27ce5a1c4ec6c6bbb01860405160405180910390a35050565b8060035f3373ffffffffffffffffffffffffffffffffffffffff1673ffffffffffffffffffffffffffffffffffffffff1681526020019081526020015f205f8473ffffffffffffffffffffffffffffffffffffffff1673ffffffffffffffffffffffffffffffffffffffff1681526020019081526020015f205f6101000a81548160ff0219169083151502179055508173ffffffffffffffffffffffffffffffffffffffff163373ffffffffffffffffffffffffffffffffffffffff167f42ef3a6445090af5f522bf393e8d432b01eb65949f6e2bca70984e3630b6377783604051610bed9190611905565b60405180910390a35050565b6003602052815f5260405f20602052805f5260405f205f915091509054906101000a900460ff1681565b5f5f54905090565b5f5f60025f8581526020019081526020015f205f8473ffffffffffffffffffffffffffffffffffffffff1673ffffffffffffffffffffffffffffffffffffffff1681526020019081526020015f206040518060400160405290815f8201548152602001600182015f9054906101000a900460ff16151515158152505090508060200151610cbb575f915050610cc5565b42815f0151119150505b92915050565b8260015f8281526020019081526020015f206002015f9054906101000a900460ff16610d2c576040517f08c379a0000000000000000000000000000000000000000000000000000000008152600401610d2390611a1c565b60405180910390fd5b5f60015f8381526020019081526020015f205f015f9054906101000a900473ffffffffffffffffffffffffffffffffffffffff1690508073ffffffffffffffffffffffffffffffffffffffff163373ffffffffffffffffffffffffffffffffffffffff161480610e1d575060035f8273ffffffffffffffffffffffffffffffffffffffff1673ffffffffffffffffffffffffffffffffffffffff1681526020019081526020015f205f3373ffffffffffffffffffffffffffffffffffffffff1673ffffffffffffffffffffffffffffffffffffffff1681526020019081526020015f205f9054906101000a900460ff165b610e5c576040517f08c379a0000000000000000000000000000000000000000000000000000000008152600401610e5390611b6f565b60405180910390fd5b5f73ffffffffffffffffffffffffffffffffffffffff168473ffffffffffffffffffffffffffffffffffffffff1603610eca576040517f08c379a0000000000000000000000000000000000000000000000000000000008152600401610ec190611f3f565b60405180910390fd5b60015f8681526020019081526020015f206002015f9054906101000a900460ff16610f2a576040517f08c379a0000000000000000000000000000000000000000000000000000000008152600401610f2190611a1c565b60405180910390fd5b428311610f6c576040517f08c379a0000000000000000000000000000000000000000000000000000000008152600401610f6390611fa7565b60405180910390fd5b60405180604001604052808481526020016001151581525060025f8781526020019081526020015f205f8673ffffffffffffffffffffffffffffffffffffffff1673ffffffffffffffffffffffffffffffffffffffff1681526020019081526020015f205f820151815f01556020820151816001015f6101000a81548160ff0219169083151502179055509050508373ffffffffffffffffffffffffffffffffffffffff1660015f8781526020019081526020015f205f015f9054906101000a900473ffffffffffffffffffffffffffffffffffffffff1673ffffffffffffffffffffffffffffffffffffffff16867f9ffcf664651d52310aeb78c0f8382ca5078d2de7d3cf618cb5ce6e5cabf009928660405161108a919061191e565b60405180910390a45050505050565b8160015f8281526020019081526020015f206002015f9054906101000a900460ff166110fa576040517f08c379a00000000000000000000000000000000000000000000000000000000081526004016110f190611a1c565b60405180910390fd5b5f60015f8381526020019081526020015f205f015f9054906101000a900473ffffffffffffffffffffffffffffffffffffffff1690508073ffffffffffffffffffffffffffffffffffffffff163373ffffffffffffffffffffffffffffffffffffffff1614806111eb575060035f8273ffffffffffffffffffffffffffffffffffffffff1673ffffffffffffffffffffffffffffffffffffffff1681526020019081526020015f205f3373ffffffffffffffffffffffffffffffffffffffff1673ffffffffffffffffffffffffffffffffffffffff1681526020019081526020015f205f9054906101000a900460ff165b61122a576040517f08c379a000000000000000000000000000000000000000000000000000000000815260040161122190611b6f565b60405180910390fd5b60015f8581526020019081526020015f206002015f9054906101000a900460ff1661128a576040517f08c379a000000000000000000000000000000000000000000000000000000000815260040161128190611a1c565b60405180910390fd5b60405180604001604052805f81526020015f151581525060025f8681526020019081526020015f205f8573ffffffffffffffffffffffffffffffffffffffff1673ffffffffffffffffffffffffffffffffffffffff1681526020019081526020015f205f820151815f01556020820151816001015f6101000a81548160ff0219169083151502179055509050508273ffffffffffffffffffffffffffffffffffffffff1660015f8681526020019081526020015f205f015f9054906101000a900473ffffffffffffffffffffffffffffffffffffffff1673ffffffffffffffffffffffffffffffffffffffff16857f260547d4038414ef72f081dcde91825693dff9bc433178f3e92ad36e0cd2275060405160405180910390a450505050565b5f5f5f8154809291906113bc90611ff2565b91905055505f54905060405180606001604052803373ffffffffffffffffffffffffffffffffffffffff16815260200184848080601f0160208091040260200160405190810160405280939291908181526020018383808284375f81840152601f19601f8201169050808301925050505050505081526020016001151581525060015f8381526020019081526020015f205f820151815f015f6101000a81548173ffffffffffffffffffffffffffffffffffffffff021916908373ffffffffffffffffffffffffffffffffffffffff16021790555060208201518160010190816114a69190612039565b506040820151816002015f6101000a81548160ff0219169083151502179055509050503373ffffffffffffffffffffffffffffffffffffffff16817f99a9454438287bd513ed7da46fc0ff0cabc6b573eeafb583a59e01bc2e52ef908585604051611512929190611e6b565b60405180910390a392915050565b50805461152c90611a67565b5f825580601f1061153d575061155a565b601f0160209004905f5260205f2090810190611559919061155d565b5b50565b5b80821115611574575f815f90555060010161155e565b5090565b5f5ffd5b5f5ffd5b5f819050919050565b61159281611580565b811461159c575f5ffd5b50565b5f813590506115ad81611589565b92915050565b5f602082840312156115c8576115c7611578565b5b5f6115d58482850161159f565b91505092915050565b5f81519050919050565b5f82825260208201905092915050565b8281835e5f83830152505050565b5f601f19601f8301169050919050565b5f611620826115de565b61162a81856115e8565b935061163a8185602086016115f8565b61164381611606565b840191505092915050565b5f6020820190508181035f8301526116668184611616565b905092915050565b5f5ffd5b5f5ffd5b5f5ffd5b5f5f83601f84011261168f5761168e61166e565b5b8235905067ffffffffffffffff8111156116ac576116ab611672565b5b6020830191508360018202830111156116c8576116c7611676565b5b9250929050565b5f5f5f604084860312156116e6576116e5611578565b5b5f6116f38682870161159f565b935050602084013567ffffffffffffffff8111156117145761171361157c565b5b6117208682870161167a565b92509250509250925092565b5f73ffffffffffffffffffffffffffffffffffffffff82169050919050565b5f6117558261172c565b9050919050565b6117658161174b565b82525050565b5f8115159050919050565b61177f8161176b565b82525050565b5f6060820190506117985f83018661175c565b81810360208301526117aa8185611616565b90506117b96040830184611776565b949350505050565b6117ca8161174b565b81146117d4575f5ffd5b50565b5f813590506117e5816117c1565b92915050565b5f5f6040838503121561180157611800611578565b5b5f61180e8582860161159f565b925050602061181f858286016117d7565b9150509250929050565b61183281611580565b82525050565b5f60408201905061184b5f830185611829565b6118586020830184611776565b9392505050565b6118688161176b565b8114611872575f5ffd5b50565b5f813590506118838161185f565b92915050565b5f5f6040838503121561189f5761189e611578565b5b5f6118ac858286016117d7565b92505060206118bd85828601611875565b9150509250929050565b5f5f604083850312156118dd576118dc611578565b5b5f6118ea858286016117d7565b92505060206118fb858286016117d7565b9150509250929050565b5f6020820190506119185f830184611776565b92915050565b5f6020820190506119315f830184611829565b92915050565b5f5f5f6060848603121561194e5761194d611578565b5b5f61195b8682870161159f565b935050602061196c868287016117d7565b925050604061197d8682870161159f565b9150509250925092565b5f5f6020838503121561199d5761199c611578565b5b5f83013567ffffffffffffffff8111156119ba576119b961157c565b5b6119c68582860161167a565b92509250509250929050565b7f5265636f726420646f6573206e6f7420657869737400000000000000000000005f82015250565b5f611a066015836115e8565b9150611a11826119d2565b602082019050919050565b5f6020820190508181035f830152611a33816119fa565b9050919050565b7f4e487b71000000000000000000000000000000000000000000000000000000005f52602260045260245ffd5b5f6002820490506001821680611a7e57607f821691505b602082108103611a9157611a90611a3a565b5b50919050565b7f4e6f2061636365737320746f207265636f7264000000000000000000000000005f82015250565b5f611acb6013836115e8565b9150611ad682611a97565b602082019050919050565b5f6020820190508181035f830152611af881611abf565b9050919050565b7f4e6f742070617469656e74206e6f7220617070726f766564206f70657261746f5f8201527f7200000000000000000000000000000000000000000000000000000000000000602082015250565b5f611b596021836115e8565b9150611b6482611aff565b604082019050919050565b5f6020820190508181035f830152611b8681611b4d565b9050919050565b5f82905092915050565b7f4e487b71000000000000000000000000000000000000000000000000000000005f52604160045260245ffd5b5f819050815f5260205f209050919050565b5f6020601f8301049050919050565b5f82821b905092915050565b5f60088302611c207fffffffffffffffffffffffffffffffffffffffffffffffffffffffffffffffff82611be5565b611c2a8683611be5565b95508019841693508086168417925050509392505050565b5f819050919050565b5f611c65611c60611c5b84611580565b611c42565b611580565b9050919050565b5f819050919050565b611c7e83611c4b565b611c92611c8a82611c6c565b848454611bf1565b825550505050565b5f5f905090565b611ca9611c9a565b611cb4818484611c75565b505050565b5b81811015611cd757611ccc5f82611ca1565b600181019050611cba565b5050565b601f821115611d1c57611ced81611bc4565b611cf684611bd6565b81016020851015611d05578190505b611d19611d1185611bd6565b830182611cb9565b50505b505050565b5f82821c905092915050565b5f611d3c5f1984600802611d21565b1980831691505092915050565b5f611d548383611d2d565b9150826002028217905092915050565b611d6e8383611b8d565b67ffffffffffffffff811115611d8757611d86611b97565b5b611d918254611a67565b611d9c828285611cdb565b5f601f831160018114611dc9575f8415611db7578287013590505b611dc18582611d49565b865550611e28565b601f198416611dd786611bc4565b5f5b82811015611dfe57848901358255600182019150602085019450602081019050611dd9565b86831015611e1b5784890135611e17601f891682611d2d565b8355505b6001600288020188555050505b50505050505050565b828183375f83830152505050565b5f611e4a83856115e8565b9350611e57838584611e31565b611e6083611606565b840190509392505050565b5f6020820190508181035f830152611e84818486611e3f565b90509392505050565b7f4e6f74207265636f7264206f776e6572000000000000000000000000000000005f82015250565b5f611ec16010836115e8565b9150611ecc82611e8d565b602082019050919050565b5f6020820190508181035f830152611eee81611eb5565b9050919050565b7f496e76616c69642070726f7669646572000000000000000000000000000000005f82015250565b5f611f296010836115e8565b9150611f3482611ef5565b602082019050919050565b5f6020820190508181035f830152611f5681611f1d565b9050919050565b7f657870697265734174206d75737420626520696e2074686520667574757265005f82015250565b5f611f91601f836115e8565b9150611f9c82611f5d565b602082019050919050565b5f6020820190508181035f830152611fbe81611f85565b9050919050565b7f4e487b71000000000000000000000000000000000000000000000000000000005f52601160045260245ffd5b5f611ffc82611580565b91507fffffffffffffffffffffffffffffffffffffffffffffffffffffffffffffffff820361202e5761202d611fc5565b5b600182019050919050565b612042826115de565b67ffffffffffffffff81111561205b5761205a611b97565b5b6120658254611a67565b612070828285611cdb565b5f60209050601f8311600181146120a1575f841561208f578287015190505b6120998582611d49565b865550612100565b601f1984166120af86611bc4565b5f5b828110156120d6578489015182556001820191506020850194506020810190506120b1565b868310156120f357848901516120ef601f891682611d2d565b8355505b6001600288020188555050505b50505050505056fea26469706673582212209222020640a8725dbfc589f758044626fbfcb186d3ce83793f0b39508bac1e5564736f6c634300081e0033",
					"opcodes": "PUSH1 0x80 PUSH1 0x40 MSTORE CALLVALUE DUP1 ISZERO PUSH1 0xE JUMPI PUSH0 PUSH0 REVERT JUMPDEST POP PUSH2 0x213E DUP1 PUSH2 0x1C PUSH0 CODECOPY PUSH0 RETURN INVALID PUSH1 0x80 PUSH1 0x40 MSTORE CALLVALUE DUP1 ISZERO PUSH2 0xF JUMPI PUSH0 PUSH0 REVERT JUMPDEST POP PUSH1 0x4 CALLDATASIZE LT PUSH2 0xCD JUMPI PUSH0 CALLDATALOAD PUSH1 0xE0 SHR DUP1 PUSH4 0xA63A1098 GT PUSH2 0x8A JUMPI DUP1 PUSH4 0xCED14198 GT PUSH2 0x64 JUMPI DUP1 PUSH4 0xCED14198 EQ PUSH2 0x222 JUMPI DUP1 PUSH4 0xD603B284 EQ PUSH2 0x252 JUMPI DUP1 PUSH4 0xD9A5EC1B EQ PUSH2 0x26E JUMPI DUP1 PUSH4 0xDB70504B EQ PUSH2 0x28A JUMPI PUSH2 0xCD JUMP JUMPDEST DUP1 PUSH4 0xA63A1098 EQ PUSH2 0x1B8 JUMPI DUP1 PUSH4 0xA9FB2D81 EQ PUSH2 0x1D4 JUMPI DUP1 PUSH4 0xBD98AA8B EQ PUSH2 0x204 JUMPI PUSH2 0xCD JUMP JUMPDEST DUP1 PUSH4 0x16030146 EQ PUSH2 0xD1 JUMPI DUP1 PUSH4 0x1C631466 EQ PUSH2 0x101 JUMPI DUP1 PUSH4 0x34461067 EQ PUSH2 0x11D JUMPI DUP1 PUSH4 0x7526F517 EQ PUSH2 0x14F JUMPI DUP1 PUSH4 0x7FDC2CDC EQ PUSH2 0x180 JUMPI DUP1 PUSH4 0x8693A683 EQ PUSH2 0x19C JUMPI JUMPDEST PUSH0 PUSH0 REVERT JUMPDEST PUSH2 0xEB PUSH1 0x4 DUP1 CALLDATASIZE SUB DUP2 ADD SWAP1 PUSH2 0xE6 SWAP2 SWAP1 PUSH2 0x15B3 JUMP JUMPDEST PUSH2 0x2BA JUMP JUMPDEST PUSH1 0x40 MLOAD PUSH2 0xF8 SWAP2 SWAP1 PUSH2 0x164E JUMP JUMPDEST PUSH1 0x40 MLOAD DUP1 SWAP2 SUB SWAP1 RETURN JUMPDEST PUSH2 0x11B PUSH1 0x4 DUP1 CALLDATASIZE SUB DUP2 ADD SWAP1 PUSH2 0x116 SWAP2 SWAP1 PUSH2 0x16CF JUMP JUMPDEST PUSH2 0x515 JUMP JUMPDEST STOP JUMPDEST PUSH2 0x137 PUSH1 0x4 DUP1 CALLDATASIZE SUB DUP2 ADD SWAP1 PUSH2 0x132 SWAP2 SWAP1 PUSH2 0x15B3 JUMP JUMPDEST PUSH2 0x754 JUMP JUMPDEST PUSH1 0x40 MLOAD PUSH2 0x146 SWAP4 SWAP3 SWAP2 SWAP1 PUSH2 0x1785 JUMP JUMPDEST PUSH1 0x40 MLOAD DUP1 SWAP2 SUB SWAP1 RETURN JUMPDEST PUSH2 0x169 PUSH1 0x4 DUP1 CALLDATASIZE SUB DUP2 ADD SWAP1 PUSH2 0x164 SWAP2 SWAP1 PUSH2 0x17EB JUMP JUMPDEST PUSH2 0x82B JUMP JUMPDEST PUSH1 0x40 MLOAD PUSH2 0x177 SWAP3 SWAP2 SWAP1 PUSH2 0x1838 JUMP JUMPDEST PUSH1 0x40 MLOAD DUP1 SWAP2 SUB SWAP1 RETURN JUMPDEST PUSH2 0x19A PUSH1 0x4 DUP1 CALLDATASIZE SUB DUP2 ADD SWAP1 PUSH2 0x195 SWAP2 SWAP1 PUSH2 0x15B3 JUMP JUMPDEST PUSH2 0x862 JUMP JUMPDEST STOP JUMPDEST PUSH2 0x1B6 PUSH1 0x4 DUP1 CALLDATASIZE SUB DUP2 ADD SWAP1 PUSH2 0x1B1 SWAP2 SWAP1 PUSH2 0x15B3 JUMP JUMPDEST PUSH2 0x95D JUMP JUMPDEST STOP JUMPDEST PUSH2 0x1D2 PUSH1 0x4 DUP1 CALLDATASIZE SUB DUP2 ADD SWAP1 PUSH2 0x1CD SWAP2 SWAP1 PUSH2 0x1889 JUMP JUMPDEST PUSH2 0xB01 JUMP JUMPDEST STOP JUMPDEST PUSH2 0x1EE PUSH1 0x4 DUP1 CALLDATASIZE SUB DUP2 ADD SWAP1 PUSH2 0x1E9 SWAP2 SWAP1 PUSH2 0x18C7 JUMP JUMPDEST PUSH2 0xBF9 JUMP JUMPDEST PUSH1 0x40 MLOAD PUSH2 0x1FB SWAP2 SWAP1 PUSH2 0x1905 JUMP JUMPDEST PUSH1 0x40 MLOAD DUP1 SWAP2 SUB SWAP1 RETURN JUMPDEST PUSH2 0x20C PUSH2 0xC23 JUMP JUMPDEST PUSH1 0x40 MLOAD PUSH2 0x219 SWAP2 SWAP1 PUSH2 0x191E JUMP JUMPDEST PUSH1 0x40 MLOAD DUP1 SWAP2 SUB SWAP1 RETURN JUMPDEST PUSH2 0x23C PUSH1 0x4 DUP1 CALLDATASIZE SUB DUP2 ADD SWAP1 PUSH2 0x237 SWAP2 SWAP1 PUSH2 0x17EB JUMP JUMPDEST PUSH2 0xC2B JUMP JUMPDEST PUSH1 0x40 MLOAD PUSH2 0x249 SWAP2 SWAP1 PUSH2 0x1905 JUMP JUMPDEST PUSH1 0x40 MLOAD DUP1 SWAP2 SUB SWAP1 RETURN JUMPDEST PUSH2 0x26C PUSH1 0x4 DUP1 CALLDATASIZE SUB DUP2 ADD SWAP1 PUSH2 0x267 SWAP2 SWAP1 PUSH2 0x1937 JUMP JUMPDEST PUSH2 0xCCB JUMP JUMPDEST STOP JUMPDEST PUSH2 0x288 PUSH1 0x4 DUP1 CALLDATASIZE SUB DUP2 ADD SWAP1 PUSH2 0x283 SWAP2 SWAP1 PUSH2 0x17EB JUMP JUMPDEST PUSH2 0x1099 JUMP JUMPDEST STOP JUMPDEST PUSH2 0x2A4 PUSH1 0x4 DUP1 CALLDATASIZE SUB DUP2 ADD SWAP1 PUSH2 0x29F SWAP2 SWAP1 PUSH2 0x1987 JUMP JUMPDEST PUSH2 0x13AA JUMP JUMPDEST PUSH1 0x40 MLOAD PUSH2 0x2B1 SWAP2 SWAP1 PUSH2 0x191E JUMP JUMPDEST PUSH1 0x40 MLOAD DUP1 SWAP2 SUB SWAP1 RETURN JUMPDEST PUSH1 0x60 PUSH1 0x1 PUSH0 DUP4 DUP2 MSTORE PUSH1 0x20 ADD SWAP1 DUP2 MSTORE PUSH1 0x20 ADD PUSH0 KECCAK256 PUSH1 0x2 ADD PUSH0 SWAP1 SLOAD SWAP1 PUSH2 0x100 EXP SWAP1 DIV PUSH1 0xFF AND PUSH2 0x31C JUMPI PUSH1 0x40 MLOAD PUSH32 0x8C379A000000000000000000000000000000000000000000000000000000000 DUP2 MSTORE PUSH1 0x4 ADD PUSH2 0x313 SWAP1 PUSH2 0x1A1C JUMP JUMPDEST PUSH1 0x40 MLOAD DUP1 SWAP2 SUB SWAP1 REVERT JUMPDEST PUSH0 PUSH1 0x1 PUSH0 DUP5 DUP2 MSTORE PUSH1 0x20 ADD SWAP1 DUP2 MSTORE PUSH1 0x20 ADD PUSH0 KECCAK256 PUSH0 ADD PUSH0 SWAP1 SLOAD SWAP1 PUSH2 0x100 EXP SWAP1 DIV PUSH20 0xFFFFFFFFFFFFFFFFFFFFFFFFFFFFFFFFFFFFFFFF AND SWAP1 POP DUP1 PUSH20 0xFFFFFFFFFFFFFFFFFFFFFFFFFFFFFFFFFFFFFFFF AND CALLER PUSH20 0xFFFFFFFFFFFFFFFFFFFFFFFFFFFFFFFFFFFFFFFF AND SUB PUSH2 0x428 JUMPI PUSH1 0x1 PUSH0 DUP5 DUP2 MSTORE PUSH1 0x20 ADD SWAP1 DUP2 MSTORE PUSH1 0x20 ADD PUSH0 KECCAK256 PUSH1 0x1 ADD DUP1 SLOAD PUSH2 0x3A4 SWAP1 PUSH2 0x1A67 JUMP JUMPDEST DUP1 PUSH1 0x1F ADD PUSH1 0x20 DUP1 SWAP2 DIV MUL PUSH1 0x20 ADD PUSH1 0x40 MLOAD SWAP1 DUP2 ADD PUSH1 0x40 MSTORE DUP1 SWAP3 SWAP2 SWAP1 DUP2 DUP2 MSTORE PUSH1 0x20 ADD DUP3 DUP1 SLOAD PUSH2 0x3D0 SWAP1 PUSH2 0x1A67 JUMP JUMPDEST DUP1 ISZERO PUSH2 0x41B JUMPI DUP1 PUSH1 0x1F LT PUSH2 0x3F2 JUMPI PUSH2 0x100 DUP1 DUP4 SLOAD DIV MUL DUP4 MSTORE SWAP2 PUSH1 0x20 ADD SWAP2 PUSH2 0x41B JUMP JUMPDEST DUP3 ADD SWAP2 SWAP1 PUSH0 MSTORE PUSH1 0x20 PUSH0 KECCAK256 SWAP1 JUMPDEST DUP2 SLOAD DUP2 MSTORE SWAP1 PUSH1 0x1 ADD SWAP1 PUSH1 0x20 ADD DUP1 DUP4 GT PUSH2 0x3FE JUMPI DUP3 SWAP1 SUB PUSH1 0x1F AND DUP3 ADD SWAP2 JUMPDEST POP POP POP POP POP SWAP2 POP POP PUSH2 0x510 JUMP JUMPDEST PUSH2 0x432 DUP4 CALLER PUSH2 0xC2B JUMP JUMPDEST PUSH2 0x471 JUMPI PUSH1 0x40 MLOAD PUSH32 0x8C379A000000000000000000000000000000000000000000000000000000000 DUP2 MSTORE PUSH1 0x4 ADD PUSH2 0x468 SWAP1 PUSH2 0x1AE1 JUMP JUMPDEST PUSH1 0x40 MLOAD DUP1 SWAP2 SUB SWAP1 REVERT JUMPDEST PUSH1 0x1 PUSH0 DUP5 DUP2 MSTORE PUSH1 0x20 ADD SWAP1 DUP2 MSTORE PUSH1 0x20 ADD PUSH0 KECCAK256 PUSH1 0x1 ADD DUP1 SLOAD PUSH2 0x490 SWAP1 PUSH2 0x1A67 JUMP JUMPDEST DUP1 PUSH1 0x1F ADD PUSH1 0x20 DUP1 SWAP2 DIV MUL PUSH1 0x20 ADD PUSH1 0x40 MLOAD SWAP1 DUP2 ADD PUSH1 0x40 MSTORE DUP1 SWAP3 SWAP2 SWAP1 DUP2 DUP2 MSTORE PUSH1 0x20 ADD DUP3 DUP1 SLOAD PUSH2 0x4BC SWAP1 PUSH2 0x1A67 JUMP JUMPDEST DUP1 ISZERO PUSH2 0x507 JUMPI DUP1 PUSH1 0x1F LT PUSH2 0x4DE JUMPI PUSH2 0x100 DUP1 DUP4 SLOAD DIV MUL DUP4 MSTORE SWAP2 PUSH1 0x20 ADD SWAP2 PUSH2 0x507 JUMP JUMPDEST DUP3 ADD SWAP2 SWAP1 PUSH0 MSTORE PUSH1 0x20 PUSH0 KECCAK256 SWAP1 JUMPDEST DUP2 SLOAD DUP2 MSTORE SWAP1 PUSH1 0x1 ADD SWAP1 PUSH1 0x20 ADD DUP1 DUP4 GT PUSH2 0x4EA JUMPI DUP3 SWAP1 SUB PUSH1 0x1F AND DUP3 ADD SWAP2 JUMPDEST POP POP POP POP POP SWAP2 POP POP JUMPDEST SWAP2 SWAP1 POP JUMP JUMPDEST DUP3 PUSH1 0x1 PUSH0 DUP3 DUP2 MSTORE PUSH1 0x20 ADD SWAP1 DUP2 MSTORE PUSH1 0x20 ADD PUSH0 KECCAK256 PUSH1 0x2 ADD PUSH0 SWAP1 SLOAD SWAP1 PUSH2 0x100 EXP SWAP1 DIV PUSH1 0xFF AND PUSH2 0x576 JUMPI PUSH1 0x40 MLOAD PUSH32 0x8C379A000000000000000000000000000000000000000000000000000000000 DUP2 MSTORE PUSH1 0x4 ADD PUSH2 0x56D SWAP1 PUSH2 0x1A1C JUMP JUMPDEST PUSH1 0x40 MLOAD DUP1 SWAP2 SUB SWAP1 REVERT JUMPDEST PUSH0 PUSH1 0x1 PUSH0 DUP4 DUP2 MSTORE PUSH1 0x20 ADD SWAP1 DUP2 MSTORE PUSH1 0x20 ADD PUSH0 KECCAK256 PUSH0 ADD PUSH0 SWAP1 SLOAD SWAP1 PUSH2 0x100 EXP SWAP1 DIV PUSH20 0xFFFFFFFFFFFFFFFFFFFFFFFFFFFFFFFFFFFFFFFF AND SWAP1 POP DUP1 PUSH20 0xFFFFFFFFFFFFFFFFFFFFFFFFFFFFFFFFFFFFFFFF AND CALLER PUSH20 0xFFFFFFFFFFFFFFFFFFFFFFFFFFFFFFFFFFFFFFFF AND EQ DUP1 PUSH2 0x667 JUMPI POP PUSH1 0x3 PUSH0 DUP3 PUSH20 0xFFFFFFFFFFFFFFFFFFFFFFFFFFFFFFFFFFFFFFFF AND PUSH20 0xFFFFFFFFFFFFFFFFFFFFFFFFFFFFFFFFFFFFFFFF AND DUP2 MSTORE PUSH1 0x20 ADD SWAP1 DUP2 MSTORE PUSH1 0x20 ADD PUSH0 KECCAK256 PUSH0 CALLER PUSH20 0xFFFFFFFFFFFFFFFFFFFFFFFFFFFFFFFFFFFFFFFF AND PUSH20 0xFFFFFFFFFFFFFFFFFFFFFFFFFFFFFFFFFFFFFFFF AND DUP2 MSTORE PUSH1 0x20 ADD SWAP1 DUP2 MSTORE PUSH1 0x20 ADD PUSH0 KECCAK256 PUSH0 SWAP1 SLOAD SWAP1 PUSH2 0x100 EXP SWAP1 DIV PUSH1 0xFF AND JUMPDEST PUSH2 0x6A6 JUMPI PUSH1 0x40 MLOAD PUSH32 0x8C379A000000000000000000000000000000000000000000000000000000000 DUP2 MSTORE PUSH1 0x4 ADD PUSH2 0x69D SWAP1 PUSH2 0x1B6F JUMP JUMPDEST PUSH1 0x40 MLOAD DUP1 SWAP2 SUB SWAP1 REVERT JUMPDEST DUP4 DUP4 PUSH1 0x1 PUSH0 DUP9 DUP2 MSTORE PUSH1 0x20 ADD SWAP1 DUP2 MSTORE PUSH1 0x20 ADD PUSH0 KECCAK256 PUSH1 0x1 ADD SWAP2 DUP3 PUSH2 0x6C9 SWAP3 SWAP2 SWAP1 PUSH2 0x1D64 JUMP JUMPDEST POP PUSH1 0x1 PUSH0 DUP7 DUP2 MSTORE PUSH1 0x20 ADD SWAP1 DUP2 MSTORE PUSH1 0x20 ADD PUSH0 KECCAK256 PUSH0 ADD PUSH0 SWAP1 SLOAD SWAP1 PUSH2 0x100 EXP SWAP1 DIV PUSH20 0xFFFFFFFFFFFFFFFFFFFFFFFFFFFFFFFFFFFFFFFF AND PUSH20 0xFFFFFFFFFFFFFFFFFFFFFFFFFFFFFFFFFFFFFFFF AND DUP6 PUSH32 0xD448FA896AF10B43D8077624E4DAD9299F15DCA1958F0F5A554DC66D68E9E4EE DUP7 DUP7 PUSH1 0x40 MLOAD PUSH2 0x745 SWAP3 SWAP2 SWAP1 PUSH2 0x1E6B JUMP JUMPDEST PUSH1 0x40 MLOAD DUP1 SWAP2 SUB SWAP1 LOG3 POP POP POP POP POP JUMP JUMPDEST PUSH1 0x1 PUSH1 0x20 MSTORE DUP1 PUSH0 MSTORE PUSH1 0x40 PUSH0 KECCAK256 PUSH0 SWAP2 POP SWAP1 POP DUP1 PUSH0 ADD PUSH0 SWAP1 SLOAD SWAP1 PUSH2 0x100 EXP SWAP1 DIV PUSH20 0xFFFFFFFFFFFFFFFFFFFFFFFFFFFFFFFFFFFFFFFF AND SWAP1 DUP1 PUSH1 0x1 ADD DUP1 SLOAD PUSH2 0x798 SWAP1 PUSH2 0x1A67 JUMP JUMPDEST DUP1 PUSH1 0x1F ADD PUSH1 0x20 DUP1 SWAP2 DIV MUL PUSH1 0x20 ADD PUSH1 0x40 MLOAD SWAP1 DUP2 ADD PUSH1 0x40 MSTORE DUP1 SWAP3 SWAP2 SWAP1 DUP2 DUP2 MSTORE PUSH1 0x20 ADD DUP3 DUP1 SLOAD PUSH2 0x7C4 SWAP1 PUSH2 0x1A67 JUMP JUMPDEST DUP1 ISZERO PUSH2 0x80F JUMPI DUP1 PUSH1 0x1F LT PUSH2 0x7E6 JUMPI PUSH2 0x100 DUP1 DUP4 SLOAD DIV MUL DUP4 MSTORE SWAP2 PUSH1 0x20 ADD SWAP2 PUSH2 0x80F JUMP JUMPDEST DUP3 ADD SWAP2 SWAP1 PUSH0 MSTORE PUSH1 0x20 PUSH0 KECCAK256 SWAP1 JUMPDEST DUP2 SLOAD DUP2 MSTORE SWAP1 PUSH1 0x1 ADD SWAP1 PUSH1 0x20 ADD DUP1 DUP4 GT PUSH2 0x7F2 JUMPI DUP3 SWAP1 SUB PUSH1 0x1F AND DUP3 ADD SWAP2 JUMPDEST POP POP POP POP POP SWAP1 DUP1 PUSH1 0x2 ADD PUSH0 SWAP1 SLOAD SWAP1 PUSH2 0x100 EXP SWAP1 DIV PUSH1 0xFF AND SWAP1 POP DUP4 JUMP JUMPDEST PUSH1 0x2 PUSH1 0x20 MSTORE DUP2 PUSH0 MSTORE PUSH1 0x40 PUSH0 KECCAK256 PUSH1 0x20 MSTORE DUP1 PUSH0 MSTORE PUSH1 0x40 PUSH0 KECCAK256 PUSH0 SWAP2 POP SWAP2 POP POP DUP1 PUSH0 ADD SLOAD SWAP1 DUP1 PUSH1 0x1 ADD PUSH0 SWAP1 SLOAD SWAP1 PUSH2 0x100 EXP SWAP1 DIV PUSH1 0xFF AND SWAP1 POP DUP3 JUMP JUMPDEST PUSH1 0x1 PUSH0 DUP3 DUP2 MSTORE PUSH1 0x20 ADD SWAP1 DUP2 MSTORE PUSH1 0x20 ADD PUSH0 KECCAK256 PUSH1 0x2 ADD PUSH0 SWAP1 SLOAD SWAP1 PUSH2 0x100 EXP SWAP1 DIV PUSH1 0xFF AND PUSH2 0x8C2 JUMPI PUSH1 0x40 MLOAD PUSH32 0x8C379A000000000000000000000000000000000000000000000000000000000 DUP2 MSTORE PUSH1 0x4 ADD PUSH2 0x8B9 SWAP1 PUSH2 0x1A1C JUMP JUMPDEST PUSH1 0x40 MLOAD DUP1 SWAP2 SUB SWAP1 REVERT JUMPDEST PUSH1 0x1 PUSH0 DUP3 DUP2 MSTORE PUSH1 0x20 ADD SWAP1 DUP2 MSTORE PUSH1 0x20 ADD PUSH0 KECCAK256 PUSH0 ADD PUSH0 SWAP1 SLOAD SWAP1 PUSH2 0x100 EXP SWAP1 DIV PUSH20 0xFFFFFFFFFFFFFFFFFFFFFFFFFFFFFFFFFFFFFFFF AND PUSH20 0xFFFFFFFFFFFFFFFFFFFFFFFFFFFFFFFFFFFFFFFF AND CALLER PUSH20 0xFFFFFFFFFFFFFFFFFFFFFFFFFFFFFFFFFFFFFFFF AND DUP3 PUSH32 0xD62937245F876EB48076464AB0F1DF7295B17A2E93B4B75B4DA096404632AED4 TIMESTAMP PUSH1 0x40 MLOAD PUSH2 0x952 SWAP2 SWAP1 PUSH2 0x191E JUMP JUMPDEST PUSH1 0x40 MLOAD DUP1 SWAP2 SUB SWAP1 LOG4 POP JUMP JUMPDEST DUP1 PUSH1 0x1 PUSH0 DUP3 DUP2 MSTORE PUSH1 0x20 ADD SWAP1 DUP2 MSTORE PUSH1 0x20 ADD PUSH0 KECCAK256 PUSH1 0x2 ADD PUSH0 SWAP1 SLOAD SWAP1 PUSH2 0x100 EXP SWAP1 DIV PUSH1 0xFF AND PUSH2 0x9BE JUMPI PUSH1 0x40 MLOAD PUSH32 0x8C379A000000000000000000000000000000000000000000000000000000000 DUP2 MSTORE PUSH1 0x4 ADD PUSH2 0x9B5 SWAP1 PUSH2 0x1A1C JUMP JUMPDEST PUSH1 0x40 MLOAD DUP1 SWAP2 SUB SWAP1 REVERT JUMPDEST CALLER PUSH20 0xFFFFFFFFFFFFFFFFFFFFFFFFFFFFFFFFFFFFFFFF AND PUSH1 0x1 PUSH0 DUP4 DUP2 MSTORE PUSH1 0x20 ADD SWAP1 DUP2 MSTORE PUSH1 0x20 ADD PUSH0 KECCAK256 PUSH0 ADD PUSH0 SWAP1 SLOAD SWAP1 PUSH2 0x100 EXP SWAP1 DIV PUSH20 0xFFFFFFFFFFFFFFFFFFFFFFFFFFFFFFFFFFFFFFFF AND PUSH20 0xFFFFFFFFFFFFFFFFFFFFFFFFFFFFFFFFFFFFFFFF AND EQ PUSH2 0xA5E JUMPI PUSH1 0x40 MLOAD PUSH32 0x8C379A000000000000000000000000000000000000000000000000000000000 DUP2 MSTORE PUSH1 0x4 ADD PUSH2 0xA55 SWAP1 PUSH2 0x1ED7 JUMP JUMPDEST PUSH1 0x40 MLOAD DUP1 SWAP2 SUB SWAP1 REVERT JUMPDEST PUSH1 0x1 PUSH0 DUP4 DUP2 MSTORE PUSH1 0x20 ADD SWAP1 DUP2 MSTORE PUSH1 0x20 ADD PUSH0 KECCAK256 PUSH0 PUSH0 DUP3 ADD PUSH0 PUSH2 0x100 EXP DUP2 SLOAD SWAP1 PUSH20 0xFFFFFFFFFFFFFFFFFFFFFFFFFFFFFFFFFFFFFFFF MUL NOT AND SWAP1 SSTORE PUSH1 0x1 DUP3 ADD PUSH0 PUSH2 0xAA4 SWAP2 SWAP1 PUSH2 0x1520 JUMP JUMPDEST PUSH1 0x2 DUP3 ADD PUSH0 PUSH2 0x100 EXP DUP2 SLOAD SWAP1 PUSH1 0xFF MUL NOT AND SWAP1 SSTORE POP POP CALLER PUSH20 0xFFFFFFFFFFFFFFFFFFFFFFFFFFFFFFFFFFFFFFFF AND DUP3 PUSH32 0x5F0C26152E348A4E21E023FFA27B58D6019F813F280F27CE5A1C4EC6C6BBB018 PUSH1 0x40 MLOAD PUSH1 0x40 MLOAD DUP1 SWAP2 SUB SWAP1 LOG3 POP POP JUMP JUMPDEST DUP1 PUSH1 0x3 PUSH0 CALLER PUSH20 0xFFFFFFFFFFFFFFFFFFFFFFFFFFFFFFFFFFFFFFFF AND PUSH20 0xFFFFFFFFFFFFFFFFFFFFFFFFFFFFFFFFFFFFFFFF AND DUP2 MSTORE PUSH1 0x20 ADD SWAP1 DUP2 MSTORE PUSH1 0x20 ADD PUSH0 KECCAK256 PUSH0 DUP5 PUSH20 0xFFFFFFFFFFFFFFFFFFFFFFFFFFFFFFFFFFFFFFFF AND PUSH20 0xFFFFFFFFFFFFFFFFFFFFFFFFFFFFFFFFFFFFFFFF AND DUP2 MSTORE PUSH1 0x20 ADD SWAP1 DUP2 MSTORE PUSH1 0x20 ADD PUSH0 KECCAK256 PUSH0 PUSH2 0x100 EXP DUP2 SLOAD DUP2 PUSH1 0xFF MUL NOT AND SWAP1 DUP4 ISZERO ISZERO MUL OR SWAP1 SSTORE POP DUP2 PUSH20 0xFFFFFFFFFFFFFFFFFFFFFFFFFFFFFFFFFFFFFFFF AND CALLER PUSH20 0xFFFFFFFFFFFFFFFFFFFFFFFFFFFFFFFFFFFFFFFF AND PUSH32 0x42EF3A6445090AF5F522BF393E8D432B01EB65949F6E2BCA70984E3630B63777 DUP4 PUSH1 0x40 MLOAD PUSH2 0xBED SWAP2 SWAP1 PUSH2 0x1905 JUMP JUMPDEST PUSH1 0x40 MLOAD DUP1 SWAP2 SUB SWAP1 LOG3 POP POP JUMP JUMPDEST PUSH1 0x3 PUSH1 0x20 MSTORE DUP2 PUSH0 MSTORE PUSH1 0x40 PUSH0 KECCAK256 PUSH1 0x20 MSTORE DUP1 PUSH0 MSTORE PUSH1 0x40 PUSH0 KECCAK256 PUSH0 SWAP2 POP SWAP2 POP SWAP1 SLOAD SWAP1 PUSH2 0x100 EXP SWAP1 DIV PUSH1 0xFF AND DUP2 JUMP JUMPDEST PUSH0 PUSH0 SLOAD SWAP1 POP SWAP1 JUMP JUMPDEST PUSH0 PUSH0 PUSH1 0x2 PUSH0 DUP6 DUP2 MSTORE PUSH1 0x20 ADD SWAP1 DUP2 MSTORE PUSH1 0x20 ADD PUSH0 KECCAK256 PUSH0 DUP5 PUSH20 0xFFFFFFFFFFFFFFFFFFFFFFFFFFFFFFFFFFFFFFFF AND PUSH20 0xFFFFFFFFFFFFFFFFFFFFFFFFFFFFFFFFFFFFFFFF AND DUP2 MSTORE PUSH1 0x20 ADD SWAP1 DUP2 MSTORE PUSH1 0x20 ADD PUSH0 KECCAK256 PUSH1 0x40 MLOAD DUP1 PUSH1 0x40 ADD PUSH1 0x40 MSTORE SWAP1 DUP2 PUSH0 DUP3 ADD SLOAD DUP2 MSTORE PUSH1 0x20 ADD PUSH1 0x1 DUP3 ADD PUSH0 SWAP1 SLOAD SWAP1 PUSH2 0x100 EXP SWAP1 DIV PUSH1 0xFF AND ISZERO ISZERO ISZERO ISZERO DUP2 MSTORE POP POP SWAP1 POP DUP1 PUSH1 0x20 ADD MLOAD PUSH2 0xCBB JUMPI PUSH0 SWAP2 POP POP PUSH2 0xCC5 JUMP JUMPDEST TIMESTAMP DUP2 PUSH0 ADD MLOAD GT SWAP2 POP POP JUMPDEST SWAP3 SWAP2 POP POP JUMP JUMPDEST DUP3 PUSH1 0x1 PUSH0 DUP3 DUP2 MSTORE PUSH1 0x20 ADD SWAP1 DUP2 MSTORE PUSH1 0x20 ADD PUSH0 KECCAK256 PUSH1 0x2 ADD PUSH0 SWAP1 SLOAD SWAP1 PUSH2 0x100 EXP SWAP1 DIV PUSH1 0xFF AND PUSH2 0xD2C JUMPI PUSH1 0x40 MLOAD PUSH32 0x8C379A000000000000000000000000000000000000000000000000000000000 DUP2 MSTORE PUSH1 0x4 ADD PUSH2 0xD23 SWAP1 PUSH2 0x1A1C JUMP JUMPDEST PUSH1 0x40 MLOAD DUP1 SWAP2 SUB SWAP1 REVERT JUMPDEST PUSH0 PUSH1 0x1 PUSH0 DUP4 DUP2 MSTORE PUSH1 0x20 ADD SWAP1 DUP2 MSTORE PUSH1 0x20 ADD PUSH0 KECCAK256 PUSH0 ADD PUSH0 SWAP1 SLOAD SWAP1 PUSH2 0x100 EXP SWAP1 DIV PUSH20 0xFFFFFFFFFFFFFFFFFFFFFFFFFFFFFFFFFFFFFFFF AND SWAP1 POP DUP1 PUSH20 0xFFFFFFFFFFFFFFFFFFFFFFFFFFFFFFFFFFFFFFFF AND CALLER PUSH20 0xFFFFFFFFFFFFFFFFFFFFFFFFFFFFFFFFFFFFFFFF AND EQ DUP1 PUSH2 0xE1D JUMPI POP PUSH1 0x3 PUSH0 DUP3 PUSH20 0xFFFFFFFFFFFFFFFFFFFFFFFFFFFFFFFFFFFFFFFF AND PUSH20 0xFFFFFFFFFFFFFFFFFFFFFFFFFFFFFFFFFFFFFFFF AND DUP2 MSTORE PUSH1 0x20 ADD SWAP1 DUP2 MSTORE PUSH1 0x20 ADD PUSH0 KECCAK256 PUSH0 CALLER PUSH20 0xFFFFFFFFFFFFFFFFFFFFFFFFFFFFFFFFFFFFFFFF AND PUSH20 0xFFFFFFFFFFFFFFFFFFFFFFFFFFFFFFFFFFFFFFFF AND DUP2 MSTORE PUSH1 0x20 ADD SWAP1 DUP2 MSTORE PUSH1 0x20 ADD PUSH0 KECCAK256 PUSH0 SWAP1 SLOAD SWAP1 PUSH2 0x100 EXP SWAP1 DIV PUSH1 0xFF AND JUMPDEST PUSH2 0xE5C JUMPI PUSH1 0x40 MLOAD PUSH32 0x8C379A000000000000000000000000000000000000000000000000000000000 DUP2 MSTORE PUSH1 0x4 ADD PUSH2 0xE53 SWAP1 PUSH2 0x1B6F JUMP JUMPDEST PUSH1 0x40 MLOAD DUP1 SWAP2 SUB SWAP1 REVERT JUMPDEST PUSH0 PUSH20 0xFFFFFFFFFFFFFFFFFFFFFFFFFFFFFFFFFFFFFFFF AND DUP5 PUSH20 0xFFFFFFFFFFFFFFFFFFFFFFFFFFFFFFFFFFFFFFFF AND SUB PUSH2 0xECA JUMPI PUSH1 0x40 MLOAD PUSH32 0x8C379A000000000000000000000000000000000000000000000000000000000 DUP2 MSTORE PUSH1 0x4 ADD PUSH2 0xEC1 SWAP1 PUSH2 0x1F3F JUMP JUMPDEST PUSH1 0x40 MLOAD DUP1 SWAP2 SUB SWAP1 REVERT JUMPDEST PUSH1 0x1 PUSH0 DUP7 DUP2 MSTORE PUSH1 0x20 ADD SWAP1 DUP2 MSTORE PUSH1 0x20 ADD PUSH0 KECCAK256 PUSH1 0x2 ADD PUSH0 SWAP1 SLOAD SWAP1 PUSH2 0x100 EXP SWAP1 DIV PUSH1 0xFF AND PUSH2 0xF2A JUMPI PUSH1 0x40 MLOAD PUSH32 0x8C379A000000000000000000000000000000000000000000000000000000000 DUP2 MSTORE PUSH1 0x4 ADD PUSH2 0xF21 SWAP1 PUSH2 0x1A1C JUMP JUMPDEST PUSH1 0x40 MLOAD DUP1 SWAP2 SUB SWAP1 REVERT JUMPDEST TIMESTAMP DUP4 GT PUSH2 0xF6C JUMPI PUSH1 0x40 MLOAD PUSH32 0x8C379A000000000000000000000000000000000000000000000000000000000 DUP2 MSTORE PUSH1 0x4 ADD PUSH2 0xF63 SWAP1 PUSH2 0x1FA7 JUMP JUMPDEST PUSH1 0x40 MLOAD DUP1 SWAP2 SUB SWAP1 REVERT JUMPDEST PUSH1 0x40 MLOAD DUP1 PUSH1 0x40 ADD PUSH1 0x40 MSTORE DUP1 DUP5 DUP2 MSTORE PUSH1 0x20 ADD PUSH1 0x1 ISZERO ISZERO DUP2 MSTORE POP PUSH1 0x2 PUSH0 DUP8 DUP2 MSTORE PUSH1 0x20 ADD SWAP1 DUP2 MSTORE PUSH1 0x20 ADD PUSH0 KECCAK256 PUSH0 DUP7 PUSH20 0xFFFFFFFFFFFFFFFFFFFFFFFFFFFFFFFFFFFFFFFF AND PUSH20 0xFFFFFFFFFFFFFFFFFFFFFFFFFFFFFFFFFFFFFFFF AND DUP2 MSTORE PUSH1 0x20 ADD SWAP1 DUP2 MSTORE PUSH1 0x20 ADD PUSH0 KECCAK256 PUSH0 DUP3 ADD MLOAD DUP2 PUSH0 ADD SSTORE PUSH1 0x20 DUP3 ADD MLOAD DUP2 PUSH1 0x1 ADD PUSH0 PUSH2 0x100 EXP DUP2 SLOAD DUP2 PUSH1 0xFF MUL NOT AND SWAP1 DUP4 ISZERO ISZERO MUL OR SWAP1 SSTORE POP SWAP1 POP POP DUP4 PUSH20 0xFFFFFFFFFFFFFFFFFFFFFFFFFFFFFFFFFFFFFFFF AND PUSH1 0x1 PUSH0 DUP8 DUP2 MSTORE PUSH1 0x20 ADD SWAP1 DUP2 MSTORE PUSH1 0x20 ADD PUSH0 KECCAK256 PUSH0 ADD PUSH0 SWAP1 SLOAD SWAP1 PUSH2 0x100 EXP SWAP1 DIV PUSH20 0xFFFFFFFFFFFFFFFFFFFFFFFFFFFFFFFFFFFFFFFF AND PUSH20 0xFFFFFFFFFFFFFFFFFFFFFFFFFFFFFFFFFFFFFFFF AND DUP7 PUSH32 0x9FFCF664651D52310AEB78C0F8382CA5078D2DE7D3CF618CB5CE6E5CABF00992 DUP7 PUSH1 0x40 MLOAD PUSH2 0x108A SWAP2 SWAP1 PUSH2 0x191E JUMP JUMPDEST PUSH1 0x40 MLOAD DUP1 SWAP2 SUB SWAP1 LOG4 POP POP POP POP POP JUMP JUMPDEST DUP2 PUSH1 0x1 PUSH0 DUP3 DUP2 MSTORE PUSH1 0x20 ADD SWAP1 DUP2 MSTORE PUSH1 0x20 ADD PUSH0 KECCAK256 PUSH1 0x2 ADD PUSH0 SWAP1 SLOAD SWAP1 PUSH2 0x100 EXP SWAP1 DIV PUSH1 0xFF AND PUSH2 0x10FA JUMPI PUSH1 0x40 MLOAD PUSH32 0x8C379A000000000000000000000000000000000000000000000000000000000 DUP2 MSTORE PUSH1 0x4 ADD PUSH2 0x10F1 SWAP1 PUSH2 0x1A1C JUMP JUMPDEST PUSH1 0x40 MLOAD DUP1 SWAP2 SUB SWAP1 REVERT JUMPDEST PUSH0 PUSH1 0x1 PUSH0 DUP4 DUP2 MSTORE PUSH1 0x20 ADD SWAP1 DUP2 MSTORE PUSH1 0x20 ADD PUSH0 KECCAK256 PUSH0 ADD PUSH0 SWAP1 SLOAD SWAP1 PUSH2 0x100 EXP SWAP1 DIV PUSH20 0xFFFFFFFFFFFFFFFFFFFFFFFFFFFFFFFFFFFFFFFF AND SWAP1 POP DUP1 PUSH20 0xFFFFFFFFFFFFFFFFFFFFFFFFFFFFFFFFFFFFFFFF AND CALLER PUSH20 0xFFFFFFFFFFFFFFFFFFFFFFFFFFFFFFFFFFFFFFFF AND EQ DUP1 PUSH2 0x11EB JUMPI POP PUSH1 0x3 PUSH0 DUP3 PUSH20 0xFFFFFFFFFFFFFFFFFFFFFFFFFFFFFFFFFFFFFFFF AND PUSH20 0xFFFFFFFFFFFFFFFFFFFFFFFFFFFFFFFFFFFFFFFF AND DUP2 MSTORE PUSH1 0x20 ADD SWAP1 DUP2 MSTORE PUSH1 0x20 ADD PUSH0 KECCAK256 PUSH0 CALLER PUSH20 0xFFFFFFFFFFFFFFFFFFFFFFFFFFFFFFFFFFFFFFFF AND PUSH20 0xFFFFFFFFFFFFFFFFFFFFFFFFFFFFFFFFFFFFFFFF AND DUP2 MSTORE PUSH1 0x20 ADD SWAP1 DUP2 MSTORE PUSH1 0x20 ADD PUSH0 KECCAK256 PUSH0 SWAP1 SLOAD SWAP1 PUSH2 0x100 EXP SWAP1 DIV PUSH1 0xFF AND JUMPDEST PUSH2 0x122A JUMPI PUSH1 0x40 MLOAD PUSH32 0x8C379A000000000000000000000000000000000000000000000000000000000 DUP2 MSTORE PUSH1 0x4 ADD PUSH2 0x1221 SWAP1 PUSH2 0x1B6F JUMP JUMPDEST PUSH1 0x40 MLOAD DUP1 SWAP2 SUB SWAP1 REVERT JUMPDEST PUSH1 0x1 PUSH0 DUP6 DUP2 MSTORE PUSH1 0x20 ADD SWAP1 DUP2 MSTORE PUSH1 0x20 ADD PUSH0 KECCAK256 PUSH1 0x2 ADD PUSH0 SWAP1 SLOAD SWAP1 PUSH2 0x100 EXP SWAP1 DIV PUSH1 0xFF AND PUSH2 0x128A JUMPI PUSH1 0x40 MLOAD PUSH32 0x8C379A000000000000000000000000000000000000000000000000000000000 DUP2 MSTORE PUSH1 0x4 ADD PUSH2 0x1281 SWAP1 PUSH2 0x1A1C JUMP JUMPDEST PUSH1 0x40 MLOAD DUP1 SWAP2 SUB SWAP1 REVERT JUMPDEST PUSH1 0x40 MLOAD DUP1 PUSH1 0x40 ADD PUSH1 0x40 MSTORE DUP1 PUSH0 DUP2 MSTORE PUSH1 0x20 ADD PUSH0 ISZERO ISZERO DUP2 MSTORE POP PUSH1 0x2 PUSH0 DUP7 DUP2 MSTORE PUSH1 0x20 ADD SWAP1 DUP2 MSTORE PUSH1 0x20 ADD PUSH0 KECCAK256 PUSH0 DUP6 PUSH20 0xFFFFFFFFFFFFFFFFFFFFFFFFFFFFFFFFFFFFFFFF AND PUSH20 0xFFFFFFFFFFFFFFFFFFFFFFFFFFFFFFFFFFFFFFFF AND DUP2 MSTORE PUSH1 0x20 ADD SWAP1 DUP2 MSTORE PUSH1 0x20 ADD PUSH0 KECCAK256 PUSH0 DUP3 ADD MLOAD DUP2 PUSH0 ADD SSTORE PUSH1 0x20 DUP3 ADD MLOAD DUP2 PUSH1 0x1 ADD PUSH0 PUSH2 0x100 EXP DUP2 SLOAD DUP2 PUSH1 0xFF MUL NOT AND SWAP1 DUP4 ISZERO ISZERO MUL OR SWAP1 SSTORE POP SWAP1 POP POP DUP3 PUSH20 0xFFFFFFFFFFFFFFFFFFFFFFFFFFFFFFFFFFFFFFFF AND PUSH1 0x1 PUSH0 DUP7 DUP2 MSTORE PUSH1 0x20 ADD SWAP1 DUP2 MSTORE PUSH1 0x20 ADD PUSH0 KECCAK256 PUSH0 ADD PUSH0 SWAP1 SLOAD SWAP1 PUSH2 0x100 EXP SWAP1 DIV PUSH20 0xFFFFFFFFFFFFFFFFFFFFFFFFFFFFFFFFFFFFFFFF AND PUSH20 0xFFFFFFFFFFFFFFFFFFFFFFFFFFFFFFFFFFFFFFFF AND DUP6 PUSH32 0x260547D4038414EF72F081DCDE91825693DFF9BC433178F3E92AD36E0CD22750 PUSH1 0x40 MLOAD PUSH1 0x40 MLOAD DUP1 SWAP2 SUB SWAP1 LOG4 POP POP POP POP JUMP JUMPDEST PUSH0 PUSH0 PUSH0 DUP2 SLOAD DUP1 SWAP3 SWAP2 SWAP1 PUSH2 0x13BC SWAP1 PUSH2 0x1FF2 JUMP JUMPDEST SWAP2 SWAP1 POP SSTORE POP PUSH0 SLOAD SWAP1 POP PUSH1 0x40 MLOAD DUP1 PUSH1 0x60 ADD PUSH1 0x40 MSTORE DUP1 CALLER PUSH20 0xFFFFFFFFFFFFFFFFFFFFFFFFFFFFFFFFFFFFFFFF AND DUP2 MSTORE PUSH1 0x20 ADD DUP5 DUP5 DUP1 DUP1 PUSH1 0x1F ADD PUSH1 0x20 DUP1 SWAP2 DIV MUL PUSH1 0x20 ADD PUSH1 0x40 MLOAD SWAP1 DUP2 ADD PUSH1 0x40 MSTORE DUP1 SWAP4 SWAP3 SWAP2 SWAP1 DUP2 DUP2 MSTORE PUSH1 0x20 ADD DUP4 DUP4 DUP1 DUP3 DUP5 CALLDATACOPY PUSH0 DUP2 DUP5 ADD MSTORE PUSH1 0x1F NOT PUSH1 0x1F DUP3 ADD AND SWAP1 POP DUP1 DUP4 ADD SWAP3 POP POP POP POP POP POP POP DUP2 MSTORE PUSH1 0x20 ADD PUSH1 0x1 ISZERO ISZERO DUP2 MSTORE POP PUSH1 0x1 PUSH0 DUP4 DUP2 MSTORE PUSH1 0x20 ADD SWAP1 DUP2 MSTORE PUSH1 0x20 ADD PUSH0 KECCAK256 PUSH0 DUP3 ADD MLOAD DUP2 PUSH0 ADD PUSH0 PUSH2 0x100 EXP DUP2 SLOAD DUP2 PUSH20 0xFFFFFFFFFFFFFFFFFFFFFFFFFFFFFFFFFFFFFFFF MUL NOT AND SWAP1 DUP4 PUSH20 0xFFFFFFFFFFFFFFFFFFFFFFFFFFFFFFFFFFFFFFFF AND MUL OR SWAP1 SSTORE POP PUSH1 0x20 DUP3 ADD MLOAD DUP2 PUSH1 0x1 ADD SWAP1 DUP2 PUSH2 0x14A6 SWAP2 SWAP1 PUSH2 0x2039 JUMP JUMPDEST POP PUSH1 0x40 DUP3 ADD MLOAD DUP2 PUSH1 0x2 ADD PUSH0 PUSH2 0x100 EXP DUP2 SLOAD DUP2 PUSH1 0xFF MUL NOT AND SWAP1 DUP4 ISZERO ISZERO MUL OR SWAP1 SSTORE POP SWAP1 POP POP CALLER PUSH20 0xFFFFFFFFFFFFFFFFFFFFFFFFFFFFFFFFFFFFFFFF AND DUP2 PUSH32 0x99A9454438287BD513ED7DA46FC0FF0CABC6B573EEAFB583A59E01BC2E52EF90 DUP6 DUP6 PUSH1 0x40 MLOAD PUSH2 0x1512 SWAP3 SWAP2 SWAP1 PUSH2 0x1E6B JUMP JUMPDEST PUSH1 0x40 MLOAD DUP1 SWAP2 SUB SWAP1 LOG3 SWAP3 SWAP2 POP POP JUMP JUMPDEST POP DUP1 SLOAD PUSH2 0x152C SWAP1 PUSH2 0x1A67 JUMP JUMPDEST PUSH0 DUP3 SSTORE DUP1 PUSH1 0x1F LT PUSH2 0x153D JUMPI POP PUSH2 0x155A JUMP JUMPDEST PUSH1 0x1F ADD PUSH1 0x20 SWAP1 DIV SWAP1 PUSH0 MSTORE PUSH1 0x20 PUSH0 KECCAK256 SWAP1 DUP2 ADD SWAP1 PUSH2 0x1559 SWAP2 SWAP1 PUSH2 0x155D JUMP JUMPDEST JUMPDEST POP JUMP JUMPDEST JUMPDEST DUP1 DUP3 GT ISZERO PUSH2 0x1574 JUMPI PUSH0 DUP2 PUSH0 SWAP1 SSTORE POP PUSH1 0x1 ADD PUSH2 0x155E JUMP JUMPDEST POP SWAP1 JUMP JUMPDEST PUSH0 PUSH0 REVERT JUMPDEST PUSH0 PUSH0 REVERT JUMPDEST PUSH0 DUP2 SWAP1 POP SWAP2 SWAP1 POP JUMP JUMPDEST PUSH2 0x1592 DUP2 PUSH2 0x1580 JUMP JUMPDEST DUP2 EQ PUSH2 0x159C JUMPI PUSH0 PUSH0 REVERT JUMPDEST POP JUMP JUMPDEST PUSH0 DUP2 CALLDATALOAD SWAP1 POP PUSH2 0x15AD DUP2 PUSH2 0x1589 JUMP JUMPDEST SWAP3 SWAP2 POP POP JUMP JUMPDEST PUSH0 PUSH1 0x20 DUP3 DUP5 SUB SLT ISZERO PUSH2 0x15C8 JUMPI PUSH2 0x15C7 PUSH2 0x1578 JUMP JUMPDEST JUMPDEST PUSH0 PUSH2 0x15D5 DUP5 DUP3 DUP6 ADD PUSH2 0x159F JUMP JUMPDEST SWAP2 POP POP SWAP3 SWAP2 POP POP JUMP JUMPDEST PUSH0 DUP2 MLOAD SWAP1 POP SWAP2 SWAP1 POP JUMP JUMPDEST PUSH0 DUP3 DUP3 MSTORE PUSH1 0x20 DUP3 ADD SWAP1 POP SWAP3 SWAP2 POP POP JUMP JUMPDEST DUP3 DUP2 DUP4 MCOPY PUSH0 DUP4 DUP4 ADD MSTORE POP POP POP JUMP JUMPDEST PUSH0 PUSH1 0x1F NOT PUSH1 0x1F DUP4 ADD AND SWAP1 POP SWAP2 SWAP1 POP JUMP JUMPDEST PUSH0 PUSH2 0x1620 DUP3 PUSH2 0x15DE JUMP JUMPDEST PUSH2 0x162A DUP2 DUP6 PUSH2 0x15E8 JUMP JUMPDEST SWAP4 POP PUSH2 0x163A DUP2 DUP6 PUSH1 0x20 DUP7 ADD PUSH2 0x15F8 JUMP JUMPDEST PUSH2 0x1643 DUP2 PUSH2 0x1606 JUMP JUMPDEST DUP5 ADD SWAP2 POP POP SWAP3 SWAP2 POP POP JUMP JUMPDEST PUSH0 PUSH1 0x20 DUP3 ADD SWAP1 POP DUP2 DUP2 SUB PUSH0 DUP4 ADD MSTORE PUSH2 0x1666 DUP2 DUP5 PUSH2 0x1616 JUMP JUMPDEST SWAP1 POP SWAP3 SWAP2 POP POP JUMP JUMPDEST PUSH0 PUSH0 REVERT JUMPDEST PUSH0 PUSH0 REVERT JUMPDEST PUSH0 PUSH0 REVERT JUMPDEST PUSH0 PUSH0 DUP4 PUSH1 0x1F DUP5 ADD SLT PUSH2 0x168F JUMPI PUSH2 0x168E PUSH2 0x166E JUMP JUMPDEST JUMPDEST DUP3 CALLDATALOAD SWAP1 POP PUSH8 0xFFFFFFFFFFFFFFFF DUP2 GT ISZERO PUSH2 0x16AC JUMPI PUSH2 0x16AB PUSH2 0x1672 JUMP JUMPDEST JUMPDEST PUSH1 0x20 DUP4 ADD SWAP2 POP DUP4 PUSH1 0x1 DUP3 MUL DUP4 ADD GT ISZERO PUSH2 0x16C8 JUMPI PUSH2 0x16C7 PUSH2 0x1676 JUMP JUMPDEST JUMPDEST SWAP3 POP SWAP3 SWAP1 POP JUMP JUMPDEST PUSH0 PUSH0 PUSH0 PUSH1 0x40 DUP5 DUP7 SUB SLT ISZERO PUSH2 0x16E6 JUMPI PUSH2 0x16E5 PUSH2 0x1578 JUMP JUMPDEST JUMPDEST PUSH0 PUSH2 0x16F3 DUP7 DUP3 DUP8 ADD PUSH2 0x159F JUMP JUMPDEST SWAP4 POP POP PUSH1 0x20 DUP5 ADD CALLDATALOAD PUSH8 0xFFFFFFFFFFFFFFFF DUP2 GT ISZERO PUSH2 0x1714 JUMPI PUSH2 0x1713 PUSH2 0x157C JUMP JUMPDEST JUMPDEST PUSH2 0x1720 DUP7 DUP3 DUP8 ADD PUSH2 0x167A JUMP JUMPDEST SWAP3 POP SWAP3 POP POP SWAP3 POP SWAP3 POP SWAP3 JUMP JUMPDEST PUSH0 PUSH20 0xFFFFFFFFFFFFFFFFFFFFFFFFFFFFFFFFFFFFFFFF DUP3 AND SWAP1 POP SWAP2 SWAP1 POP JUMP JUMPDEST PUSH0 PUSH2 0x1755 DUP3 PUSH2 0x172C JUMP JUMPDEST SWAP1 POP SWAP2 SWAP1 POP JUMP JUMPDEST PUSH2 0x1765 DUP2 PUSH2 0x174B JUMP JUMPDEST DUP3 MSTORE POP POP JUMP JUMPDEST PUSH0 DUP2 ISZERO ISZERO SWAP1 POP SWAP2 SWAP1 POP JUMP JUMPDEST PUSH2 0x177F DUP2 PUSH2 0x176B JUMP JUMPDEST DUP3 MSTORE POP POP JUMP JUMPDEST PUSH0 PUSH1 0x60 DUP3 ADD SWAP1 POP PUSH2 0x1798 PUSH0 DUP4 ADD DUP7 PUSH2 0x175C JUMP JUMPDEST DUP2 DUP2 SUB PUSH1 0x20 DUP4 ADD MSTORE PUSH2 0x17AA DUP2 DUP6 PUSH2 0x1616 JUMP JUMPDEST SWAP1 POP PUSH2 0x17B9 PUSH1 0x40 DUP4 ADD DUP5 PUSH2 0x1776 JUMP JUMPDEST SWAP5 SWAP4 POP POP POP POP JUMP JUMPDEST PUSH2 0x17CA DUP2 PUSH2 0x174B JUMP JUMPDEST DUP2 EQ PUSH2 0x17D4 JUMPI PUSH0 PUSH0 REVERT JUMPDEST POP JUMP JUMPDEST PUSH0 DUP2 CALLDATALOAD SWAP1 POP PUSH2 0x17E5 DUP2 PUSH2 0x17C1 JUMP JUMPDEST SWAP3 SWAP2 POP POP JUMP JUMPDEST PUSH0 PUSH0 PUSH1 0x40 DUP4 DUP6 SUB SLT ISZERO PUSH2 0x1801 JUMPI PUSH2 0x1800 PUSH2 0x1578 JUMP JUMPDEST JUMPDEST PUSH0 PUSH2 0x180E DUP6 DUP3 DUP7 ADD PUSH2 0x159F JUMP JUMPDEST SWAP3 POP POP PUSH1 0x20 PUSH2 0x181F DUP6 DUP3 DUP7 ADD PUSH2 0x17D7 JUMP JUMPDEST SWAP2 POP POP SWAP3 POP SWAP3 SWAP1 POP JUMP JUMPDEST PUSH2 0x1832 DUP2 PUSH2 0x1580 JUMP JUMPDEST DUP3 MSTORE POP POP JUMP JUMPDEST PUSH0 PUSH1 0x40 DUP3 ADD SWAP1 POP PUSH2 0x184B PUSH0 DUP4 ADD DUP6 PUSH2 0x1829 JUMP JUMPDEST PUSH2 0x1858 PUSH1 0x20 DUP4 ADD DUP5 PUSH2 0x1776 JUMP JUMPDEST SWAP4 SWAP3 POP POP POP JUMP JUMPDEST PUSH2 0x1868 DUP2 PUSH2 0x176B JUMP JUMPDEST DUP2 EQ PUSH2 0x1872 JUMPI PUSH0 PUSH0 REVERT JUMPDEST POP JUMP JUMPDEST PUSH0 DUP2 CALLDATALOAD SWAP1 POP PUSH2 0x1883 DUP2 PUSH2 0x185F JUMP JUMPDEST SWAP3 SWAP2 POP POP JUMP JUMPDEST PUSH0 PUSH0 PUSH1 0x40 DUP4 DUP6 SUB SLT ISZERO PUSH2 0x189F JUMPI PUSH2 0x189E PUSH2 0x1578 JUMP JUMPDEST JUMPDEST PUSH0 PUSH2 0x18AC DUP6 DUP3 DUP7 ADD PUSH2 0x17D7 JUMP JUMPDEST SWAP3 POP POP PUSH1 0x20 PUSH2 0x18BD DUP6 DUP3 DUP7 ADD PUSH2 0x1875 JUMP JUMPDEST SWAP2 POP POP SWAP3 POP SWAP3 SWAP1 POP JUMP JUMPDEST PUSH0 PUSH0 PUSH1 0x40 DUP4 DUP6 SUB SLT ISZERO PUSH2 0x18DD JUMPI PUSH2 0x18DC PUSH2 0x1578 JUMP JUMPDEST JUMPDEST PUSH0 PUSH2 0x18EA DUP6 DUP3 DUP7 ADD PUSH2 0x17D7 JUMP JUMPDEST SWAP3 POP POP PUSH1 0x20 PUSH2 0x18FB DUP6 DUP3 DUP7 ADD PUSH2 0x17D7 JUMP JUMPDEST SWAP2 POP POP SWAP3 POP SWAP3 SWAP1 POP JUMP JUMPDEST PUSH0 PUSH1 0x20 DUP3 ADD SWAP1 POP PUSH2 0x1918 PUSH0 DUP4 ADD DUP5 PUSH2 0x1776 JUMP JUMPDEST SWAP3 SWAP2 POP POP JUMP JUMPDEST PUSH0 PUSH1 0x20 DUP3 ADD SWAP1 POP PUSH2 0x1931 PUSH0 DUP4 ADD DUP5 PUSH2 0x1829 JUMP JUMPDEST SWAP3 SWAP2 POP POP JUMP JUMPDEST PUSH0 PUSH0 PUSH0 PUSH1 0x60 DUP5 DUP7 SUB SLT ISZERO PUSH2 0x194E JUMPI PUSH2 0x194D PUSH2 0x1578 JUMP JUMPDEST JUMPDEST PUSH0 PUSH2 0x195B DUP7 DUP3 DUP8 ADD PUSH2 0x159F JUMP JUMPDEST SWAP4 POP POP PUSH1 0x20 PUSH2 0x196C DUP7 DUP3 DUP8 ADD PUSH2 0x17D7 JUMP JUMPDEST SWAP3 POP POP PUSH1 0x40 PUSH2 0x197D DUP7 DUP3 DUP8 ADD PUSH2 0x159F JUMP JUMPDEST SWAP2 POP POP SWAP3 POP SWAP3 POP SWAP3 JUMP JUMPDEST PUSH0 PUSH0 PUSH1 0x20 DUP4 DUP6 SUB SLT ISZERO PUSH2 0x199D JUMPI PUSH2 0x199C PUSH2 0x1578 JUMP JUMPDEST JUMPDEST PUSH0 DUP4 ADD CALLDATALOAD PUSH8 0xFFFFFFFFFFFFFFFF DUP2 GT ISZERO PUSH2 0x19BA JUMPI PUSH2 0x19B9 PUSH2 0x157C JUMP JUMPDEST JUMPDEST PUSH2 0x19C6 DUP6 DUP3 DUP7 ADD PUSH2 0x167A JUMP JUMPDEST SWAP3 POP SWAP3 POP POP SWAP3 POP SWAP3 SWAP1 POP JUMP JUMPDEST PUSH32 0x5265636F726420646F6573206E6F742065786973740000000000000000000000 PUSH0 DUP3 ADD MSTORE POP JUMP JUMPDEST PUSH0 PUSH2 0x1A06 PUSH1 0x15 DUP4 PUSH2 0x15E8 JUMP JUMPDEST SWAP2 POP PUSH2 0x1A11 DUP3 PUSH2 0x19D2 JUMP JUMPDEST PUSH1 0x20 DUP3 ADD SWAP1 POP SWAP2 SWAP1 POP JUMP JUMPDEST PUSH0 PUSH1 0x20 DUP3 ADD SWAP1 POP DUP2 DUP2 SUB PUSH0 DUP4 ADD MSTORE PUSH2 0x1A33 DUP2 PUSH2 0x19FA JUMP JUMPDEST SWAP1 POP SWAP2 SWAP1 POP JUMP JUMPDEST PUSH32 0x4E487B7100000000000000000000000000000000000000000000000000000000 PUSH0 MSTORE PUSH1 0x22 PUSH1 0x4 MSTORE PUSH1 0x24 PUSH0 REVERT JUMPDEST PUSH0 PUSH1 0x2 DUP3 DIV SWAP1 POP PUSH1 0x1 DUP3 AND DUP1 PUSH2 0x1A7E JUMPI PUSH1 0x7F DUP3 AND SWAP2 POP JUMPDEST PUSH1 0x20 DUP3 LT DUP2 SUB PUSH2 0x1A91 JUMPI PUSH2 0x1A90 PUSH2 0x1A3A JUMP JUMPDEST JUMPDEST POP SWAP2 SWAP1 POP JUMP JUMPDEST PUSH32 0x4E6F2061636365737320746F207265636F726400000000000000000000000000 PUSH0 DUP3 ADD MSTORE POP JUMP JUMPDEST PUSH0 PUSH2 0x1ACB PUSH1 0x13 DUP4 PUSH2 0x15E8 JUMP JUMPDEST SWAP2 POP PUSH2 0x1AD6 DUP3 PUSH2 0x1A97 JUMP JUMPDEST PUSH1 0x20 DUP3 ADD SWAP1 POP SWAP2 SWAP1 POP JUMP JUMPDEST PUSH0 PUSH1 0x20 DUP3 ADD SWAP1 POP DUP2 DUP2 SUB PUSH0 DUP4 ADD MSTORE PUSH2 0x1AF8 DUP2 PUSH2 0x1ABF JUMP JUMPDEST SWAP1 POP SWAP2 SWAP1 POP JUMP JUMPDEST PUSH32 0x4E6F742070617469656E74206E6F7220617070726F766564206F70657261746F PUSH0 DUP3 ADD MSTORE PUSH32 0x7200000000000000000000000000000000000000000000000000000000000000 PUSH1 0x20 DUP3 ADD MSTORE POP JUMP JUMPDEST PUSH0 PUSH2 0x1B59 PUSH1 0x21 DUP4 PUSH2 0x15E8 JUMP JUMPDEST SWAP2 POP PUSH2 0x1B64 DUP3 PUSH2 0x1AFF JUMP JUMPDEST PUSH1 0x40 DUP3 ADD SWAP1 POP SWAP2 SWAP1 POP JUMP JUMPDEST PUSH0 PUSH1 0x20 DUP3 ADD SWAP1 POP DUP2 DUP2 SUB PUSH0 DUP4 ADD MSTORE PUSH2 0x1B86 DUP2 PUSH2 0x1B4D JUMP JUMPDEST SWAP1 POP SWAP2 SWAP1 POP JUMP JUMPDEST PUSH0 DUP3 SWAP1 POP SWAP3 SWAP2 POP POP JUMP JUMPDEST PUSH32 0x4E487B7100000000000000000000000000000000000000000000000000000000 PUSH0 MSTORE PUSH1 0x41 PUSH1 0x4 MSTORE PUSH1 0x24 PUSH0 REVERT JUMPDEST PUSH0 DUP2 SWAP1 POP DUP2 PUSH0 MSTORE PUSH1 0x20 PUSH0 KECCAK256 SWAP1 POP SWAP2 SWAP1 POP JUMP JUMPDEST PUSH0 PUSH1 0x20 PUSH1 0x1F DUP4 ADD DIV SWAP1 POP SWAP2 SWAP1 POP JUMP JUMPDEST PUSH0 DUP3 DUP3 SHL SWAP1 POP SWAP3 SWAP2 POP POP JUMP JUMPDEST PUSH0 PUSH1 0x8 DUP4 MUL PUSH2 0x1C20 PUSH32 0xFFFFFFFFFFFFFFFFFFFFFFFFFFFFFFFFFFFFFFFFFFFFFFFFFFFFFFFFFFFFFFFF DUP3 PUSH2 0x1BE5 JUMP JUMPDEST PUSH2 0x1C2A DUP7 DUP4 PUSH2 0x1BE5 JUMP JUMPDEST SWAP6 POP DUP1 NOT DUP5 AND SWAP4 POP DUP1 DUP7 AND DUP5 OR SWAP3 POP POP POP SWAP4 SWAP3 POP POP POP JUMP JUMPDEST PUSH0 DUP2 SWAP1 POP SWAP2 SWAP1 POP JUMP JUMPDEST PUSH0 PUSH2 0x1C65 PUSH2 0x1C60 PUSH2 0x1C5B DUP5 PUSH2 0x1580 JUMP JUMPDEST PUSH2 0x1C42 JUMP JUMPDEST PUSH2 0x1580 JUMP JUMPDEST SWAP1 POP SWAP2 SWAP1 POP JUMP JUMPDEST PUSH0 DUP2 SWAP1 POP SWAP2 SWAP1 POP JUMP JUMPDEST PUSH2 0x1C7E DUP4 PUSH2 0x1C4B JUMP JUMPDEST PUSH2 0x1C92 PUSH2 0x1C8A DUP3 PUSH2 0x1C6C JUMP JUMPDEST DUP5 DUP5 SLOAD PUSH2 0x1BF1 JUMP JUMPDEST DUP3 SSTORE POP POP POP POP JUMP JUMPDEST PUSH0 PUSH0 SWAP1 POP SWAP1 JUMP JUMPDEST PUSH2 0x1CA9 PUSH2 0x1C9A JUMP JUMPDEST PUSH2 0x1CB4 DUP2 DUP5 DUP5 PUSH2 0x1C75 JUMP JUMPDEST POP POP POP JUMP JUMPDEST JUMPDEST DUP2 DUP2 LT ISZERO PUSH2 0x1CD7 JUMPI PUSH2 0x1CCC PUSH0 DUP3 PUSH2 0x1CA1 JUMP JUMPDEST PUSH1 0x1 DUP2 ADD SWAP1 POP PUSH2 0x1CBA JUMP JUMPDEST POP POP JUMP JUMPDEST PUSH1 0x1F DUP3 GT ISZERO PUSH2 0x1D1C JUMPI PUSH2 0x1CED DUP2 PUSH2 0x1BC4 JUMP JUMPDEST PUSH2 0x1CF6 DUP5 PUSH2 0x1BD6 JUMP JUMPDEST DUP2 ADD PUSH1 0x20 DUP6 LT ISZERO PUSH2 0x1D05 JUMPI DUP2 SWAP1 POP JUMPDEST PUSH2 0x1D19 PUSH2 0x1D11 DUP6 PUSH2 0x1BD6 JUMP JUMPDEST DUP4 ADD DUP3 PUSH2 0x1CB9 JUMP JUMPDEST POP POP JUMPDEST POP POP POP JUMP JUMPDEST PUSH0 DUP3 DUP3 SHR SWAP1 POP SWAP3 SWAP2 POP POP JUMP JUMPDEST PUSH0 PUSH2 0x1D3C PUSH0 NOT DUP5 PUSH1 0x8 MUL PUSH2 0x1D21 JUMP JUMPDEST NOT DUP1 DUP4 AND SWAP2 POP POP SWAP3 SWAP2 POP POP JUMP JUMPDEST PUSH0 PUSH2 0x1D54 DUP4 DUP4 PUSH2 0x1D2D JUMP JUMPDEST SWAP2 POP DUP3 PUSH1 0x2 MUL DUP3 OR SWAP1 POP SWAP3 SWAP2 POP POP JUMP JUMPDEST PUSH2 0x1D6E DUP4 DUP4 PUSH2 0x1B8D JUMP JUMPDEST PUSH8 0xFFFFFFFFFFFFFFFF DUP2 GT ISZERO PUSH2 0x1D87 JUMPI PUSH2 0x1D86 PUSH2 0x1B97 JUMP JUMPDEST JUMPDEST PUSH2 0x1D91 DUP3 SLOAD PUSH2 0x1A67 JUMP JUMPDEST PUSH2 0x1D9C DUP3 DUP3 DUP6 PUSH2 0x1CDB JUMP JUMPDEST PUSH0 PUSH1 0x1F DUP4 GT PUSH1 0x1 DUP2 EQ PUSH2 0x1DC9 JUMPI PUSH0 DUP5 ISZERO PUSH2 0x1DB7 JUMPI DUP3 DUP8 ADD CALLDATALOAD SWAP1 POP JUMPDEST PUSH2 0x1DC1 DUP6 DUP3 PUSH2 0x1D49 JUMP JUMPDEST DUP7 SSTORE POP PUSH2 0x1E28 JUMP JUMPDEST PUSH1 0x1F NOT DUP5 AND PUSH2 0x1DD7 DUP7 PUSH2 0x1BC4 JUMP JUMPDEST PUSH0 JUMPDEST DUP3 DUP2 LT ISZERO PUSH2 0x1DFE JUMPI DUP5 DUP10 ADD CALLDATALOAD DUP3 SSTORE PUSH1 0x1 DUP3 ADD SWAP2 POP PUSH1 0x20 DUP6 ADD SWAP5 POP PUSH1 0x20 DUP2 ADD SWAP1 POP PUSH2 0x1DD9 JUMP JUMPDEST DUP7 DUP4 LT ISZERO PUSH2 0x1E1B JUMPI DUP5 DUP10 ADD CALLDATALOAD PUSH2 0x1E17 PUSH1 0x1F DUP10 AND DUP3 PUSH2 0x1D2D JUMP JUMPDEST DUP4 SSTORE POP JUMPDEST PUSH1 0x1 PUSH1 0x2 DUP9 MUL ADD DUP9 SSTORE POP POP POP JUMPDEST POP POP POP POP POP POP POP JUMP JUMPDEST DUP3 DUP2 DUP4 CALLDATACOPY PUSH0 DUP4 DUP4 ADD MSTORE POP POP POP JUMP JUMPDEST PUSH0 PUSH2 0x1E4A DUP4 DUP6 PUSH2 0x15E8 JUMP JUMPDEST SWAP4 POP PUSH2 0x1E57 DUP4 DUP6 DUP5 PUSH2 0x1E31 JUMP JUMPDEST PUSH2 0x1E60 DUP4 PUSH2 0x1606 JUMP JUMPDEST DUP5 ADD SWAP1 POP SWAP4 SWAP3 POP POP POP JUMP JUMPDEST PUSH0 PUSH1 0x20 DUP3 ADD SWAP1 POP DUP2 DUP2 SUB PUSH0 DUP4 ADD MSTORE PUSH2 0x1E84 DUP2 DUP5 DUP7 PUSH2 0x1E3F JUMP JUMPDEST SWAP1 POP SWAP4 SWAP3 POP POP POP JUMP JUMPDEST PUSH32 0x4E6F74207265636F7264206F776E657200000000000000000000000000000000 PUSH0 DUP3 ADD MSTORE POP JUMP JUMPDEST PUSH0 PUSH2 0x1EC1 PUSH1 0x10 DUP4 PUSH2 0x15E8 JUMP JUMPDEST SWAP2 POP PUSH2 0x1ECC DUP3 PUSH2 0x1E8D JUMP JUMPDEST PUSH1 0x20 DUP3 ADD SWAP1 POP SWAP2 SWAP1 POP JUMP JUMPDEST PUSH0 PUSH1 0x20 DUP3 ADD SWAP1 POP DUP2 DUP2 SUB PUSH0 DUP4 ADD MSTORE PUSH2 0x1EEE DUP2 PUSH2 0x1EB5 JUMP JUMPDEST SWAP1 POP SWAP2 SWAP1 POP JUMP JUMPDEST PUSH32 0x496E76616C69642070726F766964657200000000000000000000000000000000 PUSH0 DUP3 ADD MSTORE POP JUMP JUMPDEST PUSH0 PUSH2 0x1F29 PUSH1 0x10 DUP4 PUSH2 0x15E8 JUMP JUMPDEST SWAP2 POP PUSH2 0x1F34 DUP3 PUSH2 0x1EF5 JUMP JUMPDEST PUSH1 0x20 DUP3 ADD SWAP1 POP SWAP2 SWAP1 POP JUMP JUMPDEST PUSH0 PUSH1 0x20 DUP3 ADD SWAP1 POP DUP2 DUP2 SUB PUSH0 DUP4 ADD MSTORE PUSH2 0x1F56 DUP2 PUSH2 0x1F1D JUMP JUMPDEST SWAP1 POP SWAP2 SWAP1 POP JUMP JUMPDEST PUSH32 0x657870697265734174206D75737420626520696E207468652066757475726500 PUSH0 DUP3 ADD MSTORE POP JUMP JUMPDEST PUSH0 PUSH2 0x1F91 PUSH1 0x1F DUP4 PUSH2 0x15E8 JUMP JUMPDEST SWAP2 POP PUSH2 0x1F9C DUP3 PUSH2 0x1F5D JUMP JUMPDEST PUSH1 0x20 DUP3 ADD SWAP1 POP SWAP2 SWAP1 POP JUMP JUMPDEST PUSH0 PUSH1 0x20 DUP3 ADD SWAP1 POP DUP2 DUP2 SUB PUSH0 DUP4 ADD MSTORE PUSH2 0x1FBE DUP2 PUSH2 0x1F85 JUMP JUMPDEST SWAP1 POP SWAP2 SWAP1 POP JUMP JUMPDEST PUSH32 0x4E487B7100000000000000000000000000000000000000000000000000000000 PUSH0 MSTORE PUSH1 0x11 PUSH1 0x4 MSTORE PUSH1 0x24 PUSH0 REVERT JUMPDEST PUSH0 PUSH2 0x1FFC DUP3 PUSH2 0x1580 JUMP JUMPDEST SWAP2 POP PUSH32 0xFFFFFFFFFFFFFFFFFFFFFFFFFFFFFFFFFFFFFFFFFFFFFFFFFFFFFFFFFFFFFFFF DUP3 SUB PUSH2 0x202E JUMPI PUSH2 0x202D PUSH2 0x1FC5 JUMP JUMPDEST JUMPDEST PUSH1 0x1 DUP3 ADD SWAP1 POP SWAP2 SWAP1 POP JUMP JUMPDEST PUSH2 0x2042 DUP3 PUSH2 0x15DE JUMP JUMPDEST PUSH8 0xFFFFFFFFFFFFFFFF DUP2 GT ISZERO PUSH2 0x205B JUMPI PUSH2 0x205A PUSH2 0x1B97 JUMP JUMPDEST JUMPDEST PUSH2 0x2065 DUP3 SLOAD PUSH2 0x1A67 JUMP JUMPDEST PUSH2 0x2070 DUP3 DUP3 DUP6 PUSH2 0x1CDB JUMP JUMPDEST PUSH0 PUSH1 0x20 SWAP1 POP PUSH1 0x1F DUP4 GT PUSH1 0x1 DUP2 EQ PUSH2 0x20A1 JUMPI PUSH0 DUP5 ISZERO PUSH2 0x208F JUMPI DUP3 DUP8 ADD MLOAD SWAP1 POP JUMPDEST PUSH2 0x2099 DUP6 DUP3 PUSH2 0x1D49 JUMP JUMPDEST DUP7 SSTORE POP PUSH2 0x2100 JUMP JUMPDEST PUSH1 0x1F NOT DUP5 AND PUSH2 0x20AF DUP7 PUSH2 0x1BC4 JUMP JUMPDEST PUSH0 JUMPDEST DUP3 DUP2 LT ISZERO PUSH2 0x20D6 JUMPI DUP5 DUP10 ADD MLOAD DUP3 SSTORE PUSH1 0x1 DUP3 ADD SWAP2 POP PUSH1 0x20 DUP6 ADD SWAP5 POP PUSH1 0x20 DUP2 ADD SWAP1 POP PUSH2 0x20B1 JUMP JUMPDEST DUP7 DUP4 LT ISZERO PUSH2 0x20F3 JUMPI DUP5 DUP10 ADD MLOAD PUSH2 0x20EF PUSH1 0x1F DUP10 AND DUP3 PUSH2 0x1D2D JUMP JUMPDEST DUP4 SSTORE POP JUMPDEST PUSH1 0x1 PUSH1 0x2 DUP9 MUL ADD DUP9 SSTORE POP POP POP JUMPDEST POP POP POP POP POP POP JUMP INVALID LOG2 PUSH5 0x6970667358 0x22 SLT KECCAK256 SWAP3 0x22 MUL MOD BLOCKHASH 0xA8 PUSH19 0x5DBFC589F758044626FBFCB186D3CE83793F0B CODECOPY POP DUP12 0xAC 0x1E SSTORE PUSH5 0x736F6C6343 STOP ADDMOD 0x1E STOP CALLER "
				},
				"gasEstimates": {
					"creation": {
						"codeDepositCost": "1702000",
						"executionCost": "1783",
						"totalCost": "1703783"
					},
					"external": {
						"createRecord(string)": "infinite",
						"currentRecordCounter()": "2498",
						"getRecordUri(uint256)": "infinite",
						"grantAccess(uint256,address,uint256)": "infinite",
						"grants(uint256,address)": "infinite",
						"hasAccess(uint256,address)": "5374",
						"operatorApproval(address,address)": "infinite",
						"records(uint256)": "infinite",
						"removeRecord(uint256)": "infinite",
						"requestAccess(uint256)": "infinite",
						"revokeAccess(uint256,address)": "43428",
						"setOperatorApproval(address,bool)": "infinite",
						"updateRecord(uint256,string)": "infinite"
					}
				},
				"methodIdentifiers": {
					"createRecord(string)": "db70504b",
					"currentRecordCounter()": "bd98aa8b",
					"getRecordUri(uint256)": "16030146",
					"grantAccess(uint256,address,uint256)": "d603b284",
					"grants(uint256,address)": "7526f517",
					"hasAccess(uint256,address)": "ced14198",
					"operatorApproval(address,address)": "a9fb2d81",
					"records(uint256)": "34461067",
					"removeRecord(uint256)": "8693a683",
					"requestAccess(uint256)": "7fdc2cdc",
					"revokeAccess(uint256,address)": "d9a5ec1b",
					"setOperatorApproval(address,bool)": "a63a1098",
					"updateRecord(uint256,string)": "1c631466"
				}
			},
			"storageLayout": {
				"storage": [
					{
						"astId": 16,
						"contract": "contracts/Contract.sol:PatientConsentManager",
						"label": "_recordCounter",
						"offset": 0,
						"slot": "0",
						"type": "t_uint256"
					},
					{
						"astId": 21,
						"contract": "contracts/Contract.sol:PatientConsentManager",
						"label": "records",
						"offset": 0,
						"slot": "1",
						"type": "t_mapping(t_uint256,t_struct(Record)9_storage)"
					},
					{
						"astId": 28,
						"contract": "contracts/Contract.sol:PatientConsentManager",
						"label": "grants",
						"offset": 0,
						"slot": "2",
						"type": "t_mapping(t_uint256,t_mapping(t_address,t_struct(Grant)14_storage))"
					},
					{
						"astId": 34,
						"contract": "contracts/Contract.sol:PatientConsentManager",
						"label": "operatorApproval",
						"offset": 0,
						"slot": "3",
						"type": "t_mapping(t_address,t_mapping(t_address,t_bool))"
					}
				],
				"types": {
					"t_address": {
						"encoding": "inplace",
						"label": "address",
						"numberOfBytes": "20"
					},
					"t_bool": {
						"encoding": "inplace",
						"label": "bool",
						"numberOfBytes": "1"
					},
					"t_mapping(t_address,t_bool)": {
						"encoding": "mapping",
						"key": "t_address",
						"label": "mapping(address => bool)",
						"numberOfBytes": "32",
						"value": "t_bool"
					},
					"t_mapping(t_address,t_mapping(t_address,t_bool))": {
						"encoding": "mapping",
						"key": "t_address",
						"label": "mapping(address => mapping(address => bool))",
						"numberOfBytes": "32",
						"value": "t_mapping(t_address,t_bool)"
					},
					"t_mapping(t_address,t_struct(Grant)14_storage)": {
						"encoding": "mapping",
						"key": "t_address",
						"label": "mapping(address => struct PatientConsentManager.Grant)",
						"numberOfBytes": "32",
						"value": "t_struct(Grant)14_storage"
					},
					"t_mapping(t_uint256,t_mapping(t_address,t_struct(Grant)14_storage))": {
						"encoding": "mapping",
						"key": "t_uint256",
						"label": "mapping(uint256 => mapping(address => struct PatientConsentManager.Grant))",
						"numberOfBytes": "32",
						"value": "t_mapping(t_address,t_struct(Grant)14_storage)"
					},
					"t_mapping(t_uint256,t_struct(Record)9_storage)": {
						"encoding": "mapping",
						"key": "t_uint256",
						"label": "mapping(uint256 => struct PatientConsentManager.Record)",
						"numberOfBytes": "32",
						"value": "t_struct(Record)9_storage"
					},
					"t_string_storage": {
						"encoding": "bytes",
						"label": "string",
						"numberOfBytes": "32"
					},
					"t_struct(Grant)14_storage": {
						"encoding": "inplace",
						"label": "struct PatientConsentManager.Grant",
						"members": [
							{
								"astId": 11,
								"contract": "contracts/Contract.sol:PatientConsentManager",
								"label": "expiresAt",
								"offset": 0,
								"slot": "0",
								"type": "t_uint256"
							},
							{
								"astId": 13,
								"contract": "contracts/Contract.sol:PatientConsentManager",
								"label": "allowed",
								"offset": 0,
								"slot": "1",
								"type": "t_bool"
							}
						],
						"numberOfBytes": "64"
					},
					"t_struct(Record)9_storage": {
						"encoding": "inplace",
						"label": "struct PatientConsentManager.Record",
						"members": [
							{
								"astId": 4,
								"contract": "contracts/Contract.sol:PatientConsentManager",
								"label": "owner",
								"offset": 0,
								"slot": "0",
								"type": "t_address"
							},
							{
								"astId": 6,
								"contract": "contracts/Contract.sol:PatientConsentManager",
								"label": "uri",
								"offset": 0,
								"slot": "1",
								"type": "t_string_storage"
							},
							{
								"astId": 8,
								"contract": "contracts/Contract.sol:PatientConsentManager",
								"label": "exists",
								"offset": 0,
								"slot": "2",
								"type": "t_bool"
							}
						],
						"numberOfBytes": "96"
					},
					"t_uint256": {
						"encoding": "inplace",
						"label": "uint256",
						"numberOfBytes": "32"
					}
				}
			},
			"userdoc": {
				"kind": "user",
				"methods": {
					"createRecord(string)": {
						"notice": "Create a new record pointer (only pointer stored)"
					},
					"getRecordUri(uint256)": {
						"notice": "Get the record pointer (uri). Returns uri only if caller is owner or has access."
					},
					"grantAccess(uint256,address,uint256)": {
						"notice": "Grant access to provider for a record until expiresAt (unix timestamp). Only owner/operator."
					},
					"hasAccess(uint256,address)": {
						"notice": "Check whether a provider currently has access"
					},
					"removeRecord(uint256)": {
						"notice": "Remove a record pointer. Only the owner can remove."
					},
					"requestAccess(uint256)": {
						"notice": "Provider can call this to request access (optional). Emits event so patient/operator can see requests."
					},
					"revokeAccess(uint256,address)": {
						"notice": "Revoke access to provider for a record. Only owner/operator."
					},
					"updateRecord(uint256,string)": {
						"notice": "Update record pointer. Only owner or approved operator can update."
					}
				},
				"notice": "Patients register records (pointers/hashes) and grant/revoke provider access. Events provide an auditable trail.",
				"version": 1
			}
		}
	}
}