{
	"data": {
		"bytecode": {
			"linkReferences": {},
			"object": "6080604052348015600e575f5ffd5b50611cc38061001c5f395ff3fe608060405234801561000f575f5ffd5b50600436106100a7575f3560e01c80638693a6831161006f5780638693a68314610176578063bd98aa8b14610192578063ced14198146101b0578063d603b284146101e0578063d9a5ec1b146101fc578063db70504b14610218576100a7565b806316030146146100ab5780631c631466146100db57806334461067146100f75780637526f517146101295780637fdc2cdc1461015a575b5f5ffd5b6100c560048036038101906100c0919061126c565b610248565b6040516100d29190611307565b60405180910390f35b6100f560048036038101906100f09190611388565b6104a3565b005b610111600480360381019061010c919061126c565b610651565b6040516101209392919061143e565b60405180910390f35b610143600480360381019061013e91906114a4565b610728565b6040516101519291906114f1565b60405180910390f35b610174600480360381019061016f919061126c565b61075f565b005b610190600480360381019061018b919061126c565b61085a565b005b61019a6109fe565b6040516101a79190611518565b60405180910390f35b6101ca60048036038101906101c591906114a4565b610a06565b6040516101d79190611531565b60405180910390f35b6101fa60048036038101906101f5919061154a565b610aa6565b005b610216600480360381019061021191906114a4565b610de3565b005b610232600480360381019061022d919061159a565b611063565b60405161023f9190611518565b60405180910390f35b606060015f8381526020019081526020015f206002015f9054906101000a900460ff166102aa576040517f08c379a00000000000000000000000000000000000000000000000000000000081526004016102a19061162f565b60405180910390fd5b5f60015f8481526020019081526020015f205f015f9054906101000a900473ffffffffffffffffffffffffffffffffffffffff1690508073ffffffffffffffffffffffffffffffffffffffff163373ffffffffffffffffffffffffffffffffffffffff16036103b65760015f8481526020019081526020015f2060010180546103329061167a565b80601f016020809104026020016040519081016040528092919081815260200182805461035e9061167a565b80156103a95780601f10610380576101008083540402835291602001916103a9565b820191905f5260205f20905b81548152906001019060200180831161038c57829003601f168201915b505050505091505061049e565b6103c08333610a06565b6103ff576040517f08c379a00000000000000000000000000000000000000000000000000000000081526004016103f6906116f4565b60405180910390fd5b60015f8481526020019081526020015f20600101805461041e9061167a565b80601f016020809104026020016040519081016040528092919081815260200182805461044a9061167a565b80156104955780601f1061046c57610100808354040283529160200191610495565b820191905f5260205f20905b81548152906001019060200180831161047857829003601f168201915b50505050509150505b919050565b8260015f8281526020019081526020015f206002015f9054906101000a900460ff16610504576040517f08c379a00000000000000000000000000000000000000000000000000000000081526004016104fb9061162f565b60405180910390fd5b3373ffffffffffffffffffffffffffffffffffffffff1660015f8381526020019081526020015f205f015f9054906101000a900473ffffffffffffffffffffffffffffffffffffffff1673ffffffffffffffffffffffffffffffffffffffff16146105a4576040517f08c379a000000000000000000000000000000000000000000000000000000000815260040161059b9061175c565b60405180910390fd5b828260015f8781526020019081526020015f2060010191826105c7929190611951565b5060015f8581526020019081526020015f205f015f9054906101000a900473ffffffffffffffffffffffffffffffffffffffff1673ffffffffffffffffffffffffffffffffffffffff16847fd448fa896af10b43d8077624e4dad9299f15dca1958f0f5a554dc66d68e9e4ee8585604051610643929190611a58565b60405180910390a350505050565b6001602052805f5260405f205f91509050805f015f9054906101000a900473ffffffffffffffffffffffffffffffffffffffff16908060010180546106959061167a565b80601f01602080910402602001604051908101604052809291908181526020018280546106c19061167a565b801561070c5780601f106106e35761010080835404028352916020019161070c565b820191905f5260205f20905b8154815290600101906020018083116106ef57829003601f168201915b505050505090806002015f9054906101000a900460ff16905083565b6002602052815f5260405f20602052805f5260405f205f9150915050805f015490806001015f9054906101000a900460ff16905082565b60015f8281526020019081526020015f206002015f9054906101000a900460ff166107bf576040517f08c379a00000000000000000000000000000000000000000000000000000000081526004016107b69061162f565b60405180910390fd5b60015f8281526020019081526020015f205f015f9054906101000a900473ffffffffffffffffffffffffffffffffffffffff1673ffffffffffffffffffffffffffffffffffffffff163373ffffffffffffffffffffffffffffffffffffffff16827fd62937245f876eb48076464ab0f1df7295b17a2e93b4b75b4da096404632aed44260405161084f9190611518565b60405180910390a450565b8060015f8281526020019081526020015f206002015f9054906101000a900460ff166108bb576040517f08c379a00000000000000000000000000000000000000000000000000000000081526004016108b29061162f565b60405180910390fd5b3373ffffffffffffffffffffffffffffffffffffffff1660015f8381526020019081526020015f205f015f9054906101000a900473ffffffffffffffffffffffffffffffffffffffff1673ffffffffffffffffffffffffffffffffffffffff161461095b576040517f08c379a00000000000000000000000000000000000000000000000000000000081526004016109529061175c565b60405180910390fd5b60015f8381526020019081526020015f205f5f82015f6101000a81549073ffffffffffffffffffffffffffffffffffffffff0219169055600182015f6109a191906111d9565b600282015f6101000a81549060ff021916905550503373ffffffffffffffffffffffffffffffffffffffff16827f5f0c26152e348a4e21e023ffa27b58d6019f813f280f27ce5a1c4ec6c6bbb01860405160405180910390a35050565b5f5f54905090565b5f5f60025f8581526020019081526020015f205f8473ffffffffffffffffffffffffffffffffffffffff1673ffffffffffffffffffffffffffffffffffffffff1681526020019081526020015f206040518060400160405290815f8201548152602001600182015f9054906101000a900460ff16151515158152505090508060200151610a96575f915050610aa0565b42815f0151119150505b92915050565b8260015f8281526020019081526020015f206002015f9054906101000a900460ff16610b07576040517f08c379a0000000000000000000000000000000000000000000000000000000008152600401610afe9061162f565b60405180910390fd5b3373ffffffffffffffffffffffffffffffffffffffff1660015f8381526020019081526020015f205f015f9054906101000a900473ffffffffffffffffffffffffffffffffffffffff1673ffffffffffffffffffffffffffffffffffffffff1614610ba7576040517f08c379a0000000000000000000000000000000000000000000000000000000008152600401610b9e9061175c565b60405180910390fd5b5f73ffffffffffffffffffffffffffffffffffffffff168373ffffffffffffffffffffffffffffffffffffffff1603610c15576040517f08c379a0000000000000000000000000000000000000000000000000000000008152600401610c0c90611ac4565b60405180910390fd5b60015f8581526020019081526020015f206002015f9054906101000a900460ff16610c75576040517f08c379a0000000000000000000000000000000000000000000000000000000008152600401610c6c9061162f565b60405180910390fd5b428211610cb7576040517f08c379a0000000000000000000000000000000000000000000000000000000008152600401610cae90611b2c565b60405180910390fd5b60405180604001604052808381526020016001151581525060025f8681526020019081526020015f205f8573ffffffffffffffffffffffffffffffffffffffff1673ffffffffffffffffffffffffffffffffffffffff1681526020019081526020015f205f820151815f01556020820151816001015f6101000a81548160ff0219169083151502179055509050508273ffffffffffffffffffffffffffffffffffffffff1660015f8681526020019081526020015f205f015f9054906101000a900473ffffffffffffffffffffffffffffffffffffffff1673ffffffffffffffffffffffffffffffffffffffff16857f9ffcf664651d52310aeb78c0f8382ca5078d2de7d3cf618cb5ce6e5cabf0099285604051610dd59190611518565b60405180910390a450505050565b8160015f8281526020019081526020015f206002015f9054906101000a900460ff16610e44576040517f08c379a0000000000000000000000000000000000000000000000000000000008152600401610e3b9061162f565b60405180910390fd5b3373ffffffffffffffffffffffffffffffffffffffff1660015f8381526020019081526020015f205f015f9054906101000a900473ffffffffffffffffffffffffffffffffffffffff1673ffffffffffffffffffffffffffffffffffffffff1614610ee4576040517f08c379a0000000000000000000000000000000000000000000000000000000008152600401610edb9061175c565b60405180910390fd5b60015f8481526020019081526020015f206002015f9054906101000a900460ff16610f44576040517f08c379a0000000000000000000000000000000000000000000000000000000008152600401610f3b9061162f565b60405180910390fd5b60405180604001604052805f81526020015f151581525060025f8581526020019081526020015f205f8473ffffffffffffffffffffffffffffffffffffffff1673ffffffffffffffffffffffffffffffffffffffff1681526020019081526020015f205f820151815f01556020820151816001015f6101000a81548160ff0219169083151502179055509050508173ffffffffffffffffffffffffffffffffffffffff1660015f8581526020019081526020015f205f015f9054906101000a900473ffffffffffffffffffffffffffffffffffffffff1673ffffffffffffffffffffffffffffffffffffffff16847f260547d4038414ef72f081dcde91825693dff9bc433178f3e92ad36e0cd2275060405160405180910390a4505050565b5f5f5f81548092919061107590611b77565b91905055505f54905060405180606001604052803373ffffffffffffffffffffffffffffffffffffffff16815260200184848080601f0160208091040260200160405190810160405280939291908181526020018383808284375f81840152601f19601f8201169050808301925050505050505081526020016001151581525060015f8381526020019081526020015f205f820151815f015f6101000a81548173ffffffffffffffffffffffffffffffffffffffff021916908373ffffffffffffffffffffffffffffffffffffffff160217905550602082015181600101908161115f9190611bbe565b506040820151816002015f6101000a81548160ff0219169083151502179055509050503373ffffffffffffffffffffffffffffffffffffffff16817f99a9454438287bd513ed7da46fc0ff0cabc6b573eeafb583a59e01bc2e52ef9085856040516111cb929190611a58565b60405180910390a392915050565b5080546111e59061167a565b5f825580601f106111f65750611213565b601f0160209004905f5260205f20908101906112129190611216565b5b50565b5b8082111561122d575f815f905550600101611217565b5090565b5f5ffd5b5f5ffd5b5f819050919050565b61124b81611239565b8114611255575f5ffd5b50565b5f8135905061126681611242565b92915050565b5f6020828403121561128157611280611231565b5b5f61128e84828501611258565b91505092915050565b5f81519050919050565b5f82825260208201905092915050565b8281835e5f83830152505050565b5f601f19601f8301169050919050565b5f6112d982611297565b6112e381856112a1565b93506112f38185602086016112b1565b6112fc816112bf565b840191505092915050565b5f6020820190508181035f83015261131f81846112cf565b905092915050565b5f5ffd5b5f5ffd5b5f5ffd5b5f5f83601f84011261134857611347611327565b5b8235905067ffffffffffffffff8111156113655761136461132b565b5b6020830191508360018202830111156113815761138061132f565b5b9250929050565b5f5f5f6040848603121561139f5761139e611231565b5b5f6113ac86828701611258565b935050602084013567ffffffffffffffff8111156113cd576113cc611235565b5b6113d986828701611333565b92509250509250925092565b5f73ffffffffffffffffffffffffffffffffffffffff82169050919050565b5f61140e826113e5565b9050919050565b61141e81611404565b82525050565b5f8115159050919050565b61143881611424565b82525050565b5f6060820190506114515f830186611415565b818103602083015261146381856112cf565b9050611472604083018461142f565b949350505050565b61148381611404565b811461148d575f5ffd5b50565b5f8135905061149e8161147a565b92915050565b5f5f604083850312156114ba576114b9611231565b5b5f6114c785828601611258565b92505060206114d885828601611490565b9150509250929050565b6114eb81611239565b82525050565b5f6040820190506115045f8301856114e2565b611511602083018461142f565b9392505050565b5f60208201905061152b5f8301846114e2565b92915050565b5f6020820190506115445f83018461142f565b92915050565b5f5f5f6060848603121561156157611560611231565b5b5f61156e86828701611258565b935050602061157f86828701611490565b925050604061159086828701611258565b9150509250925092565b5f5f602083850312156115b0576115af611231565b5b5f83013567ffffffffffffffff8111156115cd576115cc611235565b5b6115d985828601611333565b92509250509250929050565b7f5265636f726420646f6573206e6f7420657869737400000000000000000000005f82015250565b5f6116196015836112a1565b9150611624826115e5565b602082019050919050565b5f6020820190508181035f8301526116468161160d565b9050919050565b7f4e487b71000000000000000000000000000000000000000000000000000000005f52602260045260245ffd5b5f600282049050600182168061169157607f821691505b6020821081036116a4576116a361164d565b5b50919050565b7f4e6f2061636365737320746f207265636f7264000000000000000000000000005f82015250565b5f6116de6013836112a1565b91506116e9826116aa565b602082019050919050565b5f6020820190508181035f83015261170b816116d2565b9050919050565b7f4e6f74207265636f7264206f776e6572000000000000000000000000000000005f82015250565b5f6117466010836112a1565b915061175182611712565b602082019050919050565b5f6020820190508181035f8301526117738161173a565b9050919050565b5f82905092915050565b7f4e487b71000000000000000000000000000000000000000000000000000000005f52604160045260245ffd5b5f819050815f5260205f209050919050565b5f6020601f8301049050919050565b5f82821b905092915050565b5f6008830261180d7fffffffffffffffffffffffffffffffffffffffffffffffffffffffffffffffff826117d2565b61181786836117d2565b95508019841693508086168417925050509392505050565b5f819050919050565b5f61185261184d61184884611239565b61182f565b611239565b9050919050565b5f819050919050565b61186b83611838565b61187f61187782611859565b8484546117de565b825550505050565b5f5f905090565b611896611887565b6118a1818484611862565b505050565b5b818110156118c4576118b95f8261188e565b6001810190506118a7565b5050565b601f821115611909576118da816117b1565b6118e3846117c3565b810160208510156118f2578190505b6119066118fe856117c3565b8301826118a6565b50505b505050565b5f82821c905092915050565b5f6119295f198460080261190e565b1980831691505092915050565b5f611941838361191a565b9150826002028217905092915050565b61195b838361177a565b67ffffffffffffffff81111561197457611973611784565b5b61197e825461167a565b6119898282856118c8565b5f601f8311600181146119b6575f84156119a4578287013590505b6119ae8582611936565b865550611a15565b601f1984166119c4866117b1565b5f5b828110156119eb578489013582556001820191506020850194506020810190506119c6565b86831015611a085784890135611a04601f89168261191a565b8355505b6001600288020188555050505b50505050505050565b828183375f83830152505050565b5f611a3783856112a1565b9350611a44838584611a1e565b611a4d836112bf565b840190509392505050565b5f6020820190508181035f830152611a71818486611a2c565b90509392505050565b7f496e76616c69642070726f7669646572000000000000000000000000000000005f82015250565b5f611aae6010836112a1565b9150611ab982611a7a565b602082019050919050565b5f6020820190508181035f830152611adb81611aa2565b9050919050565b7f657870697265734174206d75737420626520696e2074686520667574757265005f82015250565b5f611b16601f836112a1565b9150611b2182611ae2565b602082019050919050565b5f6020820190508181035f830152611b4381611b0a565b9050919050565b7f4e487b71000000000000000000000000000000000000000000000000000000005f52601160045260245ffd5b5f611b8182611239565b91507fffffffffffffffffffffffffffffffffffffffffffffffffffffffffffffffff8203611bb357611bb2611b4a565b5b600182019050919050565b611bc782611297565b67ffffffffffffffff811115611be057611bdf611784565b5b611bea825461167a565b611bf58282856118c8565b5f60209050601f831160018114611c26575f8415611c14578287015190505b611c1e8582611936565b865550611c85565b601f198416611c34866117b1565b5f5b82811015611c5b57848901518255600182019150602085019450602081019050611c36565b86831015611c785784890151611c74601f89168261191a565b8355505b6001600288020188555050505b50505050505056fea2646970667358221220a3966824382c333c1f2f4e0ab2d08a4acbcd859ba44d4a93259e6ce8b032802b64736f6c634300081e0033",
			"opcodes": "PUSH1 0x80 PUSH1 0x40 MSTORE CALLVALUE DUP1 ISZERO PUSH1 0xE JUMPI PUSH0 PUSH0 REVERT JUMPDEST POP PUSH2 0x1CC3 DUP1 PUSH2 0x1C PUSH0 CODECOPY PUSH0 RETURN INVALID PUSH1 0x80 PUSH1 0x40 MSTORE CALLVALUE DUP1 ISZERO PUSH2 0xF JUMPI PUSH0 PUSH0 REVERT JUMPDEST POP PUSH1 0x4 CALLDATASIZE LT PUSH2 0xA7 JUMPI PUSH0 CALLDATALOAD PUSH1 0xE0 SHR DUP1 PUSH4 0x8693A683 GT PUSH2 0x6F JUMPI DUP1 PUSH4 0x8693A683 EQ PUSH2 0x176 JUMPI DUP1 PUSH4 0xBD98AA8B EQ PUSH2 0x192 JUMPI DUP1 PUSH4 0xCED14198 EQ PUSH2 0x1B0 JUMPI DUP1 PUSH4 0xD603B284 EQ PUSH2 0x1E0 JUMPI DUP1 PUSH4 0xD9A5EC1B EQ PUSH2 0x1FC JUMPI DUP1 PUSH4 0xDB70504B EQ PUSH2 0x218 JUMPI PUSH2 0xA7 JUMP JUMPDEST DUP1 PUSH4 0x16030146 EQ PUSH2 0xAB JUMPI DUP1 PUSH4 0x1C631466 EQ PUSH2 0xDB JUMPI DUP1 PUSH4 0x34461067 EQ PUSH2 0xF7 JUMPI DUP1 PUSH4 0x7526F517 EQ PUSH2 0x129 JUMPI DUP1 PUSH4 0x7FDC2CDC EQ PUSH2 0x15A JUMPI JUMPDEST PUSH0 PUSH0 REVERT JUMPDEST PUSH2 0xC5 PUSH1 0x4 DUP1 CALLDATASIZE SUB DUP2 ADD SWAP1 PUSH2 0xC0 SWAP2 SWAP1 PUSH2 0x126C JUMP JUMPDEST PUSH2 0x248 JUMP JUMPDEST PUSH1 0x40 MLOAD PUSH2 0xD2 SWAP2 SWAP1 PUSH2 0x1307 JUMP JUMPDEST PUSH1 0x40 MLOAD DUP1 SWAP2 SUB SWAP1 RETURN JUMPDEST PUSH2 0xF5 PUSH1 0x4 DUP1 CALLDATASIZE SUB DUP2 ADD SWAP1 PUSH2 0xF0 SWAP2 SWAP1 PUSH2 0x1388 JUMP JUMPDEST PUSH2 0x4A3 JUMP JUMPDEST STOP JUMPDEST PUSH2 0x111 PUSH1 0x4 DUP1 CALLDATASIZE SUB DUP2 ADD SWAP1 PUSH2 0x10C SWAP2 SWAP1 PUSH2 0x126C JUMP JUMPDEST PUSH2 0x651 JUMP JUMPDEST PUSH1 0x40 MLOAD PUSH2 0x120 SWAP4 SWAP3 SWAP2 SWAP1 PUSH2 0x143E JUMP JUMPDEST PUSH1 0x40 MLOAD DUP1 SWAP2 SUB SWAP1 RETURN JUMPDEST PUSH2 0x143 PUSH1 0x4 DUP1 CALLDATASIZE SUB DUP2 ADD SWAP1 PUSH2 0x13E SWAP2 SWAP1 PUSH2 0x14A4 JUMP JUMPDEST PUSH2 0x728 JUMP JUMPDEST PUSH1 0x40 MLOAD PUSH2 0x151 SWAP3 SWAP2 SWAP1 PUSH2 0x14F1 JUMP JUMPDEST PUSH1 0x40 MLOAD DUP1 SWAP2 SUB SWAP1 RETURN JUMPDEST PUSH2 0x174 PUSH1 0x4 DUP1 CALLDATASIZE SUB DUP2 ADD SWAP1 PUSH2 0x16F SWAP2 SWAP1 PUSH2 0x126C JUMP JUMPDEST PUSH2 0x75F JUMP JUMPDEST STOP JUMPDEST PUSH2 0x190 PUSH1 0x4 DUP1 CALLDATASIZE SUB DUP2 ADD SWAP1 PUSH2 0x18B SWAP2 SWAP1 PUSH2 0x126C JUMP JUMPDEST PUSH2 0x85A JUMP JUMPDEST STOP JUMPDEST PUSH2 0x19A PUSH2 0x9FE JUMP JUMPDEST PUSH1 0x40 MLOAD PUSH2 0x1A7 SWAP2 SWAP1 PUSH2 0x1518 JUMP JUMPDEST PUSH1 0x40 MLOAD DUP1 SWAP2 SUB SWAP1 RETURN JUMPDEST PUSH2 0x1CA PUSH1 0x4 DUP1 CALLDATASIZE SUB DUP2 ADD SWAP1 PUSH2 0x1C5 SWAP2 SWAP1 PUSH2 0x14A4 JUMP JUMPDEST PUSH2 0xA06 JUMP JUMPDEST PUSH1 0x40 MLOAD PUSH2 0x1D7 SWAP2 SWAP1 PUSH2 0x1531 JUMP JUMPDEST PUSH1 0x40 MLOAD DUP1 SWAP2 SUB SWAP1 RETURN JUMPDEST PUSH2 0x1FA PUSH1 0x4 DUP1 CALLDATASIZE SUB DUP2 ADD SWAP1 PUSH2 0x1F5 SWAP2 SWAP1 PUSH2 0x154A JUMP JUMPDEST PUSH2 0xAA6 JUMP JUMPDEST STOP JUMPDEST PUSH2 0x216 PUSH1 0x4 DUP1 CALLDATASIZE SUB DUP2 ADD SWAP1 PUSH2 0x211 SWAP2 SWAP1 PUSH2 0x14A4 JUMP JUMPDEST PUSH2 0xDE3 JUMP JUMPDEST STOP JUMPDEST PUSH2 0x232 PUSH1 0x4 DUP1 CALLDATASIZE SUB DUP2 ADD SWAP1 PUSH2 0x22D SWAP2 SWAP1 PUSH2 0x159A JUMP JUMPDEST PUSH2 0x1063 JUMP JUMPDEST PUSH1 0x40 MLOAD PUSH2 0x23F SWAP2 SWAP1 PUSH2 0x1518 JUMP JUMPDEST PUSH1 0x40 MLOAD DUP1 SWAP2 SUB SWAP1 RETURN JUMPDEST PUSH1 0x60 PUSH1 0x1 PUSH0 DUP4 DUP2 MSTORE PUSH1 0x20 ADD SWAP1 DUP2 MSTORE PUSH1 0x20 ADD PUSH0 KECCAK256 PUSH1 0x2 ADD PUSH0 SWAP1 SLOAD SWAP1 PUSH2 0x100 EXP SWAP1 DIV PUSH1 0xFF AND PUSH2 0x2AA JUMPI PUSH1 0x40 MLOAD PUSH32 0x8C379A000000000000000000000000000000000000000000000000000000000 DUP2 MSTORE PUSH1 0x4 ADD PUSH2 0x2A1 SWAP1 PUSH2 0x162F JUMP JUMPDEST PUSH1 0x40 MLOAD DUP1 SWAP2 SUB SWAP1 REVERT JUMPDEST PUSH0 PUSH1 0x1 PUSH0 DUP5 DUP2 MSTORE PUSH1 0x20 ADD SWAP1 DUP2 MSTORE PUSH1 0x20 ADD PUSH0 KECCAK256 PUSH0 ADD PUSH0 SWAP1 SLOAD SWAP1 PUSH2 0x100 EXP SWAP1 DIV PUSH20 0xFFFFFFFFFFFFFFFFFFFFFFFFFFFFFFFFFFFFFFFF AND SWAP1 POP DUP1 PUSH20 0xFFFFFFFFFFFFFFFFFFFFFFFFFFFFFFFFFFFFFFFF AND CALLER PUSH20 0xFFFFFFFFFFFFFFFFFFFFFFFFFFFFFFFFFFFFFFFF AND SUB PUSH2 0x3B6 JUMPI PUSH1 0x1 PUSH0 DUP5 DUP2 MSTORE PUSH1 0x20 ADD SWAP1 DUP2 MSTORE PUSH1 0x20 ADD PUSH0 KECCAK256 PUSH1 0x1 ADD DUP1 SLOAD PUSH2 0x332 SWAP1 PUSH2 0x167A JUMP JUMPDEST DUP1 PUSH1 0x1F ADD PUSH1 0x20 DUP1 SWAP2 DIV MUL PUSH1 0x20 ADD PUSH1 0x40 MLOAD SWAP1 DUP2 ADD PUSH1 0x40 MSTORE DUP1 SWAP3 SWAP2 SWAP1 DUP2 DUP2 MSTORE PUSH1 0x20 ADD DUP3 DUP1 SLOAD PUSH2 0x35E SWAP1 PUSH2 0x167A JUMP JUMPDEST DUP1 ISZERO PUSH2 0x3A9 JUMPI DUP1 PUSH1 0x1F LT PUSH2 0x380 JUMPI PUSH2 0x100 DUP1 DUP4 SLOAD DIV MUL DUP4 MSTORE SWAP2 PUSH1 0x20 ADD SWAP2 PUSH2 0x3A9 JUMP JUMPDEST DUP3 ADD SWAP2 SWAP1 PUSH0 MSTORE PUSH1 0x20 PUSH0 KECCAK256 SWAP1 JUMPDEST DUP2 SLOAD DUP2 MSTORE SWAP1 PUSH1 0x1 ADD SWAP1 PUSH1 0x20 ADD DUP1 DUP4 GT PUSH2 0x38C JUMPI DUP3 SWAP1 SUB PUSH1 0x1F AND DUP3 ADD SWAP2 JUMPDEST POP POP POP POP POP SWAP2 POP POP PUSH2 0x49E JUMP JUMPDEST PUSH2 0x3C0 DUP4 CALLER PUSH2 0xA06 JUMP JUMPDEST PUSH2 0x3FF JUMPI PUSH1 0x40 MLOAD PUSH32 0x8C379A000000000000000000000000000000000000000000000000000000000 DUP2 MSTORE PUSH1 0x4 ADD PUSH2 0x3F6 SWAP1 PUSH2 0x16F4 JUMP JUMPDEST PUSH1 0x40 MLOAD DUP1 SWAP2 SUB SWAP1 REVERT JUMPDEST PUSH1 0x1 PUSH0 DUP5 DUP2 MSTORE PUSH1 0x20 ADD SWAP1 DUP2 MSTORE PUSH1 0x20 ADD PUSH0 KECCAK256 PUSH1 0x1 ADD DUP1 SLOAD PUSH2 0x41E SWAP1 PUSH2 0x167A JUMP JUMPDEST DUP1 PUSH1 0x1F ADD PUSH1 0x20 DUP1 SWAP2 DIV MUL PUSH1 0x20 ADD PUSH1 0x40 MLOAD SWAP1 DUP2 ADD PUSH1 0x40 MSTORE DUP1 SWAP3 SWAP2 SWAP1 DUP2 DUP2 MSTORE PUSH1 0x20 ADD DUP3 DUP1 SLOAD PUSH2 0x44A SWAP1 PUSH2 0x167A JUMP JUMPDEST DUP1 ISZERO PUSH2 0x495 JUMPI DUP1 PUSH1 0x1F LT PUSH2 0x46C JUMPI PUSH2 0x100 DUP1 DUP4 SLOAD DIV MUL DUP4 MSTORE SWAP2 PUSH1 0x20 ADD SWAP2 PUSH2 0x495 JUMP JUMPDEST DUP3 ADD SWAP2 SWAP1 PUSH0 MSTORE PUSH1 0x20 PUSH0 KECCAK256 SWAP1 JUMPDEST DUP2 SLOAD DUP2 MSTORE SWAP1 PUSH1 0x1 ADD SWAP1 PUSH1 0x20 ADD DUP1 DUP4 GT PUSH2 0x478 JUMPI DUP3 SWAP1 SUB PUSH1 0x1F AND DUP3 ADD SWAP2 JUMPDEST POP POP POP POP POP SWAP2 POP POP JUMPDEST SWAP2 SWAP1 POP JUMP JUMPDEST DUP3 PUSH1 0x1 PUSH0 DUP3 DUP2 MSTORE PUSH1 0x20 ADD SWAP1 DUP2 MSTORE PUSH1 0x20 ADD PUSH0 KECCAK256 PUSH1 0x2 ADD PUSH0 SWAP1 SLOAD SWAP1 PUSH2 0x100 EXP SWAP1 DIV PUSH1 0xFF AND PUSH2 0x504 JUMPI PUSH1 0x40 MLOAD PUSH32 0x8C379A000000000000000000000000000000000000000000000000000000000 DUP2 MSTORE PUSH1 0x4 ADD PUSH2 0x4FB SWAP1 PUSH2 0x162F JUMP JUMPDEST PUSH1 0x40 MLOAD DUP1 SWAP2 SUB SWAP1 REVERT JUMPDEST CALLER PUSH20 0xFFFFFFFFFFFFFFFFFFFFFFFFFFFFFFFFFFFFFFFF AND PUSH1 0x1 PUSH0 DUP4 DUP2 MSTORE PUSH1 0x20 ADD SWAP1 DUP2 MSTORE PUSH1 0x20 ADD PUSH0 KECCAK256 PUSH0 ADD PUSH0 SWAP1 SLOAD SWAP1 PUSH2 0x100 EXP SWAP1 DIV PUSH20 0xFFFFFFFFFFFFFFFFFFFFFFFFFFFFFFFFFFFFFFFF AND PUSH20 0xFFFFFFFFFFFFFFFFFFFFFFFFFFFFFFFFFFFFFFFF AND EQ PUSH2 0x5A4 JUMPI PUSH1 0x40 MLOAD PUSH32 0x8C379A000000000000000000000000000000000000000000000000000000000 DUP2 MSTORE PUSH1 0x4 ADD PUSH2 0x59B SWAP1 PUSH2 0x175C JUMP JUMPDEST PUSH1 0x40 MLOAD DUP1 SWAP2 SUB SWAP1 REVERT JUMPDEST DUP3 DUP3 PUSH1 0x1 PUSH0 DUP8 DUP2 MSTORE PUSH1 0x20 ADD SWAP1 DUP2 MSTORE PUSH1 0x20 ADD PUSH0 KECCAK256 PUSH1 0x1 ADD SWAP2 DUP3 PUSH2 0x5C7 SWAP3 SWAP2 SWAP1 PUSH2 0x1951 JUMP JUMPDEST POP PUSH1 0x1 PUSH0 DUP6 DUP2 MSTORE PUSH1 0x20 ADD SWAP1 DUP2 MSTORE PUSH1 0x20 ADD PUSH0 KECCAK256 PUSH0 ADD PUSH0 SWAP1 SLOAD SWAP1 PUSH2 0x100 EXP SWAP1 DIV PUSH20 0xFFFFFFFFFFFFFFFFFFFFFFFFFFFFFFFFFFFFFFFF AND PUSH20 0xFFFFFFFFFFFFFFFFFFFFFFFFFFFFFFFFFFFFFFFF AND DUP5 PUSH32 0xD448FA896AF10B43D8077624E4DAD9299F15DCA1958F0F5A554DC66D68E9E4EE DUP6 DUP6 PUSH1 0x40 MLOAD PUSH2 0x643 SWAP3 SWAP2 SWAP1 PUSH2 0x1A58 JUMP JUMPDEST PUSH1 0x40 MLOAD DUP1 SWAP2 SUB SWAP1 LOG3 POP POP POP POP JUMP JUMPDEST PUSH1 0x1 PUSH1 0x20 MSTORE DUP1 PUSH0 MSTORE PUSH1 0x40 PUSH0 KECCAK256 PUSH0 SWAP2 POP SWAP1 POP DUP1 PUSH0 ADD PUSH0 SWAP1 SLOAD SWAP1 PUSH2 0x100 EXP SWAP1 DIV PUSH20 0xFFFFFFFFFFFFFFFFFFFFFFFFFFFFFFFFFFFFFFFF AND SWAP1 DUP1 PUSH1 0x1 ADD DUP1 SLOAD PUSH2 0x695 SWAP1 PUSH2 0x167A JUMP JUMPDEST DUP1 PUSH1 0x1F ADD PUSH1 0x20 DUP1 SWAP2 DIV MUL PUSH1 0x20 ADD PUSH1 0x40 MLOAD SWAP1 DUP2 ADD PUSH1 0x40 MSTORE DUP1 SWAP3 SWAP2 SWAP1 DUP2 DUP2 MSTORE PUSH1 0x20 ADD DUP3 DUP1 SLOAD PUSH2 0x6C1 SWAP1 PUSH2 0x167A JUMP JUMPDEST DUP1 ISZERO PUSH2 0x70C JUMPI DUP1 PUSH1 0x1F LT PUSH2 0x6E3 JUMPI PUSH2 0x100 DUP1 DUP4 SLOAD DIV MUL DUP4 MSTORE SWAP2 PUSH1 0x20 ADD SWAP2 PUSH2 0x70C JUMP JUMPDEST DUP3 ADD SWAP2 SWAP1 PUSH0 MSTORE PUSH1 0x20 PUSH0 KECCAK256 SWAP1 JUMPDEST DUP2 SLOAD DUP2 MSTORE SWAP1 PUSH1 0x1 ADD SWAP1 PUSH1 0x20 ADD DUP1 DUP4 GT PUSH2 0x6EF JUMPI DUP3 SWAP1 SUB PUSH1 0x1F AND DUP3 ADD SWAP2 JUMPDEST POP POP POP POP POP SWAP1 DUP1 PUSH1 0x2 ADD PUSH0 SWAP1 SLOAD SWAP1 PUSH2 0x100 EXP SWAP1 DIV PUSH1 0xFF AND SWAP1 POP DUP4 JUMP JUMPDEST PUSH1 0x2 PUSH1 0x20 MSTORE DUP2 PUSH0 MSTORE PUSH1 0x40 PUSH0 KECCAK256 PUSH1 0x20 MSTORE DUP1 PUSH0 MSTORE PUSH1 0x40 PUSH0 KECCAK256 PUSH0 SWAP2 POP SWAP2 POP POP DUP1 PUSH0 ADD SLOAD SWAP1 DUP1 PUSH1 0x1 ADD PUSH0 SWAP1 SLOAD SWAP1 PUSH2 0x100 EXP SWAP1 DIV PUSH1 0xFF AND SWAP1 POP DUP3 JUMP JUMPDEST PUSH1 0x1 PUSH0 DUP3 DUP2 MSTORE PUSH1 0x20 ADD SWAP1 DUP2 MSTORE PUSH1 0x20 ADD PUSH0 KECCAK256 PUSH1 0x2 ADD PUSH0 SWAP1 SLOAD SWAP1 PUSH2 0x100 EXP SWAP1 DIV PUSH1 0xFF AND PUSH2 0x7BF JUMPI PUSH1 0x40 MLOAD PUSH32 0x8C379A000000000000000000000000000000000000000000000000000000000 DUP2 MSTORE PUSH1 0x4 ADD PUSH2 0x7B6 SWAP1 PUSH2 0x162F JUMP JUMPDEST PUSH1 0x40 MLOAD DUP1 SWAP2 SUB SWAP1 REVERT JUMPDEST PUSH1 0x1 PUSH0 DUP3 DUP2 MSTORE PUSH1 0x20 ADD SWAP1 DUP2 MSTORE PUSH1 0x20 ADD PUSH0 KECCAK256 PUSH0 ADD PUSH0 SWAP1 SLOAD SWAP1 PUSH2 0x100 EXP SWAP1 DIV PUSH20 0xFFFFFFFFFFFFFFFFFFFFFFFFFFFFFFFFFFFFFFFF AND PUSH20 0xFFFFFFFFFFFFFFFFFFFFFFFFFFFFFFFFFFFFFFFF AND CALLER PUSH20 0xFFFFFFFFFFFFFFFFFFFFFFFFFFFFFFFFFFFFFFFF AND DUP3 PUSH32 0xD62937245F876EB48076464AB0F1DF7295B17A2E93B4B75B4DA096404632AED4 TIMESTAMP PUSH1 0x40 MLOAD PUSH2 0x84F SWAP2 SWAP1 PUSH2 0x1518 JUMP JUMPDEST PUSH1 0x40 MLOAD DUP1 SWAP2 SUB SWAP1 LOG4 POP JUMP JUMPDEST DUP1 PUSH1 0x1 PUSH0 DUP3 DUP2 MSTORE PUSH1 0x20 ADD SWAP1 DUP2 MSTORE PUSH1 0x20 ADD PUSH0 KECCAK256 PUSH1 0x2 ADD PUSH0 SWAP1 SLOAD SWAP1 PUSH2 0x100 EXP SWAP1 DIV PUSH1 0xFF AND PUSH2 0x8BB JUMPI PUSH1 0x40 MLOAD PUSH32 0x8C379A000000000000000000000000000000000000000000000000000000000 DUP2 MSTORE PUSH1 0x4 ADD PUSH2 0x8B2 SWAP1 PUSH2 0x162F JUMP JUMPDEST PUSH1 0x40 MLOAD DUP1 SWAP2 SUB SWAP1 REVERT JUMPDEST CALLER PUSH20 0xFFFFFFFFFFFFFFFFFFFFFFFFFFFFFFFFFFFFFFFF AND PUSH1 0x1 PUSH0 DUP4 DUP2 MSTORE PUSH1 0x20 ADD SWAP1 DUP2 MSTORE PUSH1 0x20 ADD PUSH0 KECCAK256 PUSH0 ADD PUSH0 SWAP1 SLOAD SWAP1 PUSH2 0x100 EXP SWAP1 DIV PUSH20 0xFFFFFFFFFFFFFFFFFFFFFFFFFFFFFFFFFFFFFFFF AND PUSH20 0xFFFFFFFFFFFFFFFFFFFFFFFFFFFFFFFFFFFFFFFF AND EQ PUSH2 0x95B JUMPI PUSH1 0x40 MLOAD PUSH32 0x8C379A000000000000000000000000000000000000000000000000000000000 DUP2 MSTORE PUSH1 0x4 ADD PUSH2 0x952 SWAP1 PUSH2 0x175C JUMP JUMPDEST PUSH1 0x40 MLOAD DUP1 SWAP2 SUB SWAP1 REVERT JUMPDEST PUSH1 0x1 PUSH0 DUP4 DUP2 MSTORE PUSH1 0x20 ADD SWAP1 DUP2 MSTORE PUSH1 0x20 ADD PUSH0 KECCAK256 PUSH0 PUSH0 DUP3 ADD PUSH0 PUSH2 0x100 EXP DUP2 SLOAD SWAP1 PUSH20 0xFFFFFFFFFFFFFFFFFFFFFFFFFFFFFFFFFFFFFFFF MUL NOT AND SWAP1 SSTORE PUSH1 0x1 DUP3 ADD PUSH0 PUSH2 0x9A1 SWAP2 SWAP1 PUSH2 0x11D9 JUMP JUMPDEST PUSH1 0x2 DUP3 ADD PUSH0 PUSH2 0x100 EXP DUP2 SLOAD SWAP1 PUSH1 0xFF MUL NOT AND SWAP1 SSTORE POP POP CALLER PUSH20 0xFFFFFFFFFFFFFFFFFFFFFFFFFFFFFFFFFFFFFFFF AND DUP3 PUSH32 0x5F0C26152E348A4E21E023FFA27B58D6019F813F280F27CE5A1C4EC6C6BBB018 PUSH1 0x40 MLOAD PUSH1 0x40 MLOAD DUP1 SWAP2 SUB SWAP1 LOG3 POP POP JUMP JUMPDEST PUSH0 PUSH0 SLOAD SWAP1 POP SWAP1 JUMP JUMPDEST PUSH0 PUSH0 PUSH1 0x2 PUSH0 DUP6 DUP2 MSTORE PUSH1 0x20 ADD SWAP1 DUP2 MSTORE PUSH1 0x20 ADD PUSH0 KECCAK256 PUSH0 DUP5 PUSH20 0xFFFFFFFFFFFFFFFFFFFFFFFFFFFFFFFFFFFFFFFF AND PUSH20 0xFFFFFFFFFFFFFFFFFFFFFFFFFFFFFFFFFFFFFFFF AND DUP2 MSTORE PUSH1 0x20 ADD SWAP1 DUP2 MSTORE PUSH1 0x20 ADD PUSH0 KECCAK256 PUSH1 0x40 MLOAD DUP1 PUSH1 0x40 ADD PUSH1 0x40 MSTORE SWAP1 DUP2 PUSH0 DUP3 ADD SLOAD DUP2 MSTORE PUSH1 0x20 ADD PUSH1 0x1 DUP3 ADD PUSH0 SWAP1 SLOAD SWAP1 PUSH2 0x100 EXP SWAP1 DIV PUSH1 0xFF AND ISZERO ISZERO ISZERO ISZERO DUP2 MSTORE POP POP SWAP1 POP DUP1 PUSH1 0x20 ADD MLOAD PUSH2 0xA96 JUMPI PUSH0 SWAP2 POP POP PUSH2 0xAA0 JUMP JUMPDEST TIMESTAMP DUP2 PUSH0 ADD MLOAD GT SWAP2 POP POP JUMPDEST SWAP3 SWAP2 POP POP JUMP JUMPDEST DUP3 PUSH1 0x1 PUSH0 DUP3 DUP2 MSTORE PUSH1 0x20 ADD SWAP1 DUP2 MSTORE PUSH1 0x20 ADD PUSH0 KECCAK256 PUSH1 0x2 ADD PUSH0 SWAP1 SLOAD SWAP1 PUSH2 0x100 EXP SWAP1 DIV PUSH1 0xFF AND PUSH2 0xB07 JUMPI PUSH1 0x40 MLOAD PUSH32 0x8C379A000000000000000000000000000000000000000000000000000000000 DUP2 MSTORE PUSH1 0x4 ADD PUSH2 0xAFE SWAP1 PUSH2 0x162F JUMP JUMPDEST PUSH1 0x40 MLOAD DUP1 SWAP2 SUB SWAP1 REVERT JUMPDEST CALLER PUSH20 0xFFFFFFFFFFFFFFFFFFFFFFFFFFFFFFFFFFFFFFFF AND PUSH1 0x1 PUSH0 DUP4 DUP2 MSTORE PUSH1 0x20 ADD SWAP1 DUP2 MSTORE PUSH1 0x20 ADD PUSH0 KECCAK256 PUSH0 ADD PUSH0 SWAP1 SLOAD SWAP1 PUSH2 0x100 EXP SWAP1 DIV PUSH20 0xFFFFFFFFFFFFFFFFFFFFFFFFFFFFFFFFFFFFFFFF AND PUSH20 0xFFFFFFFFFFFFFFFFFFFFFFFFFFFFFFFFFFFFFFFF AND EQ PUSH2 0xBA7 JUMPI PUSH1 0x40 MLOAD PUSH32 0x8C379A000000000000000000000000000000000000000000000000000000000 DUP2 MSTORE PUSH1 0x4 ADD PUSH2 0xB9E SWAP1 PUSH2 0x175C JUMP JUMPDEST PUSH1 0x40 MLOAD DUP1 SWAP2 SUB SWAP1 REVERT JUMPDEST PUSH0 PUSH20 0xFFFFFFFFFFFFFFFFFFFFFFFFFFFFFFFFFFFFFFFF AND DUP4 PUSH20 0xFFFFFFFFFFFFFFFFFFFFFFFFFFFFFFFFFFFFFFFF AND SUB PUSH2 0xC15 JUMPI PUSH1 0x40 MLOAD PUSH32 0x8C379A000000000000000000000000000000000000000000000000000000000 DUP2 MSTORE PUSH1 0x4 ADD PUSH2 0xC0C SWAP1 PUSH2 0x1AC4 JUMP JUMPDEST PUSH1 0x40 MLOAD DUP1 SWAP2 SUB SWAP1 REVERT JUMPDEST PUSH1 0x1 PUSH0 DUP6 DUP2 MSTORE PUSH1 0x20 ADD SWAP1 DUP2 MSTORE PUSH1 0x20 ADD PUSH0 KECCAK256 PUSH1 0x2 ADD PUSH0 SWAP1 SLOAD SWAP1 PUSH2 0x100 EXP SWAP1 DIV PUSH1 0xFF AND PUSH2 0xC75 JUMPI PUSH1 0x40 MLOAD PUSH32 0x8C379A000000000000000000000000000000000000000000000000000000000 DUP2 MSTORE PUSH1 0x4 ADD PUSH2 0xC6C SWAP1 PUSH2 0x162F JUMP JUMPDEST PUSH1 0x40 MLOAD DUP1 SWAP2 SUB SWAP1 REVERT JUMPDEST TIMESTAMP DUP3 GT PUSH2 0xCB7 JUMPI PUSH1 0x40 MLOAD PUSH32 0x8C379A000000000000000000000000000000000000000000000000000000000 DUP2 MSTORE PUSH1 0x4 ADD PUSH2 0xCAE SWAP1 PUSH2 0x1B2C JUMP JUMPDEST PUSH1 0x40 MLOAD DUP1 SWAP2 SUB SWAP1 REVERT JUMPDEST PUSH1 0x40 MLOAD DUP1 PUSH1 0x40 ADD PUSH1 0x40 MSTORE DUP1 DUP4 DUP2 MSTORE PUSH1 0x20 ADD PUSH1 0x1 ISZERO ISZERO DUP2 MSTORE POP PUSH1 0x2 PUSH0 DUP7 DUP2 MSTORE PUSH1 0x20 ADD SWAP1 DUP2 MSTORE PUSH1 0x20 ADD PUSH0 KECCAK256 PUSH0 DUP6 PUSH20 0xFFFFFFFFFFFFFFFFFFFFFFFFFFFFFFFFFFFFFFFF AND PUSH20 0xFFFFFFFFFFFFFFFFFFFFFFFFFFFFFFFFFFFFFFFF AND DUP2 MSTORE PUSH1 0x20 ADD SWAP1 DUP2 MSTORE PUSH1 0x20 ADD PUSH0 KECCAK256 PUSH0 DUP3 ADD MLOAD DUP2 PUSH0 ADD SSTORE PUSH1 0x20 DUP3 ADD MLOAD DUP2 PUSH1 0x1 ADD PUSH0 PUSH2 0x100 EXP DUP2 SLOAD DUP2 PUSH1 0xFF MUL NOT AND SWAP1 DUP4 ISZERO ISZERO MUL OR SWAP1 SSTORE POP SWAP1 POP POP DUP3 PUSH20 0xFFFFFFFFFFFFFFFFFFFFFFFFFFFFFFFFFFFFFFFF AND PUSH1 0x1 PUSH0 DUP7 DUP2 MSTORE PUSH1 0x20 ADD SWAP1 DUP2 MSTORE PUSH1 0x20 ADD PUSH0 KECCAK256 PUSH0 ADD PUSH0 SWAP1 SLOAD SWAP1 PUSH2 0x100 EXP SWAP1 DIV PUSH20 0xFFFFFFFFFFFFFFFFFFFFFFFFFFFFFFFFFFFFFFFF AND PUSH20 0xFFFFFFFFFFFFFFFFFFFFFFFFFFFFFFFFFFFFFFFF AND DUP6 PUSH32 0x9FFCF664651D52310AEB78C0F8382CA5078D2DE7D3CF618CB5CE6E5CABF00992 DUP6 PUSH1 0x40 MLOAD PUSH2 0xDD5 SWAP2 SWAP1 PUSH2 0x1518 JUMP JUMPDEST PUSH1 0x40 MLOAD DUP1 SWAP2 SUB SWAP1 LOG4 POP POP POP POP JUMP JUMPDEST DUP2 PUSH1 0x1 PUSH0 DUP3 DUP2 MSTORE PUSH1 0x20 ADD SWAP1 DUP2 MSTORE PUSH1 0x20 ADD PUSH0 KECCAK256 PUSH1 0x2 ADD PUSH0 SWAP1 SLOAD SWAP1 PUSH2 0x100 EXP SWAP1 DIV PUSH1 0xFF AND PUSH2 0xE44 JUMPI PUSH1 0x40 MLOAD PUSH32 0x8C379A000000000000000000000000000000000000000000000000000000000 DUP2 MSTORE PUSH1 0x4 ADD PUSH2 0xE3B SWAP1 PUSH2 0x162F JUMP JUMPDEST PUSH1 0x40 MLOAD DUP1 SWAP2 SUB SWAP1 REVERT JUMPDEST CALLER PUSH20 0xFFFFFFFFFFFFFFFFFFFFFFFFFFFFFFFFFFFFFFFF AND PUSH1 0x1 PUSH0 DUP4 DUP2 MSTORE PUSH1 0x20 ADD SWAP1 DUP2 MSTORE PUSH1 0x20 ADD PUSH0 KECCAK256 PUSH0 ADD PUSH0 SWAP1 SLOAD SWAP1 PUSH2 0x100 EXP SWAP1 DIV PUSH20 0xFFFFFFFFFFFFFFFFFFFFFFFFFFFFFFFFFFFFFFFF AND PUSH20 0xFFFFFFFFFFFFFFFFFFFFFFFFFFFFFFFFFFFFFFFF AND EQ PUSH2 0xEE4 JUMPI PUSH1 0x40 MLOAD PUSH32 0x8C379A000000000000000000000000000000000000000000000000000000000 DUP2 MSTORE PUSH1 0x4 ADD PUSH2 0xEDB SWAP1 PUSH2 0x175C JUMP JUMPDEST PUSH1 0x40 MLOAD DUP1 SWAP2 SUB SWAP1 REVERT JUMPDEST PUSH1 0x1 PUSH0 DUP5 DUP2 MSTORE PUSH1 0x20 ADD SWAP1 DUP2 MSTORE PUSH1 0x20 ADD PUSH0 KECCAK256 PUSH1 0x2 ADD PUSH0 SWAP1 SLOAD SWAP1 PUSH2 0x100 EXP SWAP1 DIV PUSH1 0xFF AND PUSH2 0xF44 JUMPI PUSH1 0x40 MLOAD PUSH32 0x8C379A000000000000000000000000000000000000000000000000000000000 DUP2 MSTORE PUSH1 0x4 ADD PUSH2 0xF3B SWAP1 PUSH2 0x162F JUMP JUMPDEST PUSH1 0x40 MLOAD DUP1 SWAP2 SUB SWAP1 REVERT JUMPDEST PUSH1 0x40 MLOAD DUP1 PUSH1 0x40 ADD PUSH1 0x40 MSTORE DUP1 PUSH0 DUP2 MSTORE PUSH1 0x20 ADD PUSH0 ISZERO ISZERO DUP2 MSTORE POP PUSH1 0x2 PUSH0 DUP6 DUP2 MSTORE PUSH1 0x20 ADD SWAP1 DUP2 MSTORE PUSH1 0x20 ADD PUSH0 KECCAK256 PUSH0 DUP5 PUSH20 0xFFFFFFFFFFFFFFFFFFFFFFFFFFFFFFFFFFFFFFFF AND PUSH20 0xFFFFFFFFFFFFFFFFFFFFFFFFFFFFFFFFFFFFFFFF AND DUP2 MSTORE PUSH1 0x20 ADD SWAP1 DUP2 MSTORE PUSH1 0x20 ADD PUSH0 KECCAK256 PUSH0 DUP3 ADD MLOAD DUP2 PUSH0 ADD SSTORE PUSH1 0x20 DUP3 ADD MLOAD DUP2 PUSH1 0x1 ADD PUSH0 PUSH2 0x100 EXP DUP2 SLOAD DUP2 PUSH1 0xFF MUL NOT AND SWAP1 DUP4 ISZERO ISZERO MUL OR SWAP1 SSTORE POP SWAP1 POP POP DUP2 PUSH20 0xFFFFFFFFFFFFFFFFFFFFFFFFFFFFFFFFFFFFFFFF AND PUSH1 0x1 PUSH0 DUP6 DUP2 MSTORE PUSH1 0x20 ADD SWAP1 DUP2 MSTORE PUSH1 0x20 ADD PUSH0 KECCAK256 PUSH0 ADD PUSH0 SWAP1 SLOAD SWAP1 PUSH2 0x100 EXP SWAP1 DIV PUSH20 0xFFFFFFFFFFFFFFFFFFFFFFFFFFFFFFFFFFFFFFFF AND PUSH20 0xFFFFFFFFFFFFFFFFFFFFFFFFFFFFFFFFFFFFFFFF AND DUP5 PUSH32 0x260547D4038414EF72F081DCDE91825693DFF9BC433178F3E92AD36E0CD22750 PUSH1 0x40 MLOAD PUSH1 0x40 MLOAD DUP1 SWAP2 SUB SWAP1 LOG4 POP POP POP JUMP JUMPDEST PUSH0 PUSH0 PUSH0 DUP2 SLOAD DUP1 SWAP3 SWAP2 SWAP1 PUSH2 0x1075 SWAP1 PUSH2 0x1B77 JUMP JUMPDEST SWAP2 SWAP1 POP SSTORE POP PUSH0 SLOAD SWAP1 POP PUSH1 0x40 MLOAD DUP1 PUSH1 0x60 ADD PUSH1 0x40 MSTORE DUP1 CALLER PUSH20 0xFFFFFFFFFFFFFFFFFFFFFFFFFFFFFFFFFFFFFFFF AND DUP2 MSTORE PUSH1 0x20 ADD DUP5 DUP5 DUP1 DUP1 PUSH1 0x1F ADD PUSH1 0x20 DUP1 SWAP2 DIV MUL PUSH1 0x20 ADD PUSH1 0x40 MLOAD SWAP1 DUP2 ADD PUSH1 0x40 MSTORE DUP1 SWAP4 SWAP3 SWAP2 SWAP1 DUP2 DUP2 MSTORE PUSH1 0x20 ADD DUP4 DUP4 DUP1 DUP3 DUP5 CALLDATACOPY PUSH0 DUP2 DUP5 ADD MSTORE PUSH1 0x1F NOT PUSH1 0x1F DUP3 ADD AND SWAP1 POP DUP1 DUP4 ADD SWAP3 POP POP POP POP POP POP POP DUP2 MSTORE PUSH1 0x20 ADD PUSH1 0x1 ISZERO ISZERO DUP2 MSTORE POP PUSH1 0x1 PUSH0 DUP4 DUP2 MSTORE PUSH1 0x20 ADD SWAP1 DUP2 MSTORE PUSH1 0x20 ADD PUSH0 KECCAK256 PUSH0 DUP3 ADD MLOAD DUP2 PUSH0 ADD PUSH0 PUSH2 0x100 EXP DUP2 SLOAD DUP2 PUSH20 0xFFFFFFFFFFFFFFFFFFFFFFFFFFFFFFFFFFFFFFFF MUL NOT AND SWAP1 DUP4 PUSH20 0xFFFFFFFFFFFFFFFFFFFFFFFFFFFFFFFFFFFFFFFF AND MUL OR SWAP1 SSTORE POP PUSH1 0x20 DUP3 ADD MLOAD DUP2 PUSH1 0x1 ADD SWAP1 DUP2 PUSH2 0x115F SWAP2 SWAP1 PUSH2 0x1BBE JUMP JUMPDEST POP PUSH1 0x40 DUP3 ADD MLOAD DUP2 PUSH1 0x2 ADD PUSH0 PUSH2 0x100 EXP DUP2 SLOAD DUP2 PUSH1 0xFF MUL NOT AND SWAP1 DUP4 ISZERO ISZERO MUL OR SWAP1 SSTORE POP SWAP1 POP POP CALLER PUSH20 0xFFFFFFFFFFFFFFFFFFFFFFFFFFFFFFFFFFFFFFFF AND DUP2 PUSH32 0x99A9454438287BD513ED7DA46FC0FF0CABC6B573EEAFB583A59E01BC2E52EF90 DUP6 DUP6 PUSH1 0x40 MLOAD PUSH2 0x11CB SWAP3 SWAP2 SWAP1 PUSH2 0x1A58 JUMP JUMPDEST PUSH1 0x40 MLOAD DUP1 SWAP2 SUB SWAP1 LOG3 SWAP3 SWAP2 POP POP JUMP JUMPDEST POP DUP1 SLOAD PUSH2 0x11E5 SWAP1 PUSH2 0x167A JUMP JUMPDEST PUSH0 DUP3 SSTORE DUP1 PUSH1 0x1F LT PUSH2 0x11F6 JUMPI POP PUSH2 0x1213 JUMP JUMPDEST PUSH1 0x1F ADD PUSH1 0x20 SWAP1 DIV SWAP1 PUSH0 MSTORE PUSH1 0x20 PUSH0 KECCAK256 SWAP1 DUP2 ADD SWAP1 PUSH2 0x1212 SWAP2 SWAP1 PUSH2 0x1216 JUMP JUMPDEST JUMPDEST POP JUMP JUMPDEST JUMPDEST DUP1 DUP3 GT ISZERO PUSH2 0x122D JUMPI PUSH0 DUP2 PUSH0 SWAP1 SSTORE POP PUSH1 0x1 ADD PUSH2 0x1217 JUMP JUMPDEST POP SWAP1 JUMP JUMPDEST PUSH0 PUSH0 REVERT JUMPDEST PUSH0 PUSH0 REVERT JUMPDEST PUSH0 DUP2 SWAP1 POP SWAP2 SWAP1 POP JUMP JUMPDEST PUSH2 0x124B DUP2 PUSH2 0x1239 JUMP JUMPDEST DUP2 EQ PUSH2 0x1255 JUMPI PUSH0 PUSH0 REVERT JUMPDEST POP JUMP JUMPDEST PUSH0 DUP2 CALLDATALOAD SWAP1 POP PUSH2 0x1266 DUP2 PUSH2 0x1242 JUMP JUMPDEST SWAP3 SWAP2 POP POP JUMP JUMPDEST PUSH0 PUSH1 0x20 DUP3 DUP5 SUB SLT ISZERO PUSH2 0x1281 JUMPI PUSH2 0x1280 PUSH2 0x1231 JUMP JUMPDEST JUMPDEST PUSH0 PUSH2 0x128E DUP5 DUP3 DUP6 ADD PUSH2 0x1258 JUMP JUMPDEST SWAP2 POP POP SWAP3 SWAP2 POP POP JUMP JUMPDEST PUSH0 DUP2 MLOAD SWAP1 POP SWAP2 SWAP1 POP JUMP JUMPDEST PUSH0 DUP3 DUP3 MSTORE PUSH1 0x20 DUP3 ADD SWAP1 POP SWAP3 SWAP2 POP POP JUMP JUMPDEST DUP3 DUP2 DUP4 MCOPY PUSH0 DUP4 DUP4 ADD MSTORE POP POP POP JUMP JUMPDEST PUSH0 PUSH1 0x1F NOT PUSH1 0x1F DUP4 ADD AND SWAP1 POP SWAP2 SWAP1 POP JUMP JUMPDEST PUSH0 PUSH2 0x12D9 DUP3 PUSH2 0x1297 JUMP JUMPDEST PUSH2 0x12E3 DUP2 DUP6 PUSH2 0x12A1 JUMP JUMPDEST SWAP4 POP PUSH2 0x12F3 DUP2 DUP6 PUSH1 0x20 DUP7 ADD PUSH2 0x12B1 JUMP JUMPDEST PUSH2 0x12FC DUP2 PUSH2 0x12BF JUMP JUMPDEST DUP5 ADD SWAP2 POP POP SWAP3 SWAP2 POP POP JUMP JUMPDEST PUSH0 PUSH1 0x20 DUP3 ADD SWAP1 POP DUP2 DUP2 SUB PUSH0 DUP4 ADD MSTORE PUSH2 0x131F DUP2 DUP5 PUSH2 0x12CF JUMP JUMPDEST SWAP1 POP SWAP3 SWAP2 POP POP JUMP JUMPDEST PUSH0 PUSH0 REVERT JUMPDEST PUSH0 PUSH0 REVERT JUMPDEST PUSH0 PUSH0 REVERT JUMPDEST PUSH0 PUSH0 DUP4 PUSH1 0x1F DUP5 ADD SLT PUSH2 0x1348 JUMPI PUSH2 0x1347 PUSH2 0x1327 JUMP JUMPDEST JUMPDEST DUP3 CALLDATALOAD SWAP1 POP PUSH8 0xFFFFFFFFFFFFFFFF DUP2 GT ISZERO PUSH2 0x1365 JUMPI PUSH2 0x1364 PUSH2 0x132B JUMP JUMPDEST JUMPDEST PUSH1 0x20 DUP4 ADD SWAP2 POP DUP4 PUSH1 0x1 DUP3 MUL DUP4 ADD GT ISZERO PUSH2 0x1381 JUMPI PUSH2 0x1380 PUSH2 0x132F JUMP JUMPDEST JUMPDEST SWAP3 POP SWAP3 SWAP1 POP JUMP JUMPDEST PUSH0 PUSH0 PUSH0 PUSH1 0x40 DUP5 DUP7 SUB SLT ISZERO PUSH2 0x139F JUMPI PUSH2 0x139E PUSH2 0x1231 JUMP JUMPDEST JUMPDEST PUSH0 PUSH2 0x13AC DUP7 DUP3 DUP8 ADD PUSH2 0x1258 JUMP JUMPDEST SWAP4 POP POP PUSH1 0x20 DUP5 ADD CALLDATALOAD PUSH8 0xFFFFFFFFFFFFFFFF DUP2 GT ISZERO PUSH2 0x13CD JUMPI PUSH2 0x13CC PUSH2 0x1235 JUMP JUMPDEST JUMPDEST PUSH2 0x13D9 DUP7 DUP3 DUP8 ADD PUSH2 0x1333 JUMP JUMPDEST SWAP3 POP SWAP3 POP POP SWAP3 POP SWAP3 POP SWAP3 JUMP JUMPDEST PUSH0 PUSH20 0xFFFFFFFFFFFFFFFFFFFFFFFFFFFFFFFFFFFFFFFF DUP3 AND SWAP1 POP SWAP2 SWAP1 POP JUMP JUMPDEST PUSH0 PUSH2 0x140E DUP3 PUSH2 0x13E5 JUMP JUMPDEST SWAP1 POP SWAP2 SWAP1 POP JUMP JUMPDEST PUSH2 0x141E DUP2 PUSH2 0x1404 JUMP JUMPDEST DUP3 MSTORE POP POP JUMP JUMPDEST PUSH0 DUP2 ISZERO ISZERO SWAP1 POP SWAP2 SWAP1 POP JUMP JUMPDEST PUSH2 0x1438 DUP2 PUSH2 0x1424 JUMP JUMPDEST DUP3 MSTORE POP POP JUMP JUMPDEST PUSH0 PUSH1 0x60 DUP3 ADD SWAP1 POP PUSH2 0x1451 PUSH0 DUP4 ADD DUP7 PUSH2 0x1415 JUMP JUMPDEST DUP2 DUP2 SUB PUSH1 0x20 DUP4 ADD MSTORE PUSH2 0x1463 DUP2 DUP6 PUSH2 0x12CF JUMP JUMPDEST SWAP1 POP PUSH2 0x1472 PUSH1 0x40 DUP4 ADD DUP5 PUSH2 0x142F JUMP JUMPDEST SWAP5 SWAP4 POP POP POP POP JUMP JUMPDEST PUSH2 0x1483 DUP2 PUSH2 0x1404 JUMP JUMPDEST DUP2 EQ PUSH2 0x148D JUMPI PUSH0 PUSH0 REVERT JUMPDEST POP JUMP JUMPDEST PUSH0 DUP2 CALLDATALOAD SWAP1 POP PUSH2 0x149E DUP2 PUSH2 0x147A JUMP JUMPDEST SWAP3 SWAP2 POP POP JUMP JUMPDEST PUSH0 PUSH0 PUSH1 0x40 DUP4 DUP6 SUB SLT ISZERO PUSH2 0x14BA JUMPI PUSH2 0x14B9 PUSH2 0x1231 JUMP JUMPDEST JUMPDEST PUSH0 PUSH2 0x14C7 DUP6 DUP3 DUP7 ADD PUSH2 0x1258 JUMP JUMPDEST SWAP3 POP POP PUSH1 0x20 PUSH2 0x14D8 DUP6 DUP3 DUP7 ADD PUSH2 0x1490 JUMP JUMPDEST SWAP2 POP POP SWAP3 POP SWAP3 SWAP1 POP JUMP JUMPDEST PUSH2 0x14EB DUP2 PUSH2 0x1239 JUMP JUMPDEST DUP3 MSTORE POP POP JUMP JUMPDEST PUSH0 PUSH1 0x40 DUP3 ADD SWAP1 POP PUSH2 0x1504 PUSH0 DUP4 ADD DUP6 PUSH2 0x14E2 JUMP JUMPDEST PUSH2 0x1511 PUSH1 0x20 DUP4 ADD DUP5 PUSH2 0x142F JUMP JUMPDEST SWAP4 SWAP3 POP POP POP JUMP JUMPDEST PUSH0 PUSH1 0x20 DUP3 ADD SWAP1 POP PUSH2 0x152B PUSH0 DUP4 ADD DUP5 PUSH2 0x14E2 JUMP JUMPDEST SWAP3 SWAP2 POP POP JUMP JUMPDEST PUSH0 PUSH1 0x20 DUP3 ADD SWAP1 POP PUSH2 0x1544 PUSH0 DUP4 ADD DUP5 PUSH2 0x142F JUMP JUMPDEST SWAP3 SWAP2 POP POP JUMP JUMPDEST PUSH0 PUSH0 PUSH0 PUSH1 0x60 DUP5 DUP7 SUB SLT ISZERO PUSH2 0x1561 JUMPI PUSH2 0x1560 PUSH2 0x1231 JUMP JUMPDEST JUMPDEST PUSH0 PUSH2 0x156E DUP7 DUP3 DUP8 ADD PUSH2 0x1258 JUMP JUMPDEST SWAP4 POP POP PUSH1 0x20 PUSH2 0x157F DUP7 DUP3 DUP8 ADD PUSH2 0x1490 JUMP JUMPDEST SWAP3 POP POP PUSH1 0x40 PUSH2 0x1590 DUP7 DUP3 DUP8 ADD PUSH2 0x1258 JUMP JUMPDEST SWAP2 POP POP SWAP3 POP SWAP3 POP SWAP3 JUMP JUMPDEST PUSH0 PUSH0 PUSH1 0x20 DUP4 DUP6 SUB SLT ISZERO PUSH2 0x15B0 JUMPI PUSH2 0x15AF PUSH2 0x1231 JUMP JUMPDEST JUMPDEST PUSH0 DUP4 ADD CALLDATALOAD PUSH8 0xFFFFFFFFFFFFFFFF DUP2 GT ISZERO PUSH2 0x15CD JUMPI PUSH2 0x15CC PUSH2 0x1235 JUMP JUMPDEST JUMPDEST PUSH2 0x15D9 DUP6 DUP3 DUP7 ADD PUSH2 0x1333 JUMP JUMPDEST SWAP3 POP SWAP3 POP POP SWAP3 POP SWAP3 SWAP1 POP JUMP JUMPDEST PUSH32 0x5265636F726420646F6573206E6F742065786973740000000000000000000000 PUSH0 DUP3 ADD MSTORE POP JUMP JUMPDEST PUSH0 PUSH2 0x1619 PUSH1 0x15 DUP4 PUSH2 0x12A1 JUMP JUMPDEST SWAP2 POP PUSH2 0x1624 DUP3 PUSH2 0x15E5 JUMP JUMPDEST PUSH1 0x20 DUP3 ADD SWAP1 POP SWAP2 SWAP1 POP JUMP JUMPDEST PUSH0 PUSH1 0x20 DUP3 ADD SWAP1 POP DUP2 DUP2 SUB PUSH0 DUP4 ADD MSTORE PUSH2 0x1646 DUP2 PUSH2 0x160D JUMP JUMPDEST SWAP1 POP SWAP2 SWAP1 POP JUMP JUMPDEST PUSH32 0x4E487B7100000000000000000000000000000000000000000000000000000000 PUSH0 MSTORE PUSH1 0x22 PUSH1 0x4 MSTORE PUSH1 0x24 PUSH0 REVERT JUMPDEST PUSH0 PUSH1 0x2 DUP3 DIV SWAP1 POP PUSH1 0x1 DUP3 AND DUP1 PUSH2 0x1691 JUMPI PUSH1 0x7F DUP3 AND SWAP2 POP JUMPDEST PUSH1 0x20 DUP3 LT DUP2 SUB PUSH2 0x16A4 JUMPI PUSH2 0x16A3 PUSH2 0x164D JUMP JUMPDEST JUMPDEST POP SWAP2 SWAP1 POP JUMP JUMPDEST PUSH32 0x4E6F2061636365737320746F207265636F726400000000000000000000000000 PUSH0 DUP3 ADD MSTORE POP JUMP JUMPDEST PUSH0 PUSH2 0x16DE PUSH1 0x13 DUP4 PUSH2 0x12A1 JUMP JUMPDEST SWAP2 POP PUSH2 0x16E9 DUP3 PUSH2 0x16AA JUMP JUMPDEST PUSH1 0x20 DUP3 ADD SWAP1 POP SWAP2 SWAP1 POP JUMP JUMPDEST PUSH0 PUSH1 0x20 DUP3 ADD SWAP1 POP DUP2 DUP2 SUB PUSH0 DUP4 ADD MSTORE PUSH2 0x170B DUP2 PUSH2 0x16D2 JUMP JUMPDEST SWAP1 POP SWAP2 SWAP1 POP JUMP JUMPDEST PUSH32 0x4E6F74207265636F7264206F776E657200000000000000000000000000000000 PUSH0 DUP3 ADD MSTORE POP JUMP JUMPDEST PUSH0 PUSH2 0x1746 PUSH1 0x10 DUP4 PUSH2 0x12A1 JUMP JUMPDEST SWAP2 POP PUSH2 0x1751 DUP3 PUSH2 0x1712 JUMP JUMPDEST PUSH1 0x20 DUP3 ADD SWAP1 POP SWAP2 SWAP1 POP JUMP JUMPDEST PUSH0 PUSH1 0x20 DUP3 ADD SWAP1 POP DUP2 DUP2 SUB PUSH0 DUP4 ADD MSTORE PUSH2 0x1773 DUP2 PUSH2 0x173A JUMP JUMPDEST SWAP1 POP SWAP2 SWAP1 POP JUMP JUMPDEST PUSH0 DUP3 SWAP1 POP SWAP3 SWAP2 POP POP JUMP JUMPDEST PUSH32 0x4E487B7100000000000000000000000000000000000000000000000000000000 PUSH0 MSTORE PUSH1 0x41 PUSH1 0x4 MSTORE PUSH1 0x24 PUSH0 REVERT JUMPDEST PUSH0 DUP2 SWAP1 POP DUP2 PUSH0 MSTORE PUSH1 0x20 PUSH0 KECCAK256 SWAP1 POP SWAP2 SWAP1 POP JUMP JUMPDEST PUSH0 PUSH1 0x20 PUSH1 0x1F DUP4 ADD DIV SWAP1 POP SWAP2 SWAP1 POP JUMP JUMPDEST PUSH0 DUP3 DUP3 SHL SWAP1 POP SWAP3 SWAP2 POP POP JUMP JUMPDEST PUSH0 PUSH1 0x8 DUP4 MUL PUSH2 0x180D PUSH32 0xFFFFFFFFFFFFFFFFFFFFFFFFFFFFFFFFFFFFFFFFFFFFFFFFFFFFFFFFFFFFFFFF DUP3 PUSH2 0x17D2 JUMP JUMPDEST PUSH2 0x1817 DUP7 DUP4 PUSH2 0x17D2 JUMP JUMPDEST SWAP6 POP DUP1 NOT DUP5 AND SWAP4 POP DUP1 DUP7 AND DUP5 OR SWAP3 POP POP POP SWAP4 SWAP3 POP POP POP JUMP JUMPDEST PUSH0 DUP2 SWAP1 POP SWAP2 SWAP1 POP JUMP JUMPDEST PUSH0 PUSH2 0x1852 PUSH2 0x184D PUSH2 0x1848 DUP5 PUSH2 0x1239 JUMP JUMPDEST PUSH2 0x182F JUMP JUMPDEST PUSH2 0x1239 JUMP JUMPDEST SWAP1 POP SWAP2 SWAP1 POP JUMP JUMPDEST PUSH0 DUP2 SWAP1 POP SWAP2 SWAP1 POP JUMP JUMPDEST PUSH2 0x186B DUP4 PUSH2 0x1838 JUMP JUMPDEST PUSH2 0x187F PUSH2 0x1877 DUP3 PUSH2 0x1859 JUMP JUMPDEST DUP5 DUP5 SLOAD PUSH2 0x17DE JUMP JUMPDEST DUP3 SSTORE POP POP POP POP JUMP JUMPDEST PUSH0 PUSH0 SWAP1 POP SWAP1 JUMP JUMPDEST PUSH2 0x1896 PUSH2 0x1887 JUMP JUMPDEST PUSH2 0x18A1 DUP2 DUP5 DUP5 PUSH2 0x1862 JUMP JUMPDEST POP POP POP JUMP JUMPDEST JUMPDEST DUP2 DUP2 LT ISZERO PUSH2 0x18C4 JUMPI PUSH2 0x18B9 PUSH0 DUP3 PUSH2 0x188E JUMP JUMPDEST PUSH1 0x1 DUP2 ADD SWAP1 POP PUSH2 0x18A7 JUMP JUMPDEST POP POP JUMP JUMPDEST PUSH1 0x1F DUP3 GT ISZERO PUSH2 0x1909 JUMPI PUSH2 0x18DA DUP2 PUSH2 0x17B1 JUMP JUMPDEST PUSH2 0x18E3 DUP5 PUSH2 0x17C3 JUMP JUMPDEST DUP2 ADD PUSH1 0x20 DUP6 LT ISZERO PUSH2 0x18F2 JUMPI DUP2 SWAP1 POP JUMPDEST PUSH2 0x1906 PUSH2 0x18FE DUP6 PUSH2 0x17C3 JUMP JUMPDEST DUP4 ADD DUP3 PUSH2 0x18A6 JUMP JUMPDEST POP POP JUMPDEST POP POP POP JUMP JUMPDEST PUSH0 DUP3 DUP3 SHR SWAP1 POP SWAP3 SWAP2 POP POP JUMP JUMPDEST PUSH0 PUSH2 0x1929 PUSH0 NOT DUP5 PUSH1 0x8 MUL PUSH2 0x190E JUMP JUMPDEST NOT DUP1 DUP4 AND SWAP2 POP POP SWAP3 SWAP2 POP POP JUMP JUMPDEST PUSH0 PUSH2 0x1941 DUP4 DUP4 PUSH2 0x191A JUMP JUMPDEST SWAP2 POP DUP3 PUSH1 0x2 MUL DUP3 OR SWAP1 POP SWAP3 SWAP2 POP POP JUMP JUMPDEST PUSH2 0x195B DUP4 DUP4 PUSH2 0x177A JUMP JUMPDEST PUSH8 0xFFFFFFFFFFFFFFFF DUP2 GT ISZERO PUSH2 0x1974 JUMPI PUSH2 0x1973 PUSH2 0x1784 JUMP JUMPDEST JUMPDEST PUSH2 0x197E DUP3 SLOAD PUSH2 0x167A JUMP JUMPDEST PUSH2 0x1989 DUP3 DUP3 DUP6 PUSH2 0x18C8 JUMP JUMPDEST PUSH0 PUSH1 0x1F DUP4 GT PUSH1 0x1 DUP2 EQ PUSH2 0x19B6 JUMPI PUSH0 DUP5 ISZERO PUSH2 0x19A4 JUMPI DUP3 DUP8 ADD CALLDATALOAD SWAP1 POP JUMPDEST PUSH2 0x19AE DUP6 DUP3 PUSH2 0x1936 JUMP JUMPDEST DUP7 SSTORE POP PUSH2 0x1A15 JUMP JUMPDEST PUSH1 0x1F NOT DUP5 AND PUSH2 0x19C4 DUP7 PUSH2 0x17B1 JUMP JUMPDEST PUSH0 JUMPDEST DUP3 DUP2 LT ISZERO PUSH2 0x19EB JUMPI DUP5 DUP10 ADD CALLDATALOAD DUP3 SSTORE PUSH1 0x1 DUP3 ADD SWAP2 POP PUSH1 0x20 DUP6 ADD SWAP5 POP PUSH1 0x20 DUP2 ADD SWAP1 POP PUSH2 0x19C6 JUMP JUMPDEST DUP7 DUP4 LT ISZERO PUSH2 0x1A08 JUMPI DUP5 DUP10 ADD CALLDATALOAD PUSH2 0x1A04 PUSH1 0x1F DUP10 AND DUP3 PUSH2 0x191A JUMP JUMPDEST DUP4 SSTORE POP JUMPDEST PUSH1 0x1 PUSH1 0x2 DUP9 MUL ADD DUP9 SSTORE POP POP POP JUMPDEST POP POP POP POP POP POP POP JUMP JUMPDEST DUP3 DUP2 DUP4 CALLDATACOPY PUSH0 DUP4 DUP4 ADD MSTORE POP POP POP JUMP JUMPDEST PUSH0 PUSH2 0x1A37 DUP4 DUP6 PUSH2 0x12A1 JUMP JUMPDEST SWAP4 POP PUSH2 0x1A44 DUP4 DUP6 DUP5 PUSH2 0x1A1E JUMP JUMPDEST PUSH2 0x1A4D DUP4 PUSH2 0x12BF JUMP JUMPDEST DUP5 ADD SWAP1 POP SWAP4 SWAP3 POP POP POP JUMP JUMPDEST PUSH0 PUSH1 0x20 DUP3 ADD SWAP1 POP DUP2 DUP2 SUB PUSH0 DUP4 ADD MSTORE PUSH2 0x1A71 DUP2 DUP5 DUP7 PUSH2 0x1A2C JUMP JUMPDEST SWAP1 POP SWAP4 SWAP3 POP POP POP JUMP JUMPDEST PUSH32 0x496E76616C69642070726F766964657200000000000000000000000000000000 PUSH0 DUP3 ADD MSTORE POP JUMP JUMPDEST PUSH0 PUSH2 0x1AAE PUSH1 0x10 DUP4 PUSH2 0x12A1 JUMP JUMPDEST SWAP2 POP PUSH2 0x1AB9 DUP3 PUSH2 0x1A7A JUMP JUMPDEST PUSH1 0x20 DUP3 ADD SWAP1 POP SWAP2 SWAP1 POP JUMP JUMPDEST PUSH0 PUSH1 0x20 DUP3 ADD SWAP1 POP DUP2 DUP2 SUB PUSH0 DUP4 ADD MSTORE PUSH2 0x1ADB DUP2 PUSH2 0x1AA2 JUMP JUMPDEST SWAP1 POP SWAP2 SWAP1 POP JUMP JUMPDEST PUSH32 0x657870697265734174206D75737420626520696E207468652066757475726500 PUSH0 DUP3 ADD MSTORE POP JUMP JUMPDEST PUSH0 PUSH2 0x1B16 PUSH1 0x1F DUP4 PUSH2 0x12A1 JUMP JUMPDEST SWAP2 POP PUSH2 0x1B21 DUP3 PUSH2 0x1AE2 JUMP JUMPDEST PUSH1 0x20 DUP3 ADD SWAP1 POP SWAP2 SWAP1 POP JUMP JUMPDEST PUSH0 PUSH1 0x20 DUP3 ADD SWAP1 POP DUP2 DUP2 SUB PUSH0 DUP4 ADD MSTORE PUSH2 0x1B43 DUP2 PUSH2 0x1B0A JUMP JUMPDEST SWAP1 POP SWAP2 SWAP1 POP JUMP JUMPDEST PUSH32 0x4E487B7100000000000000000000000000000000000000000000000000000000 PUSH0 MSTORE PUSH1 0x11 PUSH1 0x4 MSTORE PUSH1 0x24 PUSH0 REVERT JUMPDEST PUSH0 PUSH2 0x1B81 DUP3 PUSH2 0x1239 JUMP JUMPDEST SWAP2 POP PUSH32 0xFFFFFFFFFFFFFFFFFFFFFFFFFFFFFFFFFFFFFFFFFFFFFFFFFFFFFFFFFFFFFFFF DUP3 SUB PUSH2 0x1BB3 JUMPI PUSH2 0x1BB2 PUSH2 0x1B4A JUMP JUMPDEST JUMPDEST PUSH1 0x1 DUP3 ADD SWAP1 POP SWAP2 SWAP1 POP JUMP JUMPDEST PUSH2 0x1BC7 DUP3 PUSH2 0x1297 JUMP JUMPDEST PUSH8 0xFFFFFFFFFFFFFFFF DUP2 GT ISZERO PUSH2 0x1BE0 JUMPI PUSH2 0x1BDF PUSH2 0x1784 JUMP JUMPDEST JUMPDEST PUSH2 0x1BEA DUP3 SLOAD PUSH2 0x167A JUMP JUMPDEST PUSH2 0x1BF5 DUP3 DUP3 DUP6 PUSH2 0x18C8 JUMP JUMPDEST PUSH0 PUSH1 0x20 SWAP1 POP PUSH1 0x1F DUP4 GT PUSH1 0x1 DUP2 EQ PUSH2 0x1C26 JUMPI PUSH0 DUP5 ISZERO PUSH2 0x1C14 JUMPI DUP3 DUP8 ADD MLOAD SWAP1 POP JUMPDEST PUSH2 0x1C1E DUP6 DUP3 PUSH2 0x1936 JUMP JUMPDEST DUP7 SSTORE POP PUSH2 0x1C85 JUMP JUMPDEST PUSH1 0x1F NOT DUP5 AND PUSH2 0x1C34 DUP7 PUSH2 0x17B1 JUMP JUMPDEST PUSH0 JUMPDEST DUP3 DUP2 LT ISZERO PUSH2 0x1C5B JUMPI DUP5 DUP10 ADD MLOAD DUP3 SSTORE PUSH1 0x1 DUP3 ADD SWAP2 POP PUSH1 0x20 DUP6 ADD SWAP5 POP PUSH1 0x20 DUP2 ADD SWAP1 POP PUSH2 0x1C36 JUMP JUMPDEST DUP7 DUP4 LT ISZERO PUSH2 0x1C78 JUMPI DUP5 DUP10 ADD MLOAD PUSH2 0x1C74 PUSH1 0x1F DUP10 AND DUP3 PUSH2 0x191A JUMP JUMPDEST DUP4 SSTORE POP JUMPDEST PUSH1 0x1 PUSH1 0x2 DUP9 MUL ADD DUP9 SSTORE POP POP POP JUMPDEST POP POP POP POP POP POP JUMP INVALID LOG2 PUSH5 0x6970667358 0x22 SLT KECCAK256 LOG3 SWAP7 PUSH9 0x24382C333C1F2F4E0A 0xB2 0xD0 DUP11 BLOBBASEFEE 0xCB 0xCD DUP6 SWAP12 LOG4 0x4D BLOBBASEFEE SWAP4 0x25 SWAP15 PUSH13 0xE8B032802B64736F6C63430008 0x1E STOP CALLER "
		},
		"gasEstimates": {
			"creation": {
				"codeDepositCost": "1472600",
				"executionCost": "1539",
				"totalCost": "1474139"
			},
			"external": {
				"createRecord(string)": "infinite",
				"currentRecordCounter()": "2453",
				"getRecordUri(uint256)": "infinite",
				"grantAccess(uint256,address,uint256)": "infinite",
				"grants(uint256,address)": "infinite",
				"hasAccess(uint256,address)": "5396",
				"records(uint256)": "infinite",
				"removeRecord(uint256)": "infinite",
				"requestAccess(uint256)": "infinite",
				"revokeAccess(uint256,address)": "41106",
				"updateRecord(uint256,string)": "infinite"
			}
		},
		"methodIdentifiers": {
			"createRecord(string)": "db70504b",
			"currentRecordCounter()": "bd98aa8b",
			"getRecordUri(uint256)": "16030146",
			"grantAccess(uint256,address,uint256)": "d603b284",
			"grants(uint256,address)": "7526f517",
			"hasAccess(uint256,address)": "ced14198",
			"records(uint256)": "34461067",
			"removeRecord(uint256)": "8693a683",
			"requestAccess(uint256)": "7fdc2cdc",
			"revokeAccess(uint256,address)": "d9a5ec1b",
			"updateRecord(uint256,string)": "1c631466"
		}
	},
	"abi": [
		{
			"inputs": [],
			"stateMutability": "nonpayable",
			"type": "constructor"
		},
		{
			"anonymous": false,
			"inputs": [
				{
					"indexed": true,
					"internalType": "uint256",
					"name": "recordId",
					"type": "uint256"
				},
				{
					"indexed": true,
					"internalType": "address",
					"name": "patient",
					"type": "address"
				},
				{
					"indexed": true,
					"internalType": "address",
					"name": "provider",
					"type": "address"
				},
				{
					"indexed": false,
					"internalType": "uint256",
					"name": "expiresAt",
					"type": "uint256"
				}
			],
			"name": "AccessGranted",
			"type": "event"
		},
		{
			"anonymous": false,
			"inputs": [
				{
					"indexed": true,
					"internalType": "uint256",
					"name": "recordId",
					"type": "uint256"
				},
				{
					"indexed": true,
					"internalType": "address",
					"name": "provider",
					"type": "address"
				},
				{
					"indexed": true,
					"internalType": "address",
					"name": "patient",
					"type": "address"
				},
				{
					"indexed": false,
					"internalType": "uint256",
					"name": "timestamp",
					"type": "uint256"
				}
			],
			"name": "AccessRequested",
			"type": "event"
		},
		{
			"anonymous": false,
			"inputs": [
				{
					"indexed": true,
					"internalType": "uint256",
					"name": "recordId",
					"type": "uint256"
				},
				{
					"indexed": true,
					"internalType": "address",
					"name": "patient",
					"type": "address"
				},
				{
					"indexed": true,
					"internalType": "address",
					"name": "provider",
					"type": "address"
				}
			],
			"name": "AccessRevoked",
			"type": "event"
		},
		{
			"anonymous": false,
			"inputs": [
				{
					"indexed": true,
					"internalType": "uint256",
					"name": "recordId",
					"type": "uint256"
				},
				{
					"indexed": true,
					"internalType": "address",
					"name": "owner",
					"type": "address"
				},
				{
					"indexed": false,
					"internalType": "string",
					"name": "uri",
					"type": "string"
				}
			],
			"name": "RecordCreated",
			"type": "event"
		},
		{
			"anonymous": false,
			"inputs": [
				{
					"indexed": true,
					"internalType": "uint256",
					"name": "recordId",
					"type": "uint256"
				},
				{
					"indexed": true,
					"internalType": "address",
					"name": "owner",
					"type": "address"
				}
			],
			"name": "RecordRemoved",
			"type": "event"
		},
		{
			"anonymous": false,
			"inputs": [
				{
					"indexed": true,
					"internalType": "uint256",
					"name": "recordId",
					"type": "uint256"
				},
				{
					"indexed": true,
					"internalType": "address",
					"name": "owner",
					"type": "address"
				},
				{
					"indexed": false,
					"internalType": "string",
					"name": "newUri",
					"type": "string"
				}
			],
			"name": "RecordUpdated",
			"type": "event"
		},
		{
			"inputs": [
				{
					"internalType": "string",
					"name": "uri",
					"type": "string"
				}
			],
			"name": "createRecord",
			"outputs": [
				{
					"internalType": "uint256",
					"name": "recordId",
					"type": "uint256"
				}
			],
			"stateMutability": "nonpayable",
			"type": "function"
		},
		{
			"inputs": [],
			"name": "currentRecordCounter",
			"outputs": [
				{
					"internalType": "uint256",
					"name": "",
					"type": "uint256"
				}
			],
			"stateMutability": "view",
			"type": "function"
		},
		{
			"inputs": [
				{
					"internalType": "uint256",
					"name": "recordId",
					"type": "uint256"
				}
			],
			"name": "getRecordUri",
			"outputs": [
				{
					"internalType": "string",
					"name": "",
					"type": "string"
				}
			],
			"stateMutability": "view",
			"type": "function"
		},
		{
			"inputs": [
				{
					"internalType": "uint256",
					"name": "recordId",
					"type": "uint256"
				},
				{
					"internalType": "address",
					"name": "provider",
					"type": "address"
				},
				{
					"internalType": "uint256",
					"name": "expiresAt",
					"type": "uint256"
				}
			],
			"name": "grantAccess",
			"outputs": [],
			"stateMutability": "nonpayable",
			"type": "function"
		},
		{
			"inputs": [
				{
					"internalType": "uint256",
					"name": "",
					"type": "uint256"
				},
				{
					"internalType": "address",
					"name": "",
					"type": "address"
				}
			],
			"name": "grants",
			"outputs": [
				{
					"internalType": "uint256",
					"name": "expiresAt",
					"type": "uint256"
				},
				{
					"internalType": "bool",
					"name": "allowed",
					"type": "bool"
				}
			],
			"stateMutability": "view",
			"type": "function"
		},
		{
			"inputs": [
				{
					"internalType": "uint256",
					"name": "recordId",
					"type": "uint256"
				},
				{
					"internalType": "address",
					"name": "provider",
					"type": "address"
				}
			],
			"name": "hasAccess",
			"outputs": [
				{
					"internalType": "bool",
					"name": "",
					"type": "bool"
				}
			],
			"stateMutability": "view",
			"type": "function"
		},
		{
			"inputs": [
				{
					"internalType": "uint256",
					"name": "",
					"type": "uint256"
				}
			],
			"name": "records",
			"outputs": [
				{
					"internalType": "address",
					"name": "owner",
					"type": "address"
				},
				{
					"internalType": "string",
					"name": "uri",
					"type": "string"
				},
				{
					"internalType": "bool",
					"name": "exists",
					"type": "bool"
				}
			],
			"stateMutability": "view",
			"type": "function"
		},
		{
			"inputs": [
				{
					"internalType": "uint256",
					"name": "recordId",
					"type": "uint256"
				}
			],
			"name": "removeRecord",
			"outputs": [],
			"stateMutability": "nonpayable",
			"type": "function"
		},
		{
			"inputs": [
				{
					"internalType": "uint256",
					"name": "recordId",
					"type": "uint256"
				}
			],
			"name": "requestAccess",
			"outputs": [],
			"stateMutability": "nonpayable",
			"type": "function"
		},
		{
			"inputs": [
				{
					"internalType": "uint256",
					"name": "recordId",
					"type": "uint256"
				},
				{
					"internalType": "address",
					"name": "provider",
					"type": "address"
				}
			],
			"name": "revokeAccess",
			"outputs": [],
			"stateMutability": "nonpayable",
			"type": "function"
		},
		{
			"inputs": [
				{
					"internalType": "uint256",
					"name": "recordId",
					"type": "uint256"
				},
				{
					"internalType": "string",
					"name": "newUri",
					"type": "string"
				}
			],
			"name": "updateRecord",
			"outputs": [],
			"stateMutability": "nonpayable",
			"type": "function"
		}
	]
}